:100000000C94D8040C94FE040C94FE040C94FE048E
:100010000C94FE040C94FE040C94FE040C94FE0458
:100020000C94FE040C94FE040C94FE040C94FE0448
:100030000C94FE040C94FE040C94FE040C94FE0438
:100040000C94FE040C94FE040C94FE040C94FE0428
:100050000C94FE040C94FE040C94FE040C94FE0418
:100060000C94FE040C94FE040C94FE040C94FE0408
:100070000C94FE040C94FE040C94FE040C94FE04F8
:100080000C94FE040C94FE040C94FE040C94FE04E8
:100090000C94FE040C94FE040C94FE040C94FE04D8
:1000A0000C94FE040C94FE040C94FE040C94FE04C8
:1000B0000C94FE040C94FE040C94FE040C94FE04B8
:1000C0000C94FE040C94FE040C94FE040C94FE04A8
:1000D0000C94FE040C94FE040C94FE040C94FE0498
:1000E0000C94FE040C94FE040C94FE040C94FE0488
:1000F0000C94FE040C94FE040C94FE040C94FE0478
:100100000C94FE040C94FE040C94FE040C94FE0467
:100110000C94FE040C94FE040C94FE040C94FE0457
:100120000C94FE040C94FE040C94FE040C94FE0447
:100130000C94FE040C94FE040C94FE040C94FE0437
:100140000C94FE040C94FE040C94FE040C94FE0427
:100150000C94FE040C94FE040C94FE040C94FE0417
:100160000C94FE040C94FE040C94FE040C94FE0407
:100170000C94FE040C94FE040C94FE040C94FE04F7
:100180000C94FE040C94FE040C94FE040C94FE04E7
:100190000C94FE040C94FE040C94FE040C94FE04D7
:1001A0000C94FE040C94FE040C94FE040C94FE04C7
:1001B0000C94FE040C94FE040C94FE040C94FE04B7
:1001C0000C94FE040C94FE040C94FE040C94FE04A7
:1001D0000C94FE040C94FE040C94FE040C94FE0497
:1001E0000C94FE040C94FE040C94FE040C94FE0487
:1001F0000C94FE041FFFFFFFFFFFFFFFFFFFFFFF49
:100200005CEF2C248806C827161ABD189186506BFF
:10021000CC065F204344C125BAAB5F82BCDB43B34D
:100220005D62CE65D7D9769FAD23BCB11411F5516F
:10023000EA9BE2F4D6DDB5ED7E1526D5F58A994721
:100240004919B8C9E7D2A137FB5117812753B7B86D
:10025000E8A773D9FE151BD0928596D3148CB49F52
:10026000FF487508BA9F720807E44D00FFC1668613
:10027000270CFC821A5409BEFFEC8AC3C159431BE8
:10028000FDC99BFDFFFA7DF4B6E92C28A6FCD4C07D
:10029000FFFE94BB4554B5AC4B869C62FFFFAADEC3
:1002A0001B1CAA95EC72329EFFFFEDDC1C6436DC51
:1002B000337F6316FFFFFC7C9DC2569AD95E7B2C70
:1002C000FFFFFF61BC337FED8E0B132AFFFFFFE6BC
:1002D000B3CF05F705B9D725FFFFFFFC53EA610E41
:1002E00099E8F72BFFFFFFFF841943DEC6E2F0D742
:1002F000FFFFFFFFF12D07EC4745913CFFFFFFFF9C
:10030000FE63E348EE62D420FFFFFFFFFFD762C722
:10031000064A0C6CFFFFFFFFFFFC5E37C672F3A6B8
:10032000FFFFFFFFFFFFB48F6ABEF8B0FFFFFFFFC4
:10033000FFFFFA72697598CEFFFFFFFFFFFFFFA175
:1003400012F5A30DFFFFFFFFFFFFFFFA4016ED3D83
:10035000FFFFFFFFFFFFFFFFAF22D9AFFFFFFFFF50
:10036000FFFFFFFFFBF88681FFFFFFFFFFFFFFFF9F
:10037000FFD16385FFFFFFFFFFFFFFFFFFFE16FFBB
:10038000FFFFFFFFFFFFFFFFFFFFEDD3FFFFFFFFBB
:10039000FFFFFFFFFFFFFF62FFFFFFFFFFFFFFFF0A
:1003A000FFFFFFFAFFFFFFFFFFFFFFFFFFFFFFFF62
:1003B0001E04CE06C4053C09D403FB0E46096307A0
:1003C000FC0A6D0E000595022B0E01067208F6065A
:1003D0004C0976099F047B027F03BF09A801D80856
:1003E000960F360408027F0A7A0D220F07042503B0
:1003F0008300D0070E070804D001AC09500F36095E
:100400005A0BF3084C090F0071083B05C70BEC0AA7
:10041000C000720E24085409340F2B08670AD20258
:100420001B09D0025C0F0C01210C4807A408BC0F6B
:10043000600A450BA403D80A6400F8057709720224
:1004400036062F062E024C06890A0D01F302BF0D57
:10045000C908DD0C3A068104AB02A50A0F07C304E4
:100460003B05A807E30F41097A00D80F4F016B0C39
:10047000BF0EF901820E770D680F9B054F0F030F1A
:10048000BB0BEF0EC80D8803C9025B069E09100462
:10049000FD04AA01520AD70AB102AB0DAB0EDC0271
:1004A0003F0DC206DB066506520A5700FC0EEF033D
:1004B000DD0690049B0D8C08D50C22092E0CFC0344
:1004C0009E029809DA063A0DB307B5004B09E20817
:1004D0002D04EE013604A80ABF0941068502650A0B
:1004E000FA0D3900A10E4E0D2E0FAA032002940121
:1004F000980A6D08740240000808E40E210CA90C4B
:100500003F074E090C06E203DD072D07D20FD80284
:10051000FA0E2809B807C009D2013804E809340FD7
:100520008B0B8D0D8A02D10D1405620D11083C0351
:10053000A6026509C303B001AF0FAA07E4050D07C2
:1005400065063501870983060C0FEF0C7708D2008A
:10055000850D10012B03AF0D3A04B80A7001C000DD
:100560002703D003780278014609830E110333066E
:10057000B101BD0810083E0CBE0ADC02C5064B08DE
:10058000870EF40FAF043A0BF80D590ED6069403FC
:100590001906F30B6C0E08060C034300A40DDF0ACA
:1005A0002F034D069E0C93032E0EF20804014B0BF5
:1005B000F60D420E6F0D0D0CB403EA0AF90E040C91
:1005C000CF05350D83013D04EA014D08100DE00D06
:1005D000850D7A00AB0556092806B0089A06640C0A
:1005E000A907C2090F0429043106410ACB0F72077B
:1005F000E7079A006107460EA008700379037505A6
:10060000430AC402C40E1301AF07D806D60D0F0764
:10061000A5012801E208D00FDD0C850B21019D0901
:10062000EC040D04C5067E0AC30CF4090A08F005A3
:100630000005BE0E710E610398006B0DB202B70D7E
:10064000BF0E5D0D1F0264095900BD0DC50D1005DB
:1006500051002602D30632061302980AEF07B00BA8
:100660001807A105A008F002EE09300DB8057601C3
:10067000D305030D0209770DED03E508F302010A26
:10068000A400E30D0701710DD50A800EFE07A80D29
:100690009204CE043200EC024000500E750617089A
:1006A000FB0D950FE8086A06120DF9063B01AC0E2A
:1006B00085049F0B4806C10520003107D80915099C
:1006C000DF0A2B0A9F03700B990499025E0408024B
:1006D000A900EA09E7051902EE0ECF09B00FB50926
:1006E0002100280D3A0E740DED065F04810E1A03E9
:1006F0006406870FC6035107CC008B06B301D401F3
:10070000FC0CFE0B6508CD0D7703DC02B703D30D9F
:10071000090A1D0E47088F0EA0014806CC07F902F2
:100720008309CE022A0D920D0B046C0E7407D902B8
:100730007800ED0B9F07E70FC606400B790C0C0302
:10074000070A53086408F307500DA0038402490800
:1007500086006208180EC4058708F909E007140E20
:100760000208EA0A560FE607A20F5502C10CBE0F97
:10077000A70CD7058E088C02110EEF03E00C59036D
:10078000AD0376007309590A8A09D104490C16058C
:100790001C0E810496061D0369031102130A750CD1
:1007A0008009FA0F0303AC0F0C0E22031E057D0116
:1007B0000000000000000000000000000000000039
:1007C0000000000000000000000000000000000029
:1007D0000000000000000000000000000000010018
:1007E0000000000000000000000000000000000009
:1007F00000000000000000000000000000000000F9
:1008000000000000000000000000000000000000E8
:1008100000000000000000000000000000000000D8
:1008200000000000000000000000000000000000C8
:1008300000000000000000000000000000000000B8
:1008400000000000000000000000000000000000A8
:100850000100000000000000000000000000010096
:100860000000000000000000000000000000010087
:100870000000000000000000000001000000000077
:100880000000000000000000000000000000000068
:100890000000000000000000000000000100000057
:1008A0000000000000000000000000000000000048
:1008B0000000000000000000000000000000000038
:1008C0000000000000000100000000000000000027
:1008D0000000000000000000000000000000000018
:1008E0000000000000000000000000000000000008
:1008F00000000000000000000000000000000000F8
:1009000000000000000000000000000000000000E7
:1009100000000000000000000000000000000000D7
:1009200000000000000000000000000000000000C7
:1009300000000000000000000000000000000000B7
:1009400000000000000000000000000000000000A7
:100950000000000000000000000000000000000097
:100960000000000000000000000001000000000086
:100970000000000000000000000000000000000077
:100980000000000000000000000000000000000067
:100990000000000000000000000000000000000057
:1009A0000000010000000000000000000000000046
:1009B00011241FBECFEFCDBFDFE3DEBF00E00CBFD1
:1009C00018BE19BE1ABE1BBE10E2A0E0B0E2E8EDF0
:1009D000F8E100E00BBF02C007900D92A230B10712
:1009E000D9F71BBE20E2A2E0B0E201C01D92A23204
:1009F000B207E1F70E941B0C0C946A0C0C940000E7
:100A0000AA24979F802C869F602C112D969F100DF5
:100A1000811C879F100D811C912E8694979486943B
:100A2000979486949794869497941F70892D982D07
:100A3000880F991F890D981D860D911F9F3038F0E2
:100A400009F002C08D3F18F08D5F9F40F7CF0895E9
:100A50000F921F926F927F928F929F92AF92EF921E
:100A6000FF920F931F932F933F93AF93BF93CF9317
:100A7000DF93EF93FF93002777243327DC01FB01FB
:100A80007B012227200F270DB0F48D919C91659159
:100A900075910E940005EA01C20FD31FC20FD31F38
:100AA00069917881681B790BE0F43DEF630F3FE0BB
:100AB000731F332716C08D919C9165917591A0DFAE
:100AC000EA01C20FD31FC20FD31F69917881680F4B
:100AD000791F7F3030F009F002C06D3F10F06D5F7C
:100AE0007F406A93219678831197739451F61296FA
:100AF000F701039531F6FF91EF91DF91CF91BF910F
:100B0000AF913F912F911F910F91FF90EF90AF9078
:100B10009F908F907F906F901F900F9008950F92ED
:100B20001F922F926F927F928F929F92AF92EF922D
:100B3000FF920F931F932F933F93AF93BF93CF9346
:100B4000DF93EF93FF9330EC232E00277724332796
:100B5000DC01FB017B012227200F270DC8F02215A5
:100B6000B8F48D919C91659175914ADFEA01C20FAD
:100B7000D31FC20FD31F69917881680F791F7F300F
:100B8000E8F009F002C06D3FC8F06D5F7F4016C00D
:100B900022198D919C91659175910E940005EA0141
:100BA000C20FD31FC20FD31F69917881681B790BC5
:100BB00028F43DEF630F3FE0731F33276A932196BC
:100BC000788311977394721431F677241296F70193
:100BD0000395021501F6FF91EF91DF91CF91BF913F
:100BE000AF913F912F911F910F91FF90EF90AF9098
:100BF0009F908F907F906F902F901F900F900895EF
:100C00000F921F922F923F924F926F928F929F92CC
:100C1000AF92BF92CF92EF92FF920F931F932F93B9
:100C20003F93AF93BF93CF93DF93EF93FF9330E462
:100C3000232E31E0332EBB24CC2444243327DC0183
:100C4000FB017B01002722270B0D2C1D040D30F921
:100C5000231F2315D8F011F40215C0F0021923093F
:100C60008D919C91659175910E940005EA01C00FDC
:100C7000D21FC00FD21F69917881681B790BE0F4F5
:100C80003DEF630F3FE0731F332716C08D919C919A
:100C900065917591B5DEEA01C00FD21FC00FD21F5A
:100CA00069917881680F791F7F3030F009F002C0B8
:100CB0006D3F10F06D5F7F406A93219678831197A6
:100CC000439409F4689416F4421409F0BBCF442409
:100CD000E8941296F701B39409F4C394C31410F086
:100CE000B21409F0AFCFFF91EF91DF91CF91BF9197
:100CF000AF913F912F911F910F91FF90EF90CF9067
:100D0000BF90AF909F908F906F904F903F902F909B
:100D10001F900F900895482F4603202D312D442712
:100D200011200AF44A95682F6703300D411D632F87
:100D3000459567954595679545956795459567955B
:100D40003F70862F942F880F991F860F941F820F54
:100D5000931F11240895BC0142E150E282E090E229
:100D60000E94C006E2E0F0E280819181A281B3811D
:100D70000196A11DB11D80839183A283B383089541
:100D80009C01CB01BA01405F5F4FFB016F5F7F4F5A
:100D9000E081E093C30046175707B9F7A901405F08
:100DA0005F4FF9012F5F3F4F60816093C200421790
:100DB0005307B9F72091C0002F7620682093C00018
:100DC0002091C1002178E1F32091C10027FD0DC0E1
:100DD0009C01205F3F4FFC0101964091C20040837F
:100DE00028173907C1F781E0089580E00895AF9290
:100DF000BF92DF92EF92FF920F931F93CF93DF93F7
:100E0000782F5A01A901D8011C9280E0871788F534
:100E10008A0130E020E090E07501689FE00CF11C51
:100E2000112422C0F701E20FF31FE4919D1508F48D
:100E3000922FE801F9918E01FE1790F49F5F9C9329
:100E4000240F351FF901918197FF8195DF91CF9193
:100E50001F910F91FF90EF90DF90BF90AF9008959A
:100E60002F5F3F4FEF1718F0D22E2617D8F28F5F63
:100E7000CDCF80E0EBCF7F928F929F92AF92BF92C7
:100E8000CF92DF92EF92FF920F931F93CF93DF9356
:100E9000CDB7DEB7E197CDBFDEBF4B016A0119AA1E
:100EA0007C01B12CA12C8EEF782EAC14BD0489F4FA
:100EB000E196CDBFDEBFDF91CF911F910F91FF90E3
:100EC000EF90DF90CF90BF90AF909F908F907F90EA
:100ED000089523E2271568F4CE0101960E94AB061F
:100EE000CE0141960E94AB06CE0181960E94AB06D0
:100EF000712C21E030E02C0F3D1F270D311D8E019C
:100F00000F5C1F4F44EF51E06CE085E20E94F70652
:100F1000282F89A9780E822F022E000C990B27FF0B
:100F200002C08350904FE1E08E16910449F4F7011E
:100F300020813181820F931F8E3FFFE09F0750F485
:100F4000F70180839183FFEFAF1ABF0A22E0E20E20
:100F5000F11CABCF8D5F9F40F3CF7F928F929F921A
:100F6000AF92BF92CF92DF92EF92FF920F931F93B7
:100F7000CF93DF93CDB7DEB7E197CDBFDEBF4B0197
:100F80006A0119AA7C01B12CA12C8EEF782EAC1429
:100F9000BD0489F4E196CDBFDEBFDF91CF911F91F3
:100FA0000F91FF90EF90DF90CF90BF90AF909F9008
:100FB0008F907F90089523E2271568F4CE01019663
:100FC0000E94AB06CE0141960E94AB06CE018196EF
:100FD0000E94AB06712C21E030E02C0F3D1F270D45
:100FE000311D8E010F5C1F4F44EF51E06CE085E234
:100FF0000E94F70699A9790E082E000C990BE1E0E2
:101000008E16910449F4F70120813181820F931FDC
:101010008E3FFFE09F0750F4F70180839183FFEF3D
:10102000AF1ABF0A22E0E20EF11CB1CF8D5F9F40E4
:10103000F3CF0F931F93CF93DF938B01BA01FC0182
:10104000EA01CC0FDD1FC80FD91F50E040E0461762
:10105000570729F4DF91CF911F910F910895819146
:10106000919129913991821B930B9A01220F331F81
:10107000200F311F97FD06C0D9018D939C934F5FC0
:101080005F4FE5CF8350904FF7CF2F923F924F9213
:101090005F926F927F928F929F92AF92BF92CF9208
:1010A000DF92EF92FF920F931F93CF93DF93CDB711
:1010B000DEB72897CDBFDEBF2C013B017A01590175
:1010C000102F8DB79EB78F8398871901220C331C80
:1010D000EDB7FEB7E219F309EDBFFEBF8DB79EB7BE
:1010E00001964C01F901E170FF27ED83FE8320FD9D
:1010F00084C080910020801709F47FC06901D694D4
:10110000C79460E0862F90E08C159D0508F4B9C067
:101110001F5FC601880F991F89839A83BC01680DE0
:10112000791D012F9601A701C4010E94450869811C
:101130007A81660D771D9601A701420D531D8981A5
:101140009A81840D951D0E944508EB82FC82F7016F
:1011500030E020E02A153B0509F0CDC0012F9601B3
:10116000A401B301C2010E944508B401D401F701F2
:1011700030E020E02A153B0509F0D1C0F601EE0F62
:10118000FF1FEE0FFF1FEE0DFF1D96012A153B05F9
:1011900008F4D6C0A981BA81AE0DBF1DCD0130E0E3
:1011A00020E02C153D0509F0E3C0ED81FE81EC1532
:1011B000FD0509F0E8C0CA14DB0408F4F4C08F810F
:1011C00098858DBF9EBFEF81F885EDBFFEBF289645
:1011D000CDBFDEBFDF91CF911F910F91FF90EF90B8
:1011E000DF90CF90BF90AF909F908F907F906F9047
:1011F0005F904F903F902F900895F70190E080E02E
:101200008215930579F41201912C812C8A149B0488
:10121000B1F26401CC0CDD1CCE0CDF1C8301512C1F
:10122000412C20C0119211920196EACFF8016191F0
:1012300071918F01F10180810E948B06F60120815E
:101240003181820F931F8D3FFFE09F07ACF08D5FD0
:101250009F40F60180839183FFEF4F1A5F0A22E0DF
:10126000C20ED11C4A145B0409F74FEF841A940A8A
:1012700072E0270E311CCACF97FFEBCF8350904FFF
:10128000E8CFAC01440F551F8C0D9D1D880F991F91
:10129000F201E40FF51FD201A80FB91F0190F081F0
:1012A000E02D2D913C912E0F3F1FF401E40FF51F0F
:1012B0002D3F7FE03707CCF420833183460D571D47
:1012C000FA0120813181F301E80FF91F408151813A
:1012D000240F351F880D991D2D3FFFE03F0744F473
:1012E000FC01208331836F5F0DCF2D5F3F40E4CF42
:1012F0002D5F3F40F5CF80819181DF01A20DB31DAD
:101300004D915C91841B950B97FD06C08083918362
:101310002F5F3F4F32961ECF8350904FF7CF4D91A6
:101320005D9180819181841B950B97FD06C0808320
:1013300091832F5F3F4F32961DCF8350904FF7CF51
:10134000D901AA0FBB1FAE0DBF1D8D919C9140818D
:101350005181840F951F8D3F4FE0940734F48083B3
:1013600091832F5F3F4F329611CF8D5F9F40F7CF14
:10137000F701419151917F01FC0141935193CF01BC
:101380002F5F3F4F0ECFFB0181919191BF01EB8108
:10139000FC8181939193EB83FC838D819E810196E7
:1013A0008D839E8302CFF601EE0FFF1FE80DF91D1E
:1013B000808191812D913C911197820F931F8D3FD8
:1013C000FFE09F0744F48D939C9311972FEFC21A6F
:1013D000D20A1296F0CE8D5F9F40F5CFBF92CF928A
:1013E000DF92EF92FF920F931F93CF93DF93CDB7CE
:1013F000DEB7C058D440CDBFDEBF6B01F42E152F31
:10140000A901DE01AF5FBC4F30E020E0BA2EEB2E29
:10141000F601E20FF31F659174916D937D932E5F3A
:101420003F4F203861E0360799F700E020EC30E0CC
:10143000452BE9F4AE014F5F5F4F6B2D7E2D0E946F
:10144000450840EC50E06F2D712FCE0101960E94AF
:101450001908C058DB4FCDBFDEBFDF91CF911F9180
:101460000F91FF90EF90DF90CF90BF900895AE0165
:101470004F5F5F4FBC018B2D9E2DE1CFBF92CF926E
:10148000DF92EF92FF920F931F93CF93DF93CDB72D
:10149000DEB7D650CDBFDEBF6B01F42E152FA901EC
:1014A000DE01AF5FBB4F30E020E0BA2EEB2EF6013D
:1014B000E20FF31F659174916D937D932E5F3F4F03
:1014C000211562E0360799F700E020E031E0452B76
:1014D000E1F4AE014F5F5F4F6B2D7E2D0E944508FA
:1014E00040E051E06F2D712FCE0101960E94190846
:1014F000DA5FCDBFDEBFDF91CF911F910F91FF90DB
:10150000EF90DF90CF90BF900895AE014F5F5F4F97
:10151000BC018B2D9E2DE2CFBF92CF92DF92EF9236
:10152000FF920F931F93CF93DF93CDB7DEB7C058D1
:10153000D740CDBFDEBF6B01F42E152FA901DE0110
:10154000AF5FBA4F30E020E0BA2EEB2EF601E20F8B
:10155000F31F659174916D937D932E5F3F4F2038FB
:1015600062E0360799F700E020E431E0452BE9F42A
:10157000AE014F5F5F4F6B2D7E2D0E94450840E40A
:1015800051E06F2D712FCE0101960E941908C058AD
:10159000D84FCDBFDEBFDF91CF911F910F91FF904C
:1015A000EF90DF90CF90BF900895AE014F5F5F4FF7
:1015B000BC018B2D9E2DE1CFCF93DF93DC01FB018E
:1015C00090E080E041505109EC0123E0D695C795A9
:1015D0002A95E1F7CA0FDB1F288130E0BC01677054
:1015E000772702C0359527956A95E2F720FF0BC053
:1015F00020813181B9016250784F6E3FCFE07C0786
:1016000040F46083718332964817590739F0019688
:10161000DBCF2F5F374020833183F5CFDF91CF9130
:1016200008956F927F928F929F92AF92BF92CF92C6
:10163000DF92EF92FF920F931F93CF93DF933C01C2
:10164000D62FC72F5A0149016701A70170E060E05A
:101650008D2F9C2F0E94AD0780ECE816F10489F5D0
:1016600030E020E0A501B8018D2F9C2F0E94EE09EB
:1016700030E020E04D2F5C2FB4018D2F9C2F0E9475
:10168000EE09A60161E070E08D2F9C2F0E943B07C0
:10169000A60161E070E0C5010E943B07A601B5010B
:1016A000C301DF91CF911F910F91FF90EF90DF90D9
:1016B000CF90BF90AF909F908F907F906F900C9441
:1016C000DC0AE11481E0F806B9F080E4E81681E074
:1016D000F806B9F630E020E0A501B8018D2F9C2F67
:1016E0000E948C0A30E020E04D2F5C2FB4018D2F3A
:1016F0009C2F0E948C0AC5CF30E020E0A501B801E4
:101700008D2F9C2F0E943E0A30E020E04D2F5C2F51
:10171000B4018D2F9C2F0E943E0AB3CF0F931F93CD
:10172000CF93DF939B01FC0190E080E0C1E0D0E02B
:1017300041505109619171916F5F73406E3F7740E5
:1017400098F4DC0163E0B695A7956A95E1F7A20FDE
:10175000B31FBC01677077278E0101C0000F6A9527
:10176000EAF76C91602B6C934817590711F00196BA
:10177000E1CFDF91CF911F910F910895AF92BF926A
:10178000CF92DF92EF92FF920F931F93CF93DF934D
:101790006C01D62FC72F5A01B9017801003C110501
:1017A000F9F421E030E04D2F5C2F8D2F9C2F0E940B
:1017B000EE09ED2FFC2FD50150E040E04E155F05FE
:1017C00041F5B6018D2F9C2FDF91CF911F910F9185
:1017D000FF90EF90DF90CF90BF90AF900C948E0B66
:1017E000011581E0180761F00034114011F721E084
:1017F00030E04D2F5C2F8D2F9C2F0E948C0AD9CF6B
:1018000021E030E04D2F5C2F8D2F9C2F0E943E0A4F
:10181000D0CF2D913D9180819181280F391F2E3F8E
:101820008FE0380710F02D5F3F40208331834F5FFA
:101830005F4F3296C3CFCDB7DEB7C052D440CDBFD5
:10184000DEBF88E080934506809341061092A7088A
:101850009CE09093A6081092A30893E09093A508AB
:101860008093A408E12CFF24F39400EB15E020EB17
:1018700033E0AE014F5F5F4FBE016F5F7D4FCE0122
:101880008F5F9B4F0E94110B00E011E020EB37E0CF
:10189000AE014F5F5F4FBE016F5F7D4FCE018F5F27
:1018A0009B4F0E94BE0BFE01EF5FFB4FCE018F5F8F
:1018B0009A4F21913091A10835FFFCCF2093A008C9
:1018C000E817F907B1F790E080E0C05EDB4FCDBFCD
:0818D000DEBF0895F894FFCF7C
:0218D800FF000F
:00000001FF
