:100000000C94D8040C94FE040C94FE040C94FE048E
:100010000C94FE040C94FE040C94FE040C94FE0458
:100020000C94FE040C94FE040C94FE040C94FE0448
:100030000C94FE040C94FE040C94FE040C94FE0438
:100040000C94FE040C94FE040C94FE040C94FE0428
:100050000C94FE040C94FE040C94FE040C94FE0418
:100060000C94FE040C94FE040C94FE040C94FE0408
:100070000C94FE040C94FE040C94FE040C94FE04F8
:100080000C94FE040C94FE040C94FE040C94FE04E8
:100090000C94FE040C94FE040C94FE040C94FE04D8
:1000A0000C94FE040C94FE040C94FE040C94FE04C8
:1000B0000C94FE040C94FE040C94FE040C94FE04B8
:1000C0000C94FE040C94FE040C94FE040C94FE04A8
:1000D0000C94FE040C94FE040C94FE040C94FE0498
:1000E0000C94FE040C94FE040C94FE040C94FE0488
:1000F0000C94FE040C94FE040C94FE040C94FE0478
:100100000C94FE040C94FE040C94FE040C94FE0467
:100110000C94FE040C94FE040C94FE040C94FE0457
:100120000C94FE040C94FE040C94FE040C94FE0447
:100130000C94FE040C94FE040C94FE040C94FE0437
:100140000C94FE040C94FE040C94FE040C94FE0427
:100150000C94FE040C94FE040C94FE040C94FE0417
:100160000C94FE040C94FE040C94FE040C94FE0407
:100170000C94FE040C94FE040C94FE040C94FE04F7
:100180000C94FE040C94FE040C94FE040C94FE04E7
:100190000C94FE040C94FE040C94FE040C94FE04D7
:1001A0000C94FE040C94FE040C94FE040C94FE04C7
:1001B0000C94FE040C94FE040C94FE040C94FE04B7
:1001C0000C94FE040C94FE040C94FE040C94FE04A7
:1001D0000C94FE040C94FE040C94FE040C94FE0497
:1001E0000C94FE040C94FE040C94FE040C94FE0487
:1001F0000C94FE041FFFFFFFFFFFFFFFFFFFFFFF49
:100200005CEF2C248806C827161ABD189186506BFF
:10021000CC065F204344C125BAAB5F82BCDB43B34D
:100220005D62CE65D7D9769FAD23BCB11411F5516F
:10023000EA9BE2F4D6DDB5ED7E1526D5F58A994721
:100240004919B8C9E7D2A137FB5117812753B7B86D
:10025000E8A773D9FE151BD0928596D3148CB49F52
:10026000FF487508BA9F720807E44D00FFC1668613
:10027000270CFC821A5409BEFFEC8AC3C159431BE8
:10028000FDC99BFDFFFA7DF4B6E92C28A6FCD4C07D
:10029000FFFE94BB4554B5AC4B869C62FFFFAADEC3
:1002A0001B1CAA95EC72329EFFFFEDDC1C6436DC51
:1002B000337F6316FFFFFC7C9DC2569AD95E7B2C70
:1002C000FFFFFF61BC337FED8E0B132AFFFFFFE6BC
:1002D000B3CF05F705B9D725FFFFFFFC53EA610E41
:1002E00099E8F72BFFFFFFFF841943DEC6E2F0D742
:1002F000FFFFFFFFF12D07EC4745913CFFFFFFFF9C
:10030000FE63E348EE62D420FFFFFFFFFFD762C722
:10031000064A0C6CFFFFFFFFFFFC5E37C672F3A6B8
:10032000FFFFFFFFFFFFB48F6ABEF8B0FFFFFFFFC4
:10033000FFFFFA72697598CEFFFFFFFFFFFFFFA175
:1003400012F5A30DFFFFFFFFFFFFFFFA4016ED3D83
:10035000FFFFFFFFFFFFFFFFAF22D9AFFFFFFFFF50
:10036000FFFFFFFFFBF88681FFFFFFFFFFFFFFFF9F
:10037000FFD16385FFFFFFFFFFFFFFFFFFFE16FFBB
:10038000FFFFFFFFFFFFFFFFFFFFEDD3FFFFFFFFBB
:10039000FFFFFFFFFFFFFF62FFFFFFFFFFFFFFFF0A
:1003A000FFFFFFFAFFFFFFFFFFFFFFFFFFFFFFFF62
:1003B0001E04CE06C4053C09D403FB0E46096307A0
:1003C000FC0A6D0E000595022B0E01067208F6065A
:1003D0004C0976099F047B027F03BF09A801D80856
:1003E000960F360408027F0A7A0D220F07042503B0
:1003F0008300D0070E070804D001AC09500F36095E
:100400005A0BF3084C090F0071083B05C70BEC0AA7
:10041000C000720E24085409340F2B08670AD20258
:100420001B09D0025C0F0C01210C4807A408BC0F6B
:10043000600A450BA403D80A6400F8057709720224
:1004400036062F062E024C06890A0D01F302BF0D57
:10045000C908DD0C3A068104AB02A50A0F07C304E4
:100460003B05A807E30F41097A00D80F4F016B0C39
:10047000BF0EF901820E770D680F9B054F0F030F1A
:10048000BB0BEF0EC80D8803C9025B069E09100462
:10049000FD04AA01520AD70AB102AB0DAB0EDC0271
:1004A0003F0DC206DB066506520A5700FC0EEF033D
:1004B000DD0690049B0D8C08D50C22092E0CFC0344
:1004C0009E029809DA063A0DB307B5004B09E20817
:1004D0002D04EE013604A80ABF0941068502650A0B
:1004E000FA0D3900A10E4E0D2E0FAA032002940121
:1004F000980A6D08740240000808E40E210CA90C4B
:100500003F074E090C06E203DD072D07D20FD80284
:10051000FA0E2809B807C009D2013804E809340FD7
:100520008B0B8D0D8A02D10D1405620D11083C0351
:10053000A6026509C303B001AF0FAA07E4050D07C2
:1005400065063501870983060C0FEF0C7708D2008A
:10055000850D10012B03AF0D3A04B80A7001C000DD
:100560002703D003780278014609830E110333066E
:10057000B101BD0810083E0CBE0ADC02C5064B08DE
:10058000870EF40FAF043A0BF80D590ED6069403FC
:100590001906F30B6C0E08060C034300A40DDF0ACA
:1005A0002F034D069E0C93032E0EF20804014B0BF5
:1005B000F60D420E6F0D0D0CB403EA0AF90E040C91
:1005C000CF05350D83013D04EA014D08100DE00D06
:1005D000850D7A00AB0556092806B0089A06640C0A
:1005E000A907C2090F0429043106410ACB0F72077B
:1005F000E7079A006107460EA008700379037505A6
:10060000430AC402C40E1301AF07D806D60D0F0764
:10061000A5012801E208D00FDD0C850B21019D0901
:10062000EC040D04C5067E0AC30CF4090A08F005A3
:100630000005BE0E710E610398006B0DB202B70D7E
:10064000BF0E5D0D1F0264095900BD0DC50D1005DB
:1006500051002602D30632061302980AEF07B00BA8
:100660001807A105A008F002EE09300DB8057601C3
:10067000D305030D0209770DED03E508F302010A26
:10068000A400E30D0701710DD50A800EFE07A80D29
:100690009204CE043200EC024000500E750617089A
:1006A000FB0D950FE8086A06120DF9063B01AC0E2A
:1006B00085049F0B4806C10520003107D80915099C
:1006C000DF0A2B0A9F03700B990499025E0408024B
:1006D000A900EA09E7051902EE0ECF09B00FB50926
:1006E0002100280D3A0E740DED065F04810E1A03E9
:1006F0006406870FC6035107CC008B06B301D401F3
:10070000FC0CFE0B6508CD0D7703DC02B703D30D9F
:10071000090A1D0E47088F0EA0014806CC07F902F2
:100720008309CE022A0D920D0B046C0E7407D902B8
:100730007800ED0B9F07E70FC606400B790C0C0302
:10074000070A53086408F307500DA0038402490800
:1007500086006208180EC4058708F909E007140E20
:100760000208EA0A560FE607A20F5502C10CBE0F97
:10077000A70CD7058E088C02110EEF03E00C59036D
:10078000AD0376007309590A8A09D104490C16058C
:100790001C0E810496061D0369031102130A750CD1
:1007A0008009FA0F0303AC0F0C0E22031E057D0116
:1007B0000000000000000000000000000000000039
:1007C0000000000000000000000000000000000029
:1007D0000000000000000000000000000000010018
:1007E0000000000000000000000000000000000009
:1007F00000000000000000000000000000000000F9
:1008000000000000000000000000000000000000E8
:1008100000000000000000000000000000000000D8
:1008200000000000000000000000000000000000C8
:1008300000000000000000000000000000000000B8
:1008400000000000000000000000000000000000A8
:100850000100000000000000000000000000010096
:100860000000000000000000000000000000010087
:100870000000000000000000000001000000000077
:100880000000000000000000000000000000000068
:100890000000000000000000000000000100000057
:1008A0000000000000000000000000000000000048
:1008B0000000000000000000000000000000000038
:1008C0000000000000000100000000000000000027
:1008D0000000000000000000000000000000000018
:1008E0000000000000000000000000000000000008
:1008F00000000000000000000000000000000000F8
:1009000000000000000000000000000000000000E7
:1009100000000000000000000000000000000000D7
:1009200000000000000000000000000000000000C7
:1009300000000000000000000000000000000000B7
:1009400000000000000000000000000000000000A7
:100950000000000000000000000000000000000097
:100960000000000000000000000001000000000086
:100970000000000000000000000000000000000077
:100980000000000000000000000000000000000067
:100990000000000000000000000000000000000057
:1009A0000000010000000000000000000000000046
:1009B00011241FBECFEFCDBFDFE3DEBF00E00CBFD1
:1009C00018BE19BE1ABE1BBE10E2A0E0B0E2E2E4FF
:1009D000F5E100E00BBF02C007900D92A230B10715
:1009E000D9F71BBE20E2A2E0B0E201C01D92A23204
:1009F000B207E1F70E94500A0C949F0A0C94000081
:100A00008702302D782F7603202D310D822F932FE2
:100A10009F7011240895BC0142E150E282E090E20F
:100A20000E942005E2E0F0E280819181A281B38101
:100A30000196A11DB11D80839183A283B383089584
:100A40009C01CB01BA01405F5F4FFB016F5F7F4F9D
:100A5000E081E093C30046175707B9F7A901405F4B
:100A60005F4FF9012F5F3F4F60816093C2004217D3
:100A70005307B9F72091C0002F7620682093C0005B
:100A80002091C1002178E1F32091C10027FD0DC024
:100A90009C01205F3F4FFC0101964091C2004083C2
:100AA00028173907C1F781E0089580E00895AF92D3
:100AB000BF92DF92EF92FF920F931F93CF93DF933A
:100AC000782F5A01A901D8011C9280E0871788F578
:100AD0008A0130E020E090E07501689FE00CF11C95
:100AE000112422C0F701E20FF31FE4919D1508F4D1
:100AF000922FE801F9918E01FE1790F49F5F9C936D
:100B0000240F351FF901918197FF8195DF91CF91D6
:100B10001F910F91FF90EF90DF90BF90AF900895DD
:100B20002F5F3F4FEF1718F0D22E2617D8F28F5FA6
:100B3000CDCF80E0EBCF7F928F929F92AF92BF920A
:100B4000CF92DF92EF92FF920F931F93CF93DF9399
:100B5000CDB7DEB7E197CDBFDEBF4B016A0119AA61
:100B60007C01B12CA12C8EEF782EAC14BD0489F43D
:100B7000E196CDBFDEBFDF91CF911F910F91FF9026
:100B8000EF90DF90CF90BF90AF909F908F907F902D
:100B9000089523E2271568F4CE0101960E940B0503
:100BA000CE0141960E940B05CE0181960E940B0555
:100BB000712C21E030E02C0F3D1F270D311D8E01DF
:100BC0000F5C1F4F44EF51E06CE085E20E94570537
:100BD000282F89A9780E822F022E000C990B27FD51
:100BE000905FE1E08E16910479F4F7012081318164
:100BF000820F931F9F7080839183FFEFAF1ABF0A0C
:100C000022E0E20EF11CB1CFF701F5CF7F928F9277
:100C10009F92AF92BF92CF92DF92EF92FF920F938B
:100C20001F93CF93DF93CDB7DEB7E197CDBFDEBF84
:100C30004B016A0119AA7C01B12CA12C8EEF782EF0
:100C4000AC14BD0489F4E196CDBFDEBFDF91CF9136
:100C50001F910F91FF90EF90DF90CF90BF90AF90DA
:100C60009F908F907F90089523E2271568F4CE011E
:100C700001960E940B05CE0141960E940B05CE0104
:100C800081960E940B05712C21E030E02C0F3D1F56
:100C9000270D311D8E010F5C1F4F44EF51E06CE0BA
:100CA00085E20E94570599A9790E082E000C990B30
:100CB000E1E08E16910491F4F70120813181820FD9
:100CC000931F9195819591099F7080839183FFEF88
:100CD000AF1ABF0A22E0E20EF11CB2CFF701F5CF46
:100CE0000F931F93CF93DF938B01BA01FC01EA01AD
:100CF000CC0FDD1FC80FD91F50E040E04617570743
:100D000029F4DF91CF911F910F91089581919191D5
:100D100029913991821B930B9A01220F331F200FC7
:100D2000311F97FD06C0D9018D939C934F5F5F4F94
:100D3000E5CF905FF8CF2F923F924F925F926F92E4
:100D40007F928F929F92AF92BF92CF92DF92EF925B
:100D5000FF920F931F93CF93DF93CDB7DEB7289702
:100D6000CDBFDEBF2C013B017A015901102F4DB7D9
:100D70005EB74F8358871901220C331C8DB79EB77D
:100D8000821993098DBF9EBFADB7BEB711964D01B5
:100D9000F901E170FF27ED83FE8320FD84C080917F
:100DA0000020801709F47FC06901D694C79400E041
:100DB000802F90E08C159D0508F4AEC01F5FF601F2
:100DC000EE0FFF1FE983FA83BF01680D791D012F24
:100DD0009601A701C4010E949B0669817A81660D74
:100DE000771D9601A701420D531D89819A81840DBB
:100DF000951D0E949B06EB82FC82F70130E020E00B
:100E00002A153B0509F0BAC0012F9601A401B301D0
:100E1000C2010E949B06B401D401F70130E020E03A
:100E20002A153B0509F0BDC0F601EE0FFF1FEE0FBE
:100E3000FF1FEE0DFF1DC6018A159B0508F4C1C0FA
:100E4000A981BA81AE0DBF1DCD0130E020E02C1587
:100E50003D0509F0CAC08D819E818C159D0509F064
:100E6000CFC0CA14DB0408F4DCC04F8158854DBFE5
:100E70005EBF8F8198858DBF9EBF2896CDBFDEBF98
:100E8000DF91CF911F910F91FF90EF90DF90CF9066
:100E9000BF90AF909F908F907F906F905F904F909A
:100EA0003F902F900895F70190E080E08215930520
:100EB00071F4D12CC12CCA14DB04B9F283011601E0
:100EC000220C331C2E0C3F1C912C812C1BC0119228
:100ED00011920196EBCFD8016D917D918D01F201B8
:100EE000808191810E940005D1012D913D911D01CC
:100EF000FD013297280F391F3F7020833183BFEFE8
:100F00008B1A9B0A8A149B0431F7EFEFCE1ADE0A84
:100F1000F2E04F0E511CCFCF9C01220F331F8C0DDE
:100F20009D1D880F991FD401A20FB31FA983BA83F7
:100F3000D201A20FB31FF201E80FF91F4D915C918E
:100F400060817181460F571F5F70E981FA8140838C
:100F50005183A401480F591F260D371DD301A80F37
:100F6000B91FF901808191812D913C91820F931FCE
:100F70009F70DA018D939C930F5F1ACF80819181CE
:100F8000DF01A20DB31D4D915C91841B950B97FD64
:100F900006C0808391832F5F3F4F329631CF905FA1
:100FA000F8CF4D915D9180819181841B950B97FDC8
:100FB00006C0808391832F5F3F4F329631CF905F81
:100FC000F8CF419151918F0102501109DC01AA0F14
:100FD000BB1FAE0DBF1D2D913C91240F351F3F70DF
:100FE000D8012D933C93019627CFF7014191519160
:100FF0007F01FC0141935193CF012F5F3F4F27CFDA
:10100000FB0181919191BF01EB81FC8181939193CF
:10101000EB83FC834D815E814F5F5F4F4D835E8329
:101020001ACF8D919D919D0122503109F601EE0F4D
:10103000FF1FE80DF91D40815181840F951F9F709E
:10104000F90180839183FFEFCF1ADF0A0ACFBF92A5
:10105000CF92DF92EF92FF920F931F93CF93DF9384
:10106000CDB7DEB7C058D440CDBFDEBF6B01F42E84
:10107000152FA901DE01AF5FBC4F30E020E0BA2E92
:10108000EB2EF601E20FF31F659174916D937D9342
:101090002E5F3F4F203861E0360799F700E020ECE3
:1010A00030E0452BE9F4AE014F5F5F4F6B2D7E2D95
:1010B0000E949B0640EC50E06F2D712FCE010196EF
:1010C0000E947006C058DB4FCDBFDEBFDF91CF91CD
:1010D0001F910F91FF90EF90DF90CF90BF900895F8
:1010E000AE014F5F5F4FBC018B2D9E2DE1CFBF92B4
:1010F000CF92DF92EF92FF920F931F93CF93DF93E4
:10110000CDB7DEB7D650CDBFDEBF6B01F42E152FA5
:10111000A901DE01AF5FBB4F30E020E0BA2EEB2E1D
:10112000F601E20FF31F659174916D937D932E5F2D
:101130003F4F211562E0360799F700E020E031E0EB
:10114000452BE1F4AE014F5F5F4F6B2D7E2D0E946A
:101150009B0640E051E06F2D712FCE0101960E9459
:101160007006DA5FCDBFDEBFDF91CF911F910F9187
:10117000FF90EF90DF90CF90BF900895AE014F5F4A
:101180005F4FBC018B2D9E2DE2CFBF92CF92DF929D
:10119000EF92FF920F931F93CF93DF93CDB7DEB7FC
:1011A000C058D740CDBFDEBF6B01F42E152FA9016B
:1011B000DE01AF5FBA4F30E020E0BA2EEB2EF60131
:1011C000E20FF31F659174916D937D932E5F3F4FF6
:1011D000203862E0360799F700E020E431E0452B43
:1011E000E9F4AE014F5F5F4F6B2D7E2D0E949B0691
:1011F00040E451E06F2D712FCE0101960E947006E0
:10120000C058D84FCDBFDEBFDF91CF911F910F9156
:10121000FF90EF90DF90CF90BF900895AE014F5FA9
:101220005F4FBC018B2D9E2DE1CFCF93DF93DC016F
:10123000FB0190E080E041505109EC0123E0D6959C
:10124000C7952A95E1F7CA0FDB1F288130E0BC0162
:101250006770772702C0359527956A95E2F720FFDA
:101260000AC020813181B901785F6130C0E17C071B
:1012700040F46083718332964817590731F0019624
:10128000DCCF385020833183F6CFDF91CF910895A2
:101290006F927F928F929F92AF92BF92CF92DF9286
:1012A000EF92FF920F931F93CF93DF933C01D62FC2
:1012B000C72F5A0149016701A70170E060E08D2F37
:1012C0009C2F0E94060680ECE816F10489F530E0B8
:1012D00020E0A501B8018D2F9C2F0E94270830E047
:1012E00020E04D2F5C2FB4018D2F9C2F0E942708EA
:1012F000A60161E070E08D2F9C2F0E949B05A60146
:1013000061E070E0C5010E949B05A601B501C30123
:10131000DF91CF911F910F91FF90EF90DF90CF90D1
:10132000BF90AF909F908F907F906F900C94150915
:10133000E11481E0F806B9F080E4E81681E0F806EF
:10134000B9F630E020E0A501B8018D2F9C2F0E9456
:10135000C50830E020E04D2F5C2FB4018D2F9C2F6D
:101360000E94C508C5CF30E020E0A501B8018D2F4F
:101370009C2F0E94770830E020E04D2F5C2FB401B5
:101380008D2F9C2F0E947708B3CF0F931F93CF937D
:10139000DF939B01FC0190E080E0C1E0D0E0415090
:1013A00051096191719174506115784098F4DC0194
:1013B00063E0B695A7956A95E1F7A20FB31FBC014C
:1013C000677077278E0101C0000F6A95EAF76C916C
:1013D000602B6C934817590711F00196E2CFDF910B
:1013E000CF911F910F910895AF92BF92CF92DF924C
:1013F000EF92FF920F931F93CF93DF936C01D62F41
:10140000C72F5A01B9017801003C1105F9F421E018
:1014100030E04D2F5C2F8D2F9C2F0E942708ED2F41
:10142000FC2FD50150E040E04E155F0541F5B601B7
:101430008D2F9C2FDF91CF911F910F91FF90EF90F7
:10144000DF90CF90BF90AF900C94C509011581E05B
:10145000180761F00034114011F721E030E04D2F02
:101460005C2F8D2F9C2F0E94C508D9CF21E030E042
:101470004D2F5C2F8D2F9C2F0E947708D0CF2D9160
:101480003D9180819181280F391F213080E13807FB
:1014900008F03051208331834F5F5F4F3296C4CFC5
:1014A000CDB7DEB7C052D440CDBFDEBF88E0809359
:1014B0004506809341061092A7089CE09093A608E9
:1014C0001092A30893E09093A5088093A408E12CC0
:1014D000FF24F39400EB15E020EB33E0AE014F5F07
:1014E0005F4FBE016F5F7D4FCE018F5F9B4F0E94AC
:1014F000480900E011E020EB37E0AE014F5F5F4F9D
:10150000BE016F5F7D4FCE018F5F9B4F0E94F4093C
:10151000FE01EF5FFB4FCE018F5F9A4F219130911B
:10152000A10835FFFCCF2093A008E817F907B1F711
:1015300090E080E0C05EDB4FCDBFDEBF0895F89441
:02154000FFCFDB
:02154200FF00A8
:00000001FF
