:100000000C9498050C94BE050C94BE050C94BE058A
:100010000C94BE050C94BE050C94BE050C94BE0554
:100020000C94BE050C94BE050C94BE050C94BE0544
:100030000C94BE050C94BE050C94BE050C94BE0534
:100040000C94BE050C94BE050C94BE050C94BE0524
:100050000C94BE050C94BE050C94BE050C94BE0514
:100060000C94BE050C94BE050C94BE050C94BE0504
:100070000C94BE050C94BE050C94BE050C94BE05F4
:100080000C94BE050C94BE050C94BE050C94BE05E4
:100090000C94BE050C94BE050C94BE050C94BE05D4
:1000A0000C94BE050C94BE050C94BE050C94BE05C4
:1000B0000C94BE050C94BE050C94BE050C94BE05B4
:1000C0000C94BE050C94BE050C94BE050C94BE05A4
:1000D0000C94BE050C94BE050C94BE050C94BE0594
:1000E0000C94BE050C94BE050C94BE050C94BE0584
:1000F0000C94BE050C94BE050C94BE050C94BE0574
:100100000C94BE050C94BE050C94BE050C94BE0563
:100110000C94BE050C94BE050C94BE050C94BE0553
:100120000C94BE050C94BE050C94BE050C94BE0543
:100130000C94BE050C94BE050C94BE050C94BE0533
:100140000C94BE050C94BE050C94BE050C94BE0523
:100150000C94BE050C94BE050C94BE050C94BE0513
:100160000C94BE050C94BE050C94BE050C94BE0503
:100170000C94BE050C94BE050C94BE050C94BE05F3
:100180000C94BE050C94BE050C94BE050C94BE05E3
:100190000C94BE050C94BE050C94BE050C94BE05D3
:1001A0000C94BE050C94BE050C94BE050C94BE05C3
:1001B0000C94BE050C94BE050C94BE050C94BE05B3
:1001C0000C94BE050C94BE050C94BE050C94BE05A3
:1001D0000C94BE050C94BE050C94BE050C94BE0593
:1001E0000C94BE050C94BE050C94BE050C94BE0583
:1001F0000C94BE051FFFFFFFFFFFFFFFFFFFFFFF88
:100200005CEF2C248806C827161ABD189186506BFF
:10021000CC065F204344C125BAAB5F82BCDB43B34D
:100220005D62CE65D7D9769FAD23BCB11411F5516F
:10023000EA9BE2F4D6DDB5ED7E1526D5F58A994721
:100240004919B8C9E7D2A137FB5117812753B7B86D
:10025000E8A773D9FE151BD0928596D3148CB49F52
:10026000FF487508BA9F720807E44D00FFC1668613
:10027000270CFC821A5409BEFFEC8AC3C159431BE8
:10028000FDC99BFDFFFA7DF4B6E92C28A6FCD4C07D
:10029000FFFE94BB4554B5AC4B869C62FFFFAADEC3
:1002A0001B1CAA95EC72329EFFFFEDDC1C6436DC51
:1002B000337F6316FFFFFC7C9DC2569AD95E7B2C70
:1002C000FFFFFF61BC337FED8E0B132AFFFFFFE6BC
:1002D000B3CF05F705B9D725FFFFFFFC53EA610E41
:1002E00099E8F72BFFFFFFFF841943DEC6E2F0D742
:1002F000FFFFFFFFF12D07EC4745913CFFFFFFFF9C
:10030000FE63E348EE62D420FFFFFFFFFFD762C722
:10031000064A0C6CFFFFFFFFFFFC5E37C672F3A6B8
:10032000FFFFFFFFFFFFB48F6ABEF8B0FFFFFFFFC4
:10033000FFFFFA72697598CEFFFFFFFFFFFFFFA175
:1003400012F5A30DFFFFFFFFFFFFFFFA4016ED3D83
:10035000FFFFFFFFFFFFFFFFAF22D9AFFFFFFFFF50
:10036000FFFFFFFFFBF88681FFFFFFFFFFFFFFFF9F
:10037000FFD16385FFFFFFFFFFFFFFFFFFFE16FFBB
:10038000FFFFFFFFFFFFFFFFFFFFEDD3FFFFFFFFBB
:10039000FFFFFFFFFFFFFF62FFFFFFFFFFFFFFFF0A
:1003A000FFFFFFFAFFFFFFFFFFFFFFFFFFFFFFFF62
:1003B000560B8809BE0C250FD90ED30BDB000A099A
:1003C000C503EA09A205900FD1040104F108F10B5D
:1003D0007306060B8A09AC04100C6808CE090A07DC
:1003E0009809FA060E07310E0506EC097807260E65
:1003F00082093A0B5E0E39080D0FE10D5101EB0039
:100400009B0B25034D0B9502AC02720C2E0FEB0BD0
:10041000D40FE1097C0AF30D4C01150EEE03E5063D
:100420008309D40D900502010507B4016603B508E0
:10043000FB0CC40ABC00010179013102D800EB06B3
:1004400028020F01D10AE70E3805790C4A02C101D2
:1004500055043F0EF4086F0112092A0B9509D90CB7
:10046000BD010A0CF00E130F6205C90DD902EE068C
:10047000A1023C087201150DE0088B057607AF0B51
:100480000F010E0DED095508230A4306F40ACF0C9F
:100490005801010D0F052F028409D10E0D039D088F
:1004A000680DB400C10DEA09EC04040792062D039F
:1004B000E10E4B0DBD00E3028B0D8D0C1D0EB20E37
:1004C000CB0A560D33089C0B60063B025100920884
:1004D000EB0ABB02FD08A90ABE01740B8F009B0446
:1004E000CA0FAF00300C6D022D0F350C800C540E6E
:1004F000CE01DC023E0F8A0AF3072A0AE802840EC4
:100500009802880B180EE2040501FC01140D070E79
:10051000CF074A068D0B700FF8008102A50BBA09B0
:1005200082096E0F0F0DCC06C60E3A077004C40682
:10053000BE0F3801F10973045B07150F6409C4008D
:100540008E0DF108A3081501BC0BB30A0F098E0E1E
:10055000C80003098A024C05B10E290F6009650E17
:100560007A0E3E0FC6089D0E2E047D054E0DF10F2E
:10057000140D6201060608081A03C402540FFD0593
:10058000670FE8012E081B08D50F8C0E28014202C8
:100590004100A800C303030E9A06640D58078D0C92
:1005A0002D082D0FB3077403B601CE0DEC0C660BAE
:1005B000C20377012107070CCF07C407BD0CDE0B70
:1005C000FC0AB6005C0455051601560A5B0E49008C
:1005D000600169061B0134096B06DD051F0DB705B7
:1005E000890C47008102230C430C960C25053D0421
:1005F000C2044C05A80CA3070506240C950CEA09B7
:100600000B0831068C0C59059208F902A50A630201
:100610005706CE0972071007D20FCD08640DF20CF1
:100620001C0EEE06AD09E60ECA082E035A09030594
:10063000B509000D87083B05D90F5F0511035F045D
:10064000F00BB608C0000305D2015600E50E030FFB
:100650002F0533021F084009EE0264085C0E3F0FAD
:10066000B405A7068003C704CF0FC60CE901E30B4E
:10067000C90A070469088A0AF50B9D09DC09C30445
:100680005B001E0F670BB9059D0BD40FB1019F04D2
:10069000A90FE607C201C106C200F106BB01B40EF4
:1006A000C40BE90D060173098708D6053A04120C3C
:1006B000420D250EA300690EE80DEB089F016805A9
:1006C000660B660C800912082E0FA2060C0AB60FE4
:1006D0001B06C10D15093F029005C003E402540A30
:1006E000070B7804C504390D0207D7043E00EB015F
:1006F0003D02D5054D06EA0B6A09BD0A670C1F01CC
:100700003E04BD07C906F307CB06A5042406F70C73
:10071000DA0329016F0012079200500E6E05590886
:100720008500380655048C0D1A06FD0E0D075B0179
:10073000DC07E009640829004107E30A5C042E0A8B
:10074000D10FB0069A03A3011806A6049C0E9B0DB8
:10075000770B470D0C0E7B01C80FF30CD9035C0D12
:100760001C0EFC0657069F04500FA6072106910594
:10077000A00E380F1301C702730BC2068C024A0B7E
:10078000750BC80DD003B2073A063A07DE024806D9
:10079000BA0B730EC4025309C6082A02F9005F0D92
:1007A00039066906800871014C07260325093C0EAD
:1007B000040117082F0F6E0461081A009B07760AC0
:1007C000130A2C041908A305C202480B390C2F0E7A
:1007D000F809DD0B6A0F7E02AF06DB0438078A09D1
:1007E00013029F07C10607082F077D03A804830D86
:1007F0000B03D4090D030F04B504B40E6D02600D94
:100800009A0BC10FA5042B066501CB0F9C030E0D9F
:100810008A0E040D25051507DE026506E204700D3B
:10082000920FC80F7A0E1904D40B9102350FC90824
:100830001D041C06120E9509410AF907E509F1018C
:1008400049005102B507DB077709E3074D0C1E0F7E
:100850007300E607D2086207B6089B051908AB01CA
:100860003D04A507510C16067309EC04A80CFC0105
:100870007C0C3309BC0690087203C10F2B06130EC3
:100880004E07420BE407F3089B0391010A06730627
:10089000F10F8D03EB04ED033B03400A4204E40A2D
:1008A000A80AD90C0001DE09B70526074408B101E2
:1008B0000000000000000000000000000000000038
:1008C0000000000000000000000000000000000028
:1008D0000000000000000000000000000000000018
:1008E0000000000000000000000000000000000008
:1008F00000000000000000000000000000000000F8
:1009000000000100000000000000000000000000E6
:1009100000000000000000000000010000000000D6
:1009200000000000000000000100000000000000C6
:1009300000000000000000000000000000000000B7
:1009400000000000000000000000000000000000A7
:100950000000000000000000000000000000000097
:100960000000000000000000010000000000000086
:100970000000000000000000000000000000000077
:100980000000000000000000000000000000000067
:100990000000000000000000000000000000000057
:1009A0000000000000000000000000000000000047
:1009B0000000000000000000000000000000000037
:1009C0000000000000000000000000000000000027
:1009D0000100000000000000000001000000000015
:1009E0000000000000000000000000000000000007
:1009F00000000000000000000000000000000000F7
:100A000000000000000000000000000000000000E6
:100A100000000000000000000000000000000000D6
:100A200000000000000000000000000000000000C6
:100A300000000000000000000000000000000000B6
:100A400000000000000000000000000000000000A6
:100A50000000000001000000000000000000000095
:100A60000000000001000000000000000000000085
:100A70000000000000000000000000000000000076
:100A80000000000000000000000000000000000066
:100A90000000000000000000000000000000000056
:100AA0000000000000000000000000000000000046
:100AB0000000000000000000000000000000000036
:100AC0000000000000000000000000000000000026
:100AD0000100000000000000000000000000000015
:100AE0000000000000000000000000000000010005
:100AF00000000000000000000000000000000000F6
:100B000000000000000000000000000000000000E5
:100B100000000000000000000000000000000000D5
:100B200000000000000000000000000000000100C4
:100B300011241FBECFEFCDBFDFE3DEBF00E00CBF4F
:100B400018BE19BE1ABE1BBE10E2A0E0B0E2EAE574
:100B5000FAE100E00BBF02C007900D92A230B1078E
:100B6000D9F71BBE20E2A2E0B0E201C01D92A23282
:100B7000B207E1F70E94DB0C0C942B0D0C940000E3
:100B8000AA24979F802C869F602C112D969F100D74
:100B9000811C879F100D811C912E869497948694BA
:100BA000979486949794869497941F70892D982D86
:100BB000880F991F890D981D860D911F9F3038F061
:100BC00009F002C08D3F18F08D5F9F40F7CF089568
:100BD0000F921F926F927F928F929F92AF92EF929D
:100BE000FF920F931F932F933F93AF93BF93CF9396
:100BF000DF93EF93FF93002777243327DC01FB017A
:100C00007B012227200F270DB0F48D919C916591D7
:100C100075910E94C005EA01C20FD31FC20FD31FF6
:100C200069917881681B790BE0F43DEF630F3FE039
:100C3000731F332716C08D919C9165917591A0DF2C
:100C4000EA01C20FD31FC20FD31F69917881680FC9
:100C5000791F7F3030F009F002C06D3F10F06D5FFA
:100C60007F406A93219678831197739451F6129678
:100C7000F701039531F6FF91EF91DF91CF91BF918D
:100C8000AF913F912F911F910F91FF90EF90AF90F7
:100C90009F908F907F906F901F900F9008950F926C
:100CA0001F922F926F927F928F929F92AF92EF92AC
:100CB000FF920F931F932F933F93AF93BF93CF93C5
:100CC000DF93EF93FF9330EC232E00277724332715
:100CD000DC01FB017B012227200F270DC8F0221524
:100CE000B8F48D919C91659175914ADFEA01C20F2C
:100CF000D31FC20FD31F69917881680F791F7F308E
:100D0000E8F009F002C06D3FC8F06D5F7F4016C08B
:100D100022198D919C91659175910E94C005EA01FF
:100D2000C20FD31FC20FD31F69917881681B790B43
:100D300028F43DEF630F3FE0731F33276A9321963A
:100D4000788311977394721431F677241296F70111
:100D50000395021501F6FF91EF91DF91CF91BF91BD
:100D6000AF913F912F911F910F91FF90EF90AF9016
:100D70009F908F907F906F902F901F900F9008956D
:100D80000F921F922F923F924F926F928F929F924B
:100D9000AF92BF92CF92EF92FF920F931F932F9338
:100DA0003F93AF93BF93CF93DF93EF93FF9330E4E1
:100DB000232E31E0332EBB24CC2444243327DC0102
:100DC000FB017B01002722270B0D2C1D040D30F9A0
:100DD000231F2315D8F011F40215C0F002192309BE
:100DE0008D919C91659175910E94C005EA01C00F9B
:100DF000D21FC00FD21F69917881681B790BE0F474
:100E00003DEF630F3FE0731F332716C08D919C9118
:100E100065917591B5DEEA01C00FD21FC00FD21FD8
:100E200069917881680F791F7F3030F009F002C036
:100E30006D3F10F06D5F7F406A9321967883119724
:100E4000439409F4689416F4421409F0BBCF442487
:100E5000E8941296F701B39409F4C394C31410F004
:100E6000B21409F0AFCFFF91EF91DF91CF91BF9115
:100E7000AF913F912F911F910F91FF90EF90CF90E5
:100E8000BF90AF909F908F906F904F903F902F901A
:100E90001F900F900895482F4603202D312D442791
:100EA00011200AF44A95682F6703300D411D632F06
:100EB00045956795459567954595679545956795DA
:100EC0003F70862F942F880F991F860F941F820FD3
:100ED000931F11240895BC0142E150E282E090E2A8
:100EE0000E948007E2E0F0E280819181A281B381DB
:100EF0000196A11DB11D80839183A283B3830895C0
:100F00009C01CB01BA01405F5F4FFB016F5F7F4FD8
:100F1000E081E093C30046175707B9F7A901405F86
:100F20005F4FF9012F5F3F4F60816093C20042170E
:100F30005307B9F72091C0002F7620682093C00096
:100F40002091C1002178E1F32091C10027FD0DC05F
:100F50009C01205F3F4FFC0101964091C2004083FD
:100F600028173907C1F781E0089580E00895AF920E
:100F7000BF92DF92EF92FF920F931F93CF93DF9375
:100F8000782F5A01A901D8011C9280E0871788F5B3
:100F90008A0130E020E090E07501689FE00CF11CD0
:100FA000112422C0F701E20FF31FE4919D1508F40C
:100FB000922FE801F9918E01FE1790F49F5F9C93A8
:100FC000240F351FF901918197FF8195DF91CF9112
:100FD0001F910F91FF90EF90DF90BF90AF90089519
:100FE0002F5F3F4FEF1718F0D22E2617D8F28F5FE2
:100FF000CDCF80E0EBCF7F928F929F92AF92BF9246
:10100000CF92DF92EF92FF920F931F93CF93DF93D4
:10101000CDB7DEB7E197CDBFDEBF4B016A0119AA9C
:101020007C01B12CA12C8EEF782EAC14BD0489F478
:10103000E196CDBFDEBFDF91CF911F910F91FF9061
:10104000EF90DF90CF90BF90AF909F908F907F9068
:10105000089523E2271568F4CE0101960E946B07DC
:10106000CE0141960E946B07CE0181960E946B07CC
:10107000712C21E030E02C0F3D1F270D311D8E011A
:101080000F5C1F4F44EF51E06CE085E20E94B70710
:10109000282F89A9780E822F022E000C990B27FF8A
:1010A00002C08350904FE1E08E16910449F4F7019D
:1010B00020813181820F931F8E3FFFE09F0750F404
:1010C000F70180839183FFEFAF1ABF0A22E0E20E9F
:1010D000F11CABCF8D5F9F40F3CF7F928F929F9299
:1010E000AF92BF92CF92DF92EF92FF920F931F9336
:1010F000CF93DF93CDB7DEB7E197CDBFDEBF4B0116
:101100006A0119AA7C01B12CA12C8EEF782EAC14A7
:10111000BD0489F4E196CDBFDEBFDF91CF911F9171
:101120000F91FF90EF90DF90CF90BF90AF909F9086
:101130008F907F90089523E2271568F4CE010196E1
:101140000E946B07CE0141960E946B07CE018196EB
:101150000E946B07712C21E030E02C0F3D1F270D02
:10116000311D8E010F5C1F4F44EF51E06CE085E2B2
:101170000E94B70799A9790E082E000C990BE1E09F
:101180008E16910449F4F70120813181820F931F5B
:101190008E3FFFE09F0750F4F70180839183FFEFBC
:1011A000AF1ABF0A22E0E20EF11CB1CF8D5F9F4063
:1011B000F3CF0F931F93CF93DF938B01BA01FC0101
:1011C000EA01CC0FDD1FC80FD91F50E040E04617E1
:1011D000570729F4DF91CF911F910F9108958191C5
:1011E000919129913991821B930B9A01220F331F00
:1011F000200F311F97FD06C0D9018D939C934F5F3F
:101200005F4FE5CF8350904FF7CF2F923F924F9291
:101210005F926F927F928F929F92AF92BF92CF9286
:10122000DF92EF92FF920F931F93CF93DF93CDB78F
:10123000DEB72897CDBFDEBF2C013B017A015901F3
:10124000102F8DB79EB78F8398871901220C331CFE
:10125000EDB7FEB7E219F309EDBFFEBF8DB79EB73C
:1012600001964C01F901E170FF27ED83FE8320FD1B
:1012700084C080910020801709F47FC06901D69452
:10128000C79460E0862F90E08C159D0508F4B9C0E6
:101290001F5FC601880F991F89839A83BC01680D5F
:1012A000791D012F9601A701C4010E9405096981DA
:1012B0007A81660D771D9601A701420D531D898124
:1012C0009A81840D951D0E940509EB82FC82F7012D
:1012D00030E020E02A153B0509F0CDC0012F960132
:1012E000A401B301C2010E940509B401D401F701B0
:1012F00030E020E02A153B0509F0D1C0F601EE0FE1
:10130000FF1FEE0FFF1FEE0DFF1D96012A153B0577
:1013100008F4D6C0A981BA81AE0DBF1DCD0130E061
:1013200020E02C153D0509F0E3C0ED81FE81EC15B0
:10133000FD0509F0E8C0CA14DB0408F4F4C08F818D
:1013400098858DBF9EBFEF81F885EDBFFEBF2896C3
:10135000CDBFDEBFDF91CF911F910F91FF90EF9036
:10136000DF90CF90BF90AF909F908F907F906F90C5
:101370005F904F903F902F900895F70190E080E0AC
:101380008215930579F41201912C812C8A149B0407
:10139000B1F26401CC0CDD1CCE0CDF1C8301512C9E
:1013A000412C20C0119211920196EACFF80161916F
:1013B00071918F01F10180810E944B07F60120811C
:1013C0003181820F931F8D3FFFE09F07ACF08D5F4F
:1013D0009F40F60180839183FFEF4F1A5F0A22E05E
:1013E000C20ED11C4A145B0409F74FEF841A940A09
:1013F00072E0270E311CCACF97FFEBCF8350904F7E
:10140000E8CFAC01440F551F8C0D9D1D880F991F0F
:10141000F201E40FF51FD201A80FB91F0190F0816E
:10142000E02D2D913C912E0F3F1FF401E40FF51F8D
:101430002D3F7FE03707CCF420833183460D571DC5
:10144000FA0120813181F301E80FF91F40815181B8
:10145000240F351F880D991D2D3FFFE03F0744F4F1
:10146000FC01208331836F5F0DCF2D5F3F40E4CFC0
:101470002D5F3F40F5CF80819181DF01A20DB31D2B
:101480004D915C91841B950B97FD06C080839183E1
:101490002F5F3F4F32961ECF8350904FF7CF4D9125
:1014A0005D9180819181841B950B97FD06C080839F
:1014B00091832F5F3F4F32961DCF8350904FF7CFD0
:1014C000D901AA0FBB1FAE0DBF1D8D919C9140810C
:1014D0005181840F951F8D3F4FE0940734F4808332
:1014E00091832F5F3F4F329611CF8D5F9F40F7CF93
:1014F000F701419151917F01FC0141935193CF013B
:101500002F5F3F4F0ECFFB0181919191BF01EB8186
:10151000FC8181939193EB83FC838D819E81019665
:101520008D839E8302CFF601EE0FFF1FE80DF91D9C
:10153000808191812D913C911197820F931F8D3F56
:10154000FFE09F0744F48D939C9311972FEFC21AED
:10155000D20A1296F0CE8D5F9F40F5CFBF92CF9208
:10156000DF92EF92FF920F931F93CF93DF93CDB74C
:10157000DEB7C058D440CDBFDEBF6B01F42E152FAF
:10158000A901DE01AF5FBC4F30E020E0BA2EEB2EA8
:10159000F601E20FF31F659174916D937D932E5FB9
:1015A0003F4F203861E0360799F700E020EC30E04B
:1015B000452BE9F4AE014F5F5F4F6B2D7E2D0E94EE
:1015C000050940EC50E06F2D712FCE0101960E946D
:1015D000D908C058DB4FCDBFDEBFDF91CF911F913F
:1015E0000F91FF90EF90DF90CF90BF900895AE01E4
:1015F0004F5F5F4FBC018B2D9E2DE1CFBF92CF92ED
:10160000DF92EF92FF920F931F93CF93DF93CDB7AB
:10161000DEB7D650CDBFDEBF6B01F42E152FA9016A
:10162000DE01AF5FBB4F30E020E0BA2EEB2EF601BB
:10163000E20FF31F659174916D937D932E5F3F4F81
:10164000211562E0360799F700E020E031E0452BF4
:10165000E1F4AE014F5F5F4F6B2D7E2D0E940509B7
:1016600040E051E06F2D712FCE0101960E94D90804
:10167000DA5FCDBFDEBFDF91CF911F910F91FF9059
:10168000EF90DF90CF90BF900895AE014F5F5F4F16
:10169000BC018B2D9E2DE2CFBF92CF92DF92EF92B5
:1016A000FF920F931F93CF93DF93CDB7DEB7C05850
:1016B000D740CDBFDEBF6B01F42E152FA901DE018F
:1016C000AF5FBA4F30E020E0BA2EEB2EF601E20F0A
:1016D000F31F659174916D937D932E5F3F4F20387A
:1016E00062E0360799F700E020E431E0452BE9F4A9
:1016F000AE014F5F5F4F6B2D7E2D0E94050940E4C8
:1017000051E06F2D712FCE0101960E94D908C0586B
:10171000D84FCDBFDEBFDF91CF911F910F91FF90CA
:10172000EF90DF90CF90BF900895AE014F5F5F4F75
:10173000BC018B2D9E2DE1CFCF93DF93DC01FB010C
:1017400090E080E041505109EC0123E0D695C79527
:101750002A95E1F7CA0FDB1F288130E0BC016770D2
:10176000772702C0359527956A95E2F720FF0BC0D1
:1017700020813181B9016250784F6E3FCFE07C0704
:1017800040F46083718332964817590739F0019607
:10179000DBCF2F5F374020833183F5CFDF91CF91AF
:1017A00008956F927F928F929F92AF92BF92CF9245
:1017B000DF92EF92FF920F931F93CF93DF933C0141
:1017C000D62FC72F5A0149016701A70170E060E0D9
:1017D0008D2F9C2F0E946D0880ECE816F10489F58E
:1017E00030E020E0A501B8018D2F9C2F0E94AE0AA9
:1017F00030E020E04D2F5C2FB4018D2F9C2F0E94F4
:10180000AE0AA60161E070E08D2F9C2F0E94FB07BD
:10181000A60161E070E0C5010E94FB07A601B501C9
:10182000C301DF91CF911F910F91FF90EF90DF9057
:10183000CF90BF90AF909F908F907F906F900C94BF
:101840009C0BE11481E0F806B9F080E4E81681E031
:10185000F806B9F630E020E0A501B8018D2F9C2FE5
:101860000E944C0B30E020E04D2F5C2FB4018D2FF7
:101870009C2F0E944C0BC5CF30E020E0A501B801A1
:101880008D2F9C2F0E94FE0A30E020E04D2F5C2F10
:10189000B4018D2F9C2F0E94FE0AB3CF0F931F938C
:1018A000CF93DF939B01FC0190E080E0C1E0D0E0AA
:1018B00041505109619171916F5F73406E3F774064
:1018C00098F4DC0163E0B695A7956A95E1F7A20F5D
:1018D000B31FBC01677077278E0101C0000F6A95A6
:1018E000EAF76C91602B6C934817590711F0019639
:1018F000E1CFDF91CF911F910F910895AF92BF92E9
:10190000CF92DF92EF92FF920F931F93CF93DF93CB
:101910006C01D62FC72F5A01B9017801003C11057F
:10192000F9F421E030E04D2F5C2F8D2F9C2F0E9489
:10193000AE0AED2FFC2FD50150E040E04E155F05BB
:1019400041F5B6018D2F9C2FDF91CF911F910F9103
:10195000FF90EF90DF90CF90BF90AF900C944E0C23
:10196000011581E0180761F00034114011F721E002
:1019700030E04D2F5C2F8D2F9C2F0E944C0BD9CF28
:1019800021E030E04D2F5C2F8D2F9C2F0E94FE0A0E
:10199000D0CF2D913D9180819181280F391F2E3F0D
:1019A0008FE0380710F02D5F3F40208331834F5F79
:1019B0005F4F3296C3CFCDB7DEB7C852D540CDBF4B
:1019C000DEBF88E080934506809341061092A70809
:1019D0009CE09093A6081092A30893E09093A5082A
:1019E0008093A40880E4E82EFF24F39400E316E03B
:1019F00020EB33E0AE014F5F5F4FBE016F577D4F6D
:101A0000CE018F5F9A4F0E94D10B00E411E020EBD2
:101A100038E0AE014F5F5F4FBE016F577D4FCE0183
:101A20008F5F9A4F0E947E0CFE01EF5FFA4FCE014E
:101A30008F5B994F21913091A10835FFFCCF209306
:101A4000A008E817F907B1F790E080E0C85DDA4F29
:0A1A5000CDBFDEBF0895F894FFCF6C
:021A5A00FF008B
:00000001FF
