:100000000C9418040C943E040C943E040C943E048E
:100010000C943E040C943E040C943E040C943E0458
:100020000C943E040C943E040C943E040C943E0448
:100030000C943E040C943E040C943E040C943E0438
:100040000C943E040C943E040C943E040C943E0428
:100050000C943E040C943E040C943E040C943E0418
:100060000C943E040C943E040C943E040C943E0408
:100070000C943E040C943E040C943E040C943E04F8
:100080000C943E040C943E040C943E040C943E04E8
:100090000C943E040C943E040C943E040C943E04D8
:1000A0000C943E040C943E040C943E040C943E04C8
:1000B0000C943E040C943E040C943E040C943E04B8
:1000C0000C943E040C943E040C943E040C943E04A8
:1000D0000C943E040C943E040C943E040C943E0498
:1000E0000C943E040C943E040C943E040C943E0488
:1000F0000C943E040C943E040C943E040C943E0478
:100100000C943E040C943E040C943E040C943E0467
:100110000C943E040C943E040C943E040C943E0457
:100120000C943E040C943E040C943E040C943E0447
:100130000C943E040C943E040C943E040C943E0437
:100140000C943E040C943E040C943E040C943E0427
:100150000C943E040C943E040C943E040C943E0417
:100160000C943E040C943E040C943E040C943E0407
:100170000C943E040C943E040C943E040C943E04F7
:100180000C943E040C943E040C943E040C943E04E7
:100190000C943E040C943E040C943E040C943E04D7
:1001A0000C943E040C943E040C943E040C943E04C7
:1001B0000C943E040C943E040C943E040C943E04B7
:1001C0000C943E040C943E040C943E040C943E04A7
:1001D0000C943E040C943E040C943E040C943E0497
:1001E0000C943E040C943E040C943E040C943E0487
:1001F0000C943E041FFFFFFFFFFFFFFFFFFFFFFF09
:100200005CEF2C248806C827161ABD189186506BFF
:10021000CC065F204344C125BAAB5F82BCDB43B34D
:100220005D62CE65D7D9769FAD23BCB11411F5516F
:10023000EA9BE2F4D6DDB5ED7E1526D5F58A994721
:100240004919B8C9E7D2A137FB5117812753B7B86D
:10025000E8A773D9FE151BD0928596D3148CB49F52
:10026000FF487508BA9F720807E44D00FFC1668613
:10027000270CFC821A5409BEFFEC8AC3C159431BE8
:10028000FDC99BFDFFFA7DF4B6E92C28A6FCD4C07D
:10029000FFFE94BB4554B5AC4B869C62FFFFAADEC3
:1002A0001B1CAA95EC72329EFFFFEDDC1C6436DC51
:1002B000337F6316FFFFFC7C9DC2569AD95E7B2C70
:1002C000FFFFFF61BC337FED8E0B132AFFFFFFE6BC
:1002D000B3CF05F705B9D725FFFFFFFC53EA610E41
:1002E00099E8F72BFFFFFFFF841943DEC6E2F0D742
:1002F000FFFFFFFFF12D07EC4745913CFFFFFFFF9C
:10030000FE63E348EE62D420FFFFFFFFFFD762C722
:10031000064A0C6CFFFFFFFFFFFC5E37C672F3A6B8
:10032000FFFFFFFFFFFFB48F6ABEF8B0FFFFFFFFC4
:10033000FFFFFA72697598CEFFFFFFFFFFFFFFA175
:1003400012F5A30DFFFFFFFFFFFFFFFA4016ED3D83
:10035000FFFFFFFFFFFFFFFFAF22D9AFFFFFFFFF50
:10036000FFFFFFFFFBF88681FFFFFFFFFFFFFFFF9F
:10037000FFD16385FFFFFFFFFFFFFFFFFFFE16FFBB
:10038000FFFFFFFFFFFFFFFFFFFFEDD3FFFFFFFFBB
:10039000FFFFFFFFFFFFFF62FFFFFFFFFFFFFFFF0A
:1003A000FFFFFFFAFFFFFFFFFFFFFFFFFFFFFFFF62
:1003B000D104D3070C03E406850F8808570CFA0A0A
:1003C000F20BF705050B25099E030309AD0EB205D7
:1003D000870399023D03DA0D130806011C0EAE04D3
:1003E000440FF102AC044B06240E5102AC03010F82
:1003F00046034F045A00D10FFD06E003F507AE0F88
:10040000E6058B0AEC05840C8102E70E7F02550B92
:100410008409CA0B940B62026B02AA007000180BCD
:100420004004D40452005F02380D5402A506EF0BBD
:10043000A000D505AF0EDF095C0C950A46091C0E1D
:10044000A80455075107FA0CD101D20AD708540461
:100450001D0EE30A5604D20D2509B30730096800C2
:1004600080092E08590DCC020F0A2D01E703770CE5
:1004700055045C09C709E9069B04C60B590BB10674
:100480007401F30FBB06B804170F8402700FCC0D74
:100490006402BE0732028609D8063208E20A5D020B
:1004A0009704E4044603990FD9028F05CC08330F53
:1004B00025029A0B470B780F320ECE028D0F7C0B64
:1004C000D70C690DC90C330C7F0BEF0ABA0C6C0703
:1004D0007C0796045906F00EAA0C8F06EA03EC0579
:1004E0007F02A00F110F610ABE0DE7071107E4009C
:1004F0005204D106900690009A0AAB0C1A0C5009CF
:10050000BE053A0FF80CB30280073F0E54023701C4
:100510005F0FEB0976099C0F3700F507840FDC00AD
:10052000170A9D0CA604F00BD904C104580F0B0543
:10053000100D5E007D0E450E2501050B3B083A0DA2
:10054000FA009404A206430EBA0BAE04E00AD80DDA
:100550001F084F04590ECE0C11089F09190DBA0C33
:100560009D0B4305A103B30C3C04A8017E02310995
:10057000D604F0088400E80ABC0A9908A00D100609
:10058000BD043D0C1902170FD90D090C2908BE0333
:100590009A028905C00BBE0C58093300650EC00EC7
:1005A000BF0FD80F2C076106D20E790A32077005EB
:1005B0000A0A4903DC08B205CE0C9201310D280D60
:1005C000C00C210AB004B406F402840D2803E30031
:1005D0002D0A3F02C0052502B403C20D5F075D0767
:1005E000830D1B0E1E057103F6055E0A1A00C00E70
:1005F000E500E4020701D10FCB0F9403A20F3E0CDC
:10060000EB020F033A0A07058F08E80DEE06AD0569
:10061000150D530CE1050D074F0B980A190FFF0A32
:10062000D105540CFC0F5A06070247055B0FAA03BD
:10063000AF0B9000F901A0052204BD09B801070025
:10064000780E510B8206A906670CF30AFC09900E7E
:100650004E09FE0C840F930DA704F6083E0FCF0E33
:100660007207280D3A0D650D9E089801D80FB50246
:100670004007890C9C0F4609180F150A61080E0FD8
:100680005B0C130DEE04BF0F9105B10365089109D2
:100690006D0B820F27053D048E0B880C1A06D106C0
:1006A00034005D031D0E560FEB09DF0E1D0ED20B3D
:1006B000000000000000000000000000000000003A
:1006C000000000000000000000000000000000002A
:1006D000000000000000000000000000000000001A
:1006E000000000000000000000000000000000000A
:1006F00000000100000000000000000000000000F9
:1007000000000000000000000000000000000000E9
:1007100000000000000000000000000000000000D9
:1007200000000000000000000000000000000000C9
:1007300000000100000000000000000001000000B7
:1007400000000000000001000000000000000000A8
:100750000000000000000000000000000000000099
:100760000000000000000000000000000000000089
:100770000000000000000000000000000000000079
:100780000000000000000000000000000000000069
:100790000000010001000000000000000000000057
:1007A0000000000000000000000000000000000049
:1007B0000000000000000000000000000000000039
:1007C0000000000000000000000000000000000029
:1007D0000000010000000000000000000100000017
:1007E0000000000000000000000000000000000009
:1007F00000000000000000000000000000000000F9
:1008000000000000000000000000000000000000E8
:1008100000000000000000000000000000000000D8
:1008200000000000000000000000000001000000C7
:1008300011241FBECFEFCDBFDFE3DEBF00E00CBF52
:1008400018BE19BE1ABE1BBE10E2A0E0B0E2E2EC78
:10085000F3E100E00BBF02C007900D92A230B10798
:10086000D9F71BBE20E2A2E0B0E201C01D92A23285
:10087000B207E1F70E9490090C94DF090C94000084
:100880008702302D782F7603202D310D822F932F64
:100890009F7011240895BC0142E150E282E090E291
:1008A0000E946004E2E0F0E280819181A281B38144
:1008B0000196A11DB11D80839183A283B383089506
:1008C0009C01CB01BA01405F5F4FFB016F5F7F4F1F
:1008D000E081E093C30046175707B9F7A901405FCD
:1008E0005F4FF9012F5F3F4F60816093C200421755
:1008F0005307B9F72091C0002F7620682093C000DD
:100900002091C1002178E1F32091C10027FD0DC0A5
:100910009C01205F3F4FFC0101964091C200408343
:1009200028173907C1F781E0089580E00895AF9254
:10093000BF92DF92EF92FF920F931F93CF93DF93BB
:10094000782F5A01A901D8011C9280E0871788F5F9
:100950008A0130E020E090E07501689FE00CF11C16
:10096000112422C0F701E20FF31FE4919D1508F452
:10097000922FE801F9918E01FE1790F49F5F9C93EE
:10098000240F351FF901918197FF8195DF91CF9158
:100990001F910F91FF90EF90DF90BF90AF9008955F
:1009A0002F5F3F4FEF1718F0D22E2617D8F28F5F28
:1009B000CDCF80E0EBCF7F928F929F92AF92BF928C
:1009C000CF92DF92EF92FF920F931F93CF93DF931B
:1009D000CDB7DEB7E197CDBFDEBF4B016A0119AAE3
:1009E0007C01B12CA12C8EEF782EAC14BD0489F4BF
:1009F000E196CDBFDEBFDF91CF911F910F91FF90A8
:100A0000EF90DF90CF90BF90AF909F908F907F90AE
:100A1000089523E2271568F4CE0101960E944B0445
:100A2000CE0141960E944B04CE0181960E944B0458
:100A3000712C21E030E02C0F3D1F270D311D8E0160
:100A40000F5C1F4F44EF51E06CE085E20E94970479
:100A5000282F89A9780E822F022E000C990B27FDD2
:100A6000905FE1E08E16910479F4F70120813181E5
:100A7000820F931F9F7080839183FFEFAF1ABF0A8D
:100A800022E0E20EF11CB1CFF701F5CF7F928F92F9
:100A90009F92AF92BF92CF92DF92EF92FF920F930D
:100AA0001F93CF93DF93CDB7DEB7E197CDBFDEBF06
:100AB0004B016A0119AA7C01B12CA12C8EEF782E72
:100AC000AC14BD0489F4E196CDBFDEBFDF91CF91B8
:100AD0001F910F91FF90EF90DF90CF90BF90AF905C
:100AE0009F908F907F90089523E2271568F4CE01A0
:100AF00001960E944B04CE0141960E944B04CE0108
:100B000081960E944B04712C21E030E02C0F3D1F98
:100B1000270D311D8E010F5C1F4F44EF51E06CE03B
:100B200085E20E94970499A9790E082E000C990B72
:100B3000E1E08E16910491F4F70120813181820F5A
:100B4000931F9195819591099F7080839183FFEF09
:100B5000AF1ABF0A22E0E20EF11CB2CFF701F5CFC7
:100B60000F931F93CF93DF938B01BA01FC01EA012E
:100B7000CC0FDD1FC80FD91F50E040E046175707C4
:100B800029F4DF91CF911F910F9108958191919157
:100B900029913991821B930B9A01220F331F200F49
:100BA000311F97FD06C0D9018D939C934F5F5F4F16
:100BB000E5CF905FF8CF2F923F924F925F926F9266
:100BC0007F928F929F92AF92BF92CF92DF92EF92DD
:100BD000FF920F931F93CF93DF93CDB7DEB7289784
:100BE000CDBFDEBF2C013B017A015901102F4DB75B
:100BF0005EB74F8358871901220C331C8DB79EB7FF
:100C0000821993098DBF9EBFADB7BEB711964D0136
:100C1000F901E170FF27ED83FE8320FD84C0809100
:100C20000020801709F47FC06901D694C79400E0C2
:100C3000802F90E08C159D0508F4AEC01F5FF60173
:100C4000EE0FFF1FE983FA83BF01680D791D012FA5
:100C50009601A701C4010E94DB0569817A81660DB6
:100C6000771D9601A701420D531D89819A81840D3C
:100C7000951D0E94DB05EB82FC82F70130E020E04D
:100C80002A153B0509F0BAC0012F9601A401B30152
:100C9000C2010E94DB05B401D401F70130E020E07D
:100CA0002A153B0509F0BDC0F601EE0FFF1FEE0F40
:100CB000FF1FEE0DFF1DC6018A159B0508F4C1C07C
:100CC000A981BA81AE0DBF1DCD0130E020E02C1509
:100CD0003D0509F0CAC08D819E818C159D0509F0E6
:100CE000CFC0CA14DB0408F4DCC04F8158854DBF67
:100CF0005EBF8F8198858DBF9EBF2896CDBFDEBF1A
:100D0000DF91CF911F910F91FF90EF90DF90CF90E7
:100D1000BF90AF909F908F907F906F905F904F901B
:100D20003F902F900895F70190E080E082159305A1
:100D300071F4D12CC12CCA14DB04B9F28301160161
:100D4000220C331C2E0C3F1C912C812C1BC01192A9
:100D500011920196EBCFD8016D917D918D01F20139
:100D6000808191810E944004D1012D913D911D010E
:100D7000FD013297280F391F3F7020833183BFEF69
:100D80008B1A9B0A8A149B0431F7EFEFCE1ADE0A06
:100D9000F2E04F0E511CCFCF9C01220F331F8C0D60
:100DA0009D1D880F991FD401A20FB31FA983BA8379
:100DB000D201A20FB31FF201E80FF91F4D915C9110
:100DC00060817181460F571F5F70E981FA8140830E
:100DD0005183A401480F591F260D371DD301A80FB9
:100DE000B91FF901808191812D913C91820F931F50
:100DF0009F70DA018D939C930F5F1ACF8081918150
:100E0000DF01A20DB31D4D915C91841B950B97FDE5
:100E100006C0808391832F5F3F4F329631CF905F22
:100E2000F8CF4D915D9180819181841B950B97FD49
:100E300006C0808391832F5F3F4F329631CF905F02
:100E4000F8CF419151918F0102501109DC01AA0F95
:100E5000BB1FAE0DBF1D2D913C91240F351F3F7060
:100E6000D8012D933C93019627CFF70141915191E1
:100E70007F01FC0141935193CF012F5F3F4F27CF5B
:100E8000FB0181919191BF01EB81FC818193919351
:100E9000EB83FC834D815E814F5F5F4F4D835E83AB
:100EA0001ACF8D919D919D0122503109F601EE0FCF
:100EB000FF1FE80DF91D40815181840F951F9F7020
:100EC000F90180839183FFEFCF1ADF0A0ACFBF9227
:100ED000CF92DF92EF92FF920F931F93CF93DF9306
:100EE000CDB7DEB7C058D440CDBFDEBF6B01F42E06
:100EF000152FA901DE01AF5FBC4F30E020E0BA2E14
:100F0000EB2EF601E20FF31F659174916D937D93C3
:100F10002E5F3F4F203861E0360799F700E020EC64
:100F200030E0452BE9F4AE014F5F5F4F6B2D7E2D16
:100F30000E94DB0540EC50E06F2D712FCE01019631
:100F40000E94B005C058DB4FCDBFDEBFDF91CF910F
:100F50001F910F91FF90EF90DF90CF90BF90089579
:100F6000AE014F5F5F4FBC018B2D9E2DE1CFBF9235
:100F7000CF92DF92EF92FF920F931F93CF93DF9365
:100F8000CDB7DEB7D650CDBFDEBF6B01F42E152F27
:100F9000A901DE01AF5FBB4F30E020E0BA2EEB2E9F
:100FA000F601E20FF31F659174916D937D932E5FAF
:100FB0003F4F211562E0360799F700E020E031E06D
:100FC000452BE1F4AE014F5F5F4F6B2D7E2D0E94EC
:100FD000DB0540E051E06F2D712FCE0101960E949C
:100FE000B005DA5FCDBFDEBFDF91CF911F910F91CA
:100FF000FF90EF90DF90CF90BF900895AE014F5FCC
:101000005F4FBC018B2D9E2DE2CFBF92CF92DF921E
:10101000EF92FF920F931F93CF93DF93CDB7DEB77D
:10102000C058D740CDBFDEBF6B01F42E152FA901EC
:10103000DE01AF5FBA4F30E020E0BA2EEB2EF601B2
:10104000E20FF31F659174916D937D932E5F3F4F77
:10105000203862E0360799F700E020E431E0452BC4
:10106000E9F4AE014F5F5F4F6B2D7E2D0E94DB05D3
:1010700040E451E06F2D712FCE0101960E94B00522
:10108000C058D84FCDBFDEBFDF91CF911F910F91D8
:10109000FF90EF90DF90CF90BF900895AE014F5F2B
:1010A0005F4FBC018B2D9E2DE1CFCF93DF93DC01F1
:1010B000FB0190E080E041505109EC0123E0D6951E
:1010C000C7952A95E1F7CA0FDB1F288130E0BC01E4
:1010D0006770772702C0359527956A95E2F720FF5C
:1010E0000AC020813181B901785F6130C0E17C079D
:1010F00040F46083718332964817590731F00196A6
:10110000DCCF385020833183F6CFDF91CF91089523
:101110006F927F928F929F92AF92BF92CF92DF9207
:10112000EF92FF920F931F93CF93DF933C01D62F43
:10113000C72F5A0149016701A70170E060E08D2FB8
:101140009C2F0E94460580ECE816F10489F530E0FA
:1011500020E0A501B8018D2F9C2F0E94670730E089
:1011600020E04D2F5C2FB4018D2F9C2F0E9467072C
:10117000A60161E070E08D2F9C2F0E94DB04A60188
:1011800061E070E0C5010E94DB04A601B501C30166
:10119000DF91CF911F910F91FF90EF90DF90CF9053
:1011A000BF90AF909F908F907F906F900C94550858
:1011B000E11481E0F806B9F080E4E81681E0F80671
:1011C000B9F630E020E0A501B8018D2F9C2F0E94D8
:1011D000050830E020E04D2F5C2FB4018D2F9C2FAF
:1011E0000E940508C5CF30E020E0A501B8018D2F91
:1011F0009C2F0E94B70730E020E04D2F5C2FB401F8
:101200008D2F9C2F0E94B707B3CF0F931F93CF93BF
:10121000DF939B01FC0190E080E0C1E0D0E0415011
:1012200051096191719174506115784098F4DC0115
:1012300063E0B695A7956A95E1F7A20FB31FBC01CD
:10124000677077278E0101C0000F6A95EAF76C91ED
:10125000602B6C934817590711F00196E2CFDF918C
:10126000CF911F910F910895AF92BF92CF92DF92CD
:10127000EF92FF920F931F93CF93DF936C01D62FC2
:10128000C72F5A01B9017801003C1105F9F421E09A
:1012900030E04D2F5C2F8D2F9C2F0E946707ED2F84
:1012A000FC2FD50150E040E04E155F0541F5B60139
:1012B0008D2F9C2FDF91CF911F910F91FF90EF9079
:1012C000DF90CF90BF90AF900C940509011581E09D
:1012D000180761F00034114011F721E030E04D2F84
:1012E0005C2F8D2F9C2F0E940508D9CF21E030E084
:1012F0004D2F5C2F8D2F9C2F0E94B707D0CF2D91A3
:101300003D9180819181280F391F213080E138077C
:1013100008F03051208331834F5F5F4F3296C4CF46
:10132000CDB7DEB7C851D340CDBFDEBF88E08093D4
:101330004506809341061092A7089CE09093A6086A
:101340001092A30893E09093A5088093A40880ECE2
:10135000E82EF12C00E315E020EB33E0AE014F5F07
:101360005F4FBE016F577E4FCE018F5F9C4F0E9433
:10137000880800EC10E020EB36E0AE014F5F5F4FD5
:10138000BE016F577E4FCE018F5F9C4F0E94340984
:10139000FE01EF5FFC4FCE018F539C4F21913091A6
:1013A000A10835FFFCCF2093A008E817F907B1F793
:1013B00090E080E0C85EDC4FCDBFDEBF0895F894BA
:0213C000FFCF5D
:0213C200FF002A
:00000001FF
