:100000000C94540C0C947A0C0C947A0C0C947A0C7E
:100010000C947A0C0C947A0C0C947A0C0C947A0C48
:100020000C947A0C0C947A0C0C947A0C0C947A0C38
:100030000C947A0C0C947A0C0C947A0C0C947A0C28
:100040000C947A0C0C947A0C0C947A0C0C947A0C18
:100050000C947A0C0C947A0C0C947A0C0C947A0C08
:100060000C947A0C0C947A0C0C947A0C0C947A0CF8
:100070000C947A0C0C947A0C0C947A0C0C947A0CE8
:100080000C947A0C0C947A0C0C947A0C0C947A0CD8
:100090000C947A0C0C947A0C0C947A0C0C947A0CC8
:1000A0000C947A0C0C947A0C0C947A0C0C947A0CB8
:1000B0000C947A0C0C947A0C0C947A0C0C947A0CA8
:1000C0000C947A0C0C947A0C0C947A0C0C947A0C98
:1000D0000C947A0C0C947A0C0C947A0C0C947A0C88
:1000E0000C947A0C0C947A0C0C947A0C0C947A0C78
:1000F0000C947A0C0C947A0C0C947A0C0C947A0C68
:100100000C947A0C0C947A0C0C947A0C0C947A0C57
:100110000C947A0C0C947A0C0C947A0C0C947A0C47
:100120000C947A0C0C947A0C0C947A0C0C947A0C37
:100130000C947A0C0C947A0C0C947A0C0C947A0C27
:100140000C947A0C0C947A0C0C947A0C0C947A0C17
:100150000C947A0C0C947A0C0C947A0C0C947A0C07
:100160000C947A0C0C947A0C0C947A0C0C947A0CF7
:100170000C947A0C0C947A0C0C947A0C0C947A0CE7
:100180000C947A0C0C947A0C0C947A0C0C947A0CD7
:100190000C947A0C0C947A0C0C947A0C0C947A0CC7
:1001A0000C947A0C0C947A0C0C947A0C0C947A0CB7
:1001B0000C947A0C0C947A0C0C947A0C0C947A0CA7
:1001C0000C947A0C0C947A0C0C947A0C0C947A0C97
:1001D0000C947A0C0C947A0C0C947A0C0C947A0C87
:1001E0000C947A0C0C947A0C0C947A0C0C947A0C77
:1001F0000C947A0C15049FBCBE00D73996E8E14FE9
:100200003E2C61BA49F1FBA59996477164CB9FDCFE
:1002100091E1555BB31F275B87897F2EE28CF0D27B
:10022000D9DA78C2A57E0A3C8678E5064215098BA4
:10023000BE3FE0B73D8669903F4D0F65D1DCB59973
:10024000BD0A9DB17CE4C58BE0C14476067D3E309D
:100250005FF31D45EB9845638DF728C8773B555DE7
:10026000F3285297CC8204F9C206A50FF8370B7514
:100270002265B7A4E21B8B1CFB74FA0AED641CD642
:10028000B3457BFAFD72E95DCB90B9843B033A7EBE
:10029000FE9F3CDDF189857B76E9E9C2FF48C7AE68
:1002A000EA6E1E5098C07845FFA485AD7497E54965
:1002B0007378B9C1FFD41B54F3D6E6758E6C07C3AF
:1002C000FFEBC3AAA25615EA0CEDFE24FFF709D2F4
:1002D00078F1886D792F6016FFFC3030182D40BC06
:1002E000A5300B2DFFFE716E2F9861032EA855C10E
:1002F000FFFF63B181E1E7FC7B6E6CD0FFFFC52798
:100300000427CC5969F93982FFFFEABBA41084C4E1
:100310001FDE2CA5FFFFF89F8D25A197B550411139
:10032000FFFFFD8B5C34AEEE1F6D1188FFFFFF37C2
:100330002F0CFF079E5B35C7FFFFFFC272000FA89F
:100340005EFD1B10FFFFFFEDE58F2B98C30F3B2CCD
:10035000FFFFFFFAE454266259A1D57EFFFFFFFE9E
:100360009E052E68C3A7A0F3FFFFFFFFA41456A5A8
:1003700089B0ED6EFFFFFFFFE91A5D126693FF8BF8
:10038000FFFFFFFFFA8774BC789C428BFFFFFFFFE3
:10039000FEBF072219E65202FFFFFFFFFFB9728777
:1003A000727973C0FFFFFFFFFFF12057546BD457E2
:1003B000FFFFFFFFFFFCFE25F50680FEFFFFFFFFAE
:1003C000FFFF6AB9A8AAC85EFFFFFFFFFFFFE43E78
:1003D00008F1E930FFFFFFFFFFFFFB0CDBC2C9B3F1
:1003E000FFFFFFFFFFFFFF275197372EFFFFFFFFA4
:1003F000FFFFFFDC78306775FFFFFFFFFFFFFFFAAD
:1004000069CDD8FCFFFFFFFFFFFFFFFF285E08213B
:10041000FFFFFFFFFFFFFFFFE0D3801DFFFFFFFF98
:10042000FFFFFFFFFBADBF7DFFFFFFFFFFFFFFFFF4
:10043000FF6CF730FFFFFFFFFFFFFFFFFFED4322E1
:10044000FFFFFFFFFFFFFFFFFFFDB5E3FFFFFFFF24
:10045000FFFFFFFFFFFFBB57FFFFFFFFFFFFFFFF98
:10046000FFFFF84BFFFFFFFFFFFFFFFFFFFFFF2D29
:10047000FFFFFFFFFFFFFFFFFFFFFFEBFFFFFFFFA0
:10048000FFFFFFFFFFFFFFFF00003A2A7324AC1EAF
:10049000E5181E13570D9007C901032C3C26752043
:1004A000AE1AE714200F59090100C70536201A14A7
:1004B000261099192F2D19051D198623452B6E0617
:1004C000DC21F109B00D2B22BA2A72139116000D0E
:1004D0003D19621CEF11A119B80ABE0B9F0B330224
:1004E000B503410AB225D512D60203123D078C008E
:1004F000D00A63069F109904C326EB0B2013930BBD
:10050000E803E0105100EE23F6082604E10D3C1D3F
:1005100081213F0CBB0A131D2E05231C3B24810C9B
:100520001603BB039204F226FE14EC247F2F021163
:10053000A5269D1EE00C9420CB136C278B2F5526EF
:100540007A19C62CA40EB903DD099C2A000E51109D
:100550007D13D3144B1F8906E12D6219AE2EA40919
:10056000F82F032C212E1A0B17171A135C0FAB0A46
:10057000A615702F7E22CC218710F4096301CB22AF
:100580007B0EDF063B146E0E2908E4132D23C024D6
:100590005823282DD90C242861296D2AB32E8726AB
:1005A0007B16E91DDD1E152B252E3622D81C70204A
:1005B000F92982085D2EB7150E2F3924622DB80B4C
:1005C000400C4714480D5F09D00FC908440B810443
:1005D0008F23E21A4E08A3294B222D1BD024420957
:1005E000990B8A0F7E0AAF0C352A1F13DC0AB61B43
:1005F000AC252C200109B213ED1E83273E111F0BE1
:10060000C70C28206829DD22F10682292E129205C6
:100610007125561BB71CCD21AC1E0300B423A000CE
:1006200037137100B6208B2789289F2AB301F11058
:10063000B42644150010142E5123B704641B712BEB
:1006400025129401A2272904760997178B08060A18
:1006500056247B18C32185096B03C40E470670130B
:10066000BC10211C6E1C172C2102661C8921760AE5
:100670002F10971D0F2F002AA005B30EFA0BE62F9F
:10068000DC13A1291513082C1504D624B1096D1CFF
:10069000BF19600B041D9F2E3F21F90EFC2C7B2EF1
:1006A0002B04ED13472EA026E604342C3B154F05F2
:1006B0007F28DA209E0FF1077E01C52E940F2D2E84
:1006C00034188321BB1A261BC006712EF917AD1CE6
:1006D0003B0E2715E616091838008223AB1B991527
:1006E0003E285B291422732DFA03DC181104BA0D7D
:1006F000C6154C282809FE043E1BEB0FCD1CE41048
:100700000A028827BE0C2A1C1A04B811BC1AED2054
:100710007B0A5B2BEA0E1B18CD0E93005015A01E12
:10072000741DA115B5127311101244184223100E36
:100730004D18EF21F00FA5015D020327092E75105A
:100740000319531DDA15D50B8D1FCF0393221C0BF4
:100750005104732F31166C227817750391135D289D
:10076000EB033522F1003A004F086A2F170B8C205B
:10077000EF18C909AF01D6299B233400CE0AD62A27
:10078000080DA717F2165C2D0108D11CD82AC0004D
:10079000750D551DA71D401CEE2C9A0D0F2C5C15D8
:1007A000370C4910680B7914891407211F17511150
:1007B0006E15EE0BD306330CC709840B6B191E069E
:1007C0004000B921562D66264303B117F20D711F63
:1007D000DA2A4E0C3C2D3320E327A92B1F1F5B2860
:1007E000482E672C2204EF0F501BE7178D20B12AEB
:1007F000B0044014FB09EA17C729AA07F213B81876
:100800007D25A800371F0023D10F900E7A2B9B184F
:10081000B4037A047C05BC2E670BB20E1420B00F13
:10082000752D7B192E18DA2EF42A8112A612CC1AF5
:10083000C501ED185F2E45212C1BEF070D19182758
:10084000652FCF0A810F6A200D07420B03085F282E
:100850008F090318C12D8620C90D9722272FA524A3
:100860003307C826EE1F2B246F1DBF28AA01F30CE7
:100870009424A62EAD0EB7072E2D532F6429C10B3D
:10088000A2256716EC16B20A741E820C0908081B12
:10089000FA1A1707A32E192A36172F06D105C409ED
:1008A000362AE618122BD02F01003A2AE71BCB0F6D
:1008B000E82AD2026816DB1FD60D51221026250E1B
:1008C0009329BC047B0CE4162C1D4F0AC0254C2C2C
:1008D000CE2D6224432449256016121E9F13C41690
:1008E000012370198F1C47050F096F2B462CEB2C29
:1008F0008023C60BDE13D32AEE124625C223800EB8
:10090000C5122022DB2B0B27130CB02F211F192C13
:100910006E24E11C16243E09682B621F9E29312596
:10092000752FC428FE1D2B2DEC04241118128619D6
:100930007A094E019405A006DD072823D902A90CE7
:10094000410BD40C1D1CD8279321C61B22298621BC
:10095000360D9E2E0D267A1F350E830D91005B1AE3
:100960005625A520E71CEA18E724E001FE0309004C
:100970005D2653019F1620027829B6102E1B841C79
:10098000B01F012265052426482C5D213B038716F4
:10099000AC0976009508361C6D0F212364115C09A3
:1009A000FF1E8200150B031B6109BA01141CD62B14
:1009B000860105030821C20E6201FD12A124421620
:1009C000941350262B0BEC2BF903EC1C6006251C12
:1009D0001B0007244E21612A0106F2006A12D21F71
:1009E0008B25780E9B13E02DEA039313E013451F2C
:1009F000911CBA293D21962C7C263E0E8617AB0B06
:100A0000FB2576276A188B26D82B5F086D2EDC1DF8
:100A100090049D144A2BB00CED010120BD1A4D0924
:100A2000101F4E2E6205780776084B0F902FCA1CB8
:100A3000612F4D0CFE2F5511340E4A13AB14900A42
:100A40006F2AD31D7F061029240D9906D90F3A234A
:100A5000E224C31E7E0814114F1C0027D50F550A2F
:100A60004B142525E21CCC055223832577206824CE
:100A7000BF26310BD414B60D5E06B3271F15720CBA
:100A8000802BBD2438273120A226B922BA1BC123CE
:100A900049249F02C80BF3004A1AA4017F270806C5
:100AA000910F2913CB0DDC013100EF041B17CB058F
:100AB0003D26302AD229CB18E8055E01EA28071521
:100AC000F914F8277F238D114F2515199A195F0AFC
:100AD00040249D06AE00D3024A2854215B016D0BD1
:100AE0000E23572E42079212D60B13103909CE2827
:100AF0005C0BDA006A0D38227B0F4002FE1772266B
:100B0000A207FE27BF24F428970F802032259C00DF
:100B1000E908F4161228D514BC0EA20114173C2EB5
:100B200035155B1D801D0D052701D31786168C0218
:100B30005120ED0F4F219A244501852A872B4D2CFA
:100B40006617870471213020010DCA10592F840ABD
:100B500049170F1C57283A0617180626C11B512B98
:100B60005005740F1A18B1141220DF2B9A03B90123
:100B7000A607E21058041E08CE0FC502B3232705AE
:100B800090100F225018BE2C9B09AB02480EC12FAB
:100B9000E32996167D243A26CE232E291324931A70
:100BA000B01EE218FA0E781B881B9924B81FCA23BE
:100BB000A51AF20367221303C1135A12AC128C2236
:100BC000412F290530130028A5020F195A18F922C0
:100BD0002B053325CD2F660C2B06522E38261217E7
:100BE000750FEA249700B227C72F102FCC0D162CB3
:100BF000A407701C8C2C8918950DD0198E00B02B71
:100C0000E5246E0D322C74102C24271AAE12FE1619
:100C10008C1FF801FE08A42D5C2E1120120EB417B3
:100C2000F121BF0CBD17F11D8E1E4C1D601A8D12D7
:100C30006111B11A6E2F3421E6171721A6048625FB
:100C4000140F4515491EE72BD71343237908F72DB9
:100C50001D1F34131620C314032BD926B5073B1AC6
:100C60004722F02B2517072C8E02ED0DA606C30791
:100C7000681A56147F0CC92FF8171B19DA1AC621E7
:100C80005413081890014129DB1446157E0ECD1728
:100C9000D4016D203C01832E10286320270F82078A
:100CA000B22AC61ACD031B2BEE2A6115372F5D0A17
:100CB0007E02E30842040E01220DDE060D1F5F27AF
:100CC0005D1F17268B1BC306C919911D57110A2ECC
:100CD0003629DC2D712FFE05FE2C4103C60C53076F
:100CE0009811FA2B8A0BA60375221A046A1DA50C0B
:100CF0004807CF25C11743267F07D32A5E0D990DDC
:100D0000932FE225CA26F12A0010E40AC2106508D2
:100D1000E91C0A22F923171D3B23A0166A2EAF20D7
:100D2000222ED1095A1B4000A20F47226712B91682
:100D30007302482BC81DFC12370FB80D550DDA1A77
:100D40003926AE10CC04AE07FB00481CE51A381457
:100D500013208625F12669267502EB13A00AF30BF2
:100D6000B91D09130209E01EFC1F7716C01F1F0AD8
:100D7000771E910722212128541F49221415B205FC
:100D80001D286505690005261C00EE2C1810960824
:100D9000C92BB9015B06CA292422C71FA007621309
:100DA000C4272E2135048218572FA70342230D098B
:100DB000CA1B601CBE1E7F016A007F235313F619F5
:100DC000142B990A8C1FF6246B27DD285A15120163
:100DD000D90720277A0C631FF40ED02E3B049C29E0
:100DE0007108F5220E2A6B2F531C1A1EAC0C662FAD
:100DF0001906281CC5080A07C11BD613D21D490AAB
:100E00001E0131125606962E072F33206025E60468
:100E1000711B30056A0A80016A25981F3506761114
:100E20006C22750BA62FBE12B42CD60BC611CE1495
:100E3000160F2F137704D509B320B72A49173B2380
:100E400090107F1FB0123908790F7710961BCD1ABA
:100E5000B210061CDC2BCC0340075F216912070A85
:100E6000082CE108312ED4159F1A1A0F951FF5177B
:100E7000741C8220CF16D0054C2C8C1BD90A1D1354
:100E80007D1307020219E2242C2E0B2A6D26CB2C8F
:100E900050060B078929120E63208A2E720E0F0A44
:100EA000C214B91404175228272640231D2A4426A9
:100EB000DF12CA1EF42A8A1FBB044D248F151C1092
:100EC0007326560E83279019AE2F26282C0E6221EA
:100ED000B411E020D522E614BF015B085F2B8B0A1A
:100EE000CD038201E21B050D0A0CA1177701AC1E90
:100EF000642553079D29DF0E180A6D15F70B922103
:100F00007A1D461439209D025F076A26FD19562D69
:100F100003147605DB0AC806D2097304D806461600
:100F2000D22A5B15011CFE2DCA068524C516780938
:100F30008801CE127113B31C16000123D40A0408D1
:100F40009513A3038B2FFD05DE12ED025F04A72985
:100F500004057E1B301C0009CB0DD910AC2785047D
:100F6000A00EB82F5A14901815080F2A8A26142A92
:100F7000F90B121C2A247D0A6B167C11D502D8119C
:100F8000811B322BA214D81F0C15DD1B8702032AEC
:100F90009E2C862B54095D261005F60D1F28CF2E9A
:100FA000F70AF127E215832F822C8E0C4411DB16F1
:100FB000F3107B1C5B20CF0D092A212CDD0BE424D0
:100FC000C42BE32682050008641F261A0C09340985
:100FD00034158A2C372C3D289815F1149C0EA31A31
:100FE000EB21BE0A8128F7158E0D9F24720C3B1F42
:100FF000C01B452EAD073D23C1285125A816310041
:101000007A0E6D1F1919590A9B17C508C916EC1FCE
:101010002F0ACB25200183239A0D84026F060D171A
:10102000462AC81FBD07142B75244B0F1D280E0F11
:10103000A91CB92CA2210A28560D40080D0BEF0857
:1010400039170704A70E04191106700824058E1617
:10105000A40A472BE6264608A112830F8109C52F53
:101060004C0B660CC6201E2BED23B5030A11B629C6
:10107000C30F091386247A1358031D104429901CAA
:101080000003DD108D101F14052E4D0FE8004E27B4
:10109000CD16540B322A39235521EA133A11352A39
:1010A000180E7D0F2A225A1DF01A8D203E1C5A2C34
:1010B0009D14D110F62C2F227C0AFE0C9E213F2776
:1010C000E81F440A6C2C1E26BF047B01B20A2B01C8
:1010D0006B286E134F0CB1090A2ED208F0243B0B7B
:1010E00054185C12781B330EDF29D714C011B912C3
:1010F000AE1E281F4F221A1CA905AA0EFD095E0468
:101100003316A5036C2759062B1E18011D01152D3A
:10111000E00C311CF113F81CAF06701D0C1B5D2D8B
:1011200037189E12EE02B71A8E1C7827DC25FE2592
:101130005216BC2E3D064F20600CB7038D25F11AC8
:10114000F90CF5063414262B262DE604C90E521888
:10115000202A1A2FE4104F0AF3274F2D6128D413A9
:101160008B21D3255027E91CB828402FDC09CE1B42
:10117000E4145F193109DF116F174724BC252B14C4
:10118000131D5F05C2262724E01EF0296217372DA4
:101190008019BF119922A503D50AD70E500D650EEF
:1011A00058295C06A2009113510F0C17A31D14259A
:1011B0001E0E7F1FFB1FF42F0310AA03E5161A1C37
:1011C0006118D418050C7306D20F3A115418410F48
:1011D000110D792CE01264043F287025DB08EF170D
:1011E000C71A0719EB2E892A62023C27F028C92E5C
:1011F000462657100521330D5F19D525620AAA1A14
:10120000EF0E2C1B792C47252E09D102E32A43032C
:10121000E122E0129417C028E6103B0EB92A05120D
:10122000E811F428C6044012210CF2075223F311EE
:10123000EC1A182AE802AE0F461A4C1A5D22641DF9
:101240004F2E6A0893248E049308DA2B0B1A35026A
:10125000E22BD92F2713B112DC0F232AE51D7924A5
:10126000880A331FC32EDF17A4134A0B990C9E2A3A
:101270001A06BE02EE28D513062A4B22BC1BDA271B
:10128000F7297C051D034722E703D3240B256207BA
:10129000EA25CA2ED020D02A391C8C15DC1A9806D3
:1012A000EC0194272822A3298111812C60112B2283
:1012B0000D21612FCB16FC26970DA528A9186621B4
:1012C000640297136928C01F2222DA0DB72EAE0FD1
:1012D0004618C900780142076B12FC0FE60EDA2EA1
:1012E000271E320AB50AB129A62DC8148E0C6B1917
:1012F000D402012C2800080F17077C163C159A28E9
:10130000A40D9012211731006605D01B6F015E02FB
:10131000AA09C629E62C67060B0F242D502E2D1482
:1013200026107803BD22CD02B3228B01FA0CF505FD
:10133000AE2E6D121F1176244628B320E32E4609E7
:101340005E22AE1E65013A03AB0AFE01A50799298C
:101350000B0A3C2F521A5008611A6725202E801460
:10136000D31A8008B800B004932E3607CD169C100F
:10137000ED178315AA151807550DA7233919C90E9E
:10138000402B66213922CB2A84135E1A5D0AD814B9
:10139000E328AE09F30F2C0B950111203C240F24F8
:1013A00014136E0ACD19A4162B1DBF018A21E41057
:1013B0000F11522480027326B61789138B1401056E
:1013C0007D2AC113DA108A2B0B20A4090E25E50C07
:1013D00035009127250E2B29D3111A1CCD270A0E73
:1013E00032101211C00F6205141A81133F26F7172D
:1013F000CA2FB90EE6077D139B0236151616A314E5
:10140000D821E208A31ED0210C281F27A1060E1602
:10141000EA06C515042A071EE913E220572F0F0913
:1014200013284B16EB19631D9C0AF4038E19142024
:101430006100761A221E9E1BBC0053193F203905FD
:1014400073233825D62DC62A562F7401AF283E2681
:10145000F42C2928B12B841CA61ECC24C1029E2664
:101460006A2C050254276A05B001DA2BED1DD2253E
:10147000590F531B330D6209C90A2429BB06FC29E5
:101480008F21A922090E0105760D0E1F4C15222869
:101490005427C2197D04DB252F00832D681F6F1A86
:1014A000A6109B019807C90E76020B033B062D1C64
:1014B000BF2CB01ACF292D2E7C2F572D950E181426
:1014C000D60DC108192325194227C905430E152C2D
:1014D000831FA51D571DB80CCC1E0F192A03600CC5
:1014E0007F1CC50EB225D707C515D32FBB1DBA0962
:1014F000AB1FC71AF323BA02C326950FA228581CA4
:10150000AD04022019137A16B428E028E503580325
:101510002019DD2D93163308161FBA151F16E52660
:10152000DC08370D2905B804E90091228F19D30191
:101530008921150A07286229EE00300DA4027008DF
:10154000F81A1914E3056805EF2680256321EF2CAE
:101550009F235C1D9F1335042D0D791373045902CD
:1015600042230612F510FF0AA726F414CB03FF222C
:101570001E26C0096922E11B3517FA1D2727D81539
:101580001A0E5214A1248B19AA02940E6622360256
:101590002E266D282C05F11C080D06011E1E641157
:1015A0009907332B5D011D169618BB082C04AB114F
:1015B0009A056D10160127129209470906034C205F
:1015C0001A19D7185B1712108B239E13CF0D1728EB
:1015D000471C371E9625A72DA828EF024221F12788
:1015E000162CA42A482369151D077519231E940B70
:1015F000D00D5201301EAA22570E0627C927960584
:1016000027223423F528422B011D0B013005AE287B
:10161000D70B40241629B80C8B1FCC1C9E09C01C6C
:1016200016248F184D299012C60E450D0E29B91695
:101630003F13FC09050F4815160F810B5D26001698
:10164000380BF414C527642C3E2A1B2F12175E2575
:101650001514872CE91D191AD717D51896252B12A2
:101660000D0BD129541E24284E12501282186624C4
:101670005912BF028922D01E6A030429EB0F2311DD
:101680005301090548293B0FE101130A3F23440E8A
:10169000E229F72F522FC0274A0F8C074426E8155E
:1016A000A810BE24BF216C15DE23041F851504136A
:1016B0009B1A08189421A42E0E184F2F9D1A6328E8
:1016C00073056A1B1C0FE40BB11D8610EE22911BE3
:1016D000B903E117E328AB1A9F0BB6226006A90CE9
:1016E000392CD5052D1D501B552EA5297A26F62DF2
:1016F000B316941B1E06C905B2156014B3186319FE
:1017000044034F0ADE118808A3279B1C5823572F38
:10171000841B9709982FDF06A70F780FC823B11DE8
:10172000C125772167033B17511F0A22960136090D
:101730002B0EFF050618E82EEE03472F7E0E4317EB
:10174000941DED0C97212D0C4F2EC8262320C21D71
:101750003615BD1E3716DB0BB80DB0286C00C02443
:101760005B115911EE25E617ED02D40D3F1A8C27B7
:1017700096071D14452D1911AA12DE148027B41FD7
:101780005508670038240F160429C30E74269A15CD
:101790001B113B2CB624411F5A25FE2C9B295900B6
:1017A0000921DE08F0006F0FC20F8023F30C4111F6
:1017B000DF2B0B21C61C9601132693102A17AC129F
:1017C0006A276117851FD6068023B3018B10F9287D
:1017D0003001592593295105CA1D7B1AA32CE223F8
:1017E000AC12FB2FE92BB11F1108641FBE0EC924D8
:1017F000AC145B0AC1004521CD16CF20691F2F25EF
:1018000019186D0937109F04481BFC1BF9081D0CA3
:10181000E5016C024E0F8629701C4300510C1A041E
:1018200079210D0BC8057522EC12F31A7E212708C9
:101830002B29672FC609690B9D263E11BB12A719DC
:10184000692C9E2FF01A8E19071F78293E0E6C0AFC
:1018500042162E26AE2AE202F02D542CA326A10712
:10186000D71D75094E22150A50063D1B0817080999
:1018700024090C20341C7607590E0F1A6C2AEC2A06
:101880007E2B7328A30E4106C622742E282A7815B3
:10189000540C5B06100477265605E520A01EDF25B4
:1018A00068228E083C12DA1711241FBECFEFCDBF7D
:1018B000DFE3DEBF00E00CBF18BE19BE1ABE1BBEC0
:1018C00010E2A0E0B0E2E6EEF3E200E00BBF02C0FF
:1018D00007900D92A030B107D9F71BBE20E2A0E01F
:1018E000B0E201C01D92A032B207E1F70E94A71139
:1018F0000C94F1110C940000869F9001979FA00119
:10190000969F6627300D411D561F879F300D411D44
:10191000561FBB27BA01CA01A32F690F7B1FAA0F4D
:10192000881F991FAA0F881F991F680F791F690FB9
:101930007B1F880F991F880F991F690F7B1F880FC6
:10194000991FBB1F880F991FBB1F690F7B1FB0E337
:10195000B69FC001B79F900DAA27261B370B4A0BD5
:10196000381B490B413029F0B31718F031F42130FE
:1019700020F021503B0B4A0BF5CF1124822F932FDF
:10198000089521E030E3813093071CF0821B930B14
:1019900003C0239520602A950895BC0140E150E2E0
:1019A00080E090E20E94E20CE0E0F0E28081918130
:1019B000A281B3810196A11DB11D80839183A28371
:1019C000B38308959C01CB01BA01405F5F4FFB01D7
:1019D0006F5F7F4FE081E093C30046175707B9F769
:1019E000A901405F5F4FF9012F5F3F4F6081609316
:1019F000C20042175307B9F72091C0002F76206824
:101A00002093C0002091C1002178E1F32091C10012
:101A100027FD0DC09C01205F3F4FFC0101964091C6
:101A2000C200408328173907C1F781E0089580E09C
:101A30000895AF92BF92DF92EF92FF920F931F93A0
:101A4000CF93DF93782F5A01A901D8011C9280E02F
:101A5000871788F58A0130E020E090E07501689FE3
:101A6000E00CF11C112422C0F701E20FF31FE491F6
:101A70009D1508F4922FE801F9918E01FE1790F45C
:101A80009F5F9C93240F351FF901918197FF8195EA
:101A9000DF91CF911F910F91FF90EF90DF90BF905A
:101AA000AF9008952F5F3F4FEF1718F0D22E2617F3
:101AB000D8F28F5FCDCF80E0EBCF9F92AF92BF92F5
:101AC000CF92DF92EF92FF920F931F93CF93DF930A
:101AD000CDB7DEB7E197CDBFDEBF6B0119AA7C01A0
:101AE0005C012CEFB21A8EEF982E83E2891568F410
:101AF000CE0101960E94CD0CCE0141960E94CD0CE4
:101B0000CE0181960E94CD0C912C21E030E02C0F6B
:101B10003D1F290D311D8E010F5C1F4F44EF51E019
:101B20006CE087E30E94190D99A9990E082E000C0C
:101B3000990BE1E0CE16D10459F4F70120813181EF
:101B4000820F931F8130F0E39F0710F08150904384
:101B5000F70180839183F2E0EF0EF11CEA14FB049D
:101B600021F6E196CDBFDEBFDF91CF911F910F919E
:101B7000FF90EF90DF90CF90BF90AF909F9008952F
:101B8000EF92FF920F931F93CF93DF938B011E5F12
:101B9000EC017C018CEFF81AF80185919491688131
:101BA00079814A815B819B01240F351F2130E0E35D
:101BB0003E07CCF428833983641B750B77FF02C082
:101BC0006F5F7F4C0E947C0C8A839B830E5F1F4F4C
:101BD0002496EC16FD0601F7DF91CF911F910F912E
:101BE000FF90EF90089521503043E4CFAF92BF9221
:101BF000CF92DF92EF92FF920F931F93CF93DF93D9
:101C0000FB013296A590B490EC018C011E5F680137
:101C100069917991F801819191918F01860F971FB8
:101C2000FE013297813020E3920704F5808391838F
:101C3000F801929182917F01681B790B77FF02C0B6
:101C40006F5F7F4CC5010E947C0CF70180839183FC
:101C5000CC15DD05E9F6DF91CF911F910F91FF9033
:101C6000EF90DF90CF90BF90AF9008958150904358
:101C7000DDCF2F923F924F925F926F927F928F9221
:101C80009F92AF92BF92CF92DF92EF92FF920F930B
:101C90001F93CF93DF93CDB7DEB72A97CDBFDEBFBB
:101CA0008C016B010E94C00D27E030E02D833E8344
:101CB00080E890E089839A8372E0A72EB12C4501D9
:101CC000AA0CBB1C89819A81880F991FF601E80F25
:101CD000F91FEB83FC83712C612C512C412CEB817F
:101CE000FC81259134912F8338877401EE0CFF1C01
:101CF000E00EF11EC301880F991F800F911F898785
:101D00009A87130128143904B8F16A0C7B1C3FEF41
:101D1000431A530A8B819C8102968B839C838A0C85
:101D20009B1CE981FA814E165F06C9F69201369531
:101D3000279529833A838D819E8101978D839E8388
:101D4000892B09F0BCCFB601C8012A96CDBFDEBFF2
:101D5000DF91CF911F910F91FF90EF90DF90CF9087
:101D6000BF90AF909F908F907F906F905F904F90BB
:101D70003F902F900C94F60DE985FA856081718172
:101D8000F70180819181860F971F8130F0E39F07D3
:101D9000FCF4E985FA8580839183F7018081918144
:101DA000681B790B77FF02C06F5F7F4C8F8198852E
:101DB0000E947C0CF701819391937F01FFEF2F1A12
:101DC0003F0A29853A852E5F3F4F29873A879ACF68
:101DD00081509043DECFCF92DF92EF92FF920F932C
:101DE0001F93CF93DF93EC018C011E5F7801CC240D
:101DF000C39420E3D22ED801ED91FD918D01F7FF20
:101E000049C0662777276E1B7F0BE13FFF4FD4F554
:101E10008AE39AE20E947C0C9C01C601821B930B10
:101E20009C0188819981821B930BF801329797FD61
:101E300042C0808391838081918197FF04C08F5F2E
:101E40009F4C8083918388819981280F391F21308D
:101E500090E339079CF5288339838881998197FF1E
:101E600004C08F5F9F4C888399832296EC16FD06F1
:101E700011F6DF91CF911F910F91FF90EF90DF90BE
:101E8000CF900895FB01EE0FFF1FE857FB4F259100
:101E90003491C3CFE031F1053CF0BF018AE39AE20F
:101EA0000E947C0C9C01BDCFEE0FFF1FE857FB4F3B
:101EB00025913491B6CF8F5F9F4CBBCF21503043DB
:101EC000CACFEF92FF920F931F93CF93DF938B01B3
:101ED0001E5FEC017C012CEFF21AF80185919491C0
:101EE0006A817B810E947C0CAC01888199819C0174
:101EF000241B350B37FD17C02A833B83840F951FA6
:101F0000813020E3920794F4888399830E5F1F4FFA
:101F10002496EC16FD0609F7DF91CF911F910F91E2
:101F2000FF90EF9008952F5F3F4CE6CF8150904394
:101F3000EBCF2F923F924F925F926F927F928F9250
:101F40009F92AF92BF92CF92DF92EF92FF920F9348
:101F50001F93CF93DF93CDB7DEB76097CDBFDEBFC2
:101F60001C0169837A830E94EB0E87E090E08B83EB
:101F70009C8332E0832E912C40E8C42ED12C8B869A
:101F80009C86880C991CE981FA81E80DF91DED8386
:101F9000FE835601AA0CBB1C2F86388AC601019706
:101FA0008F839887512C412CF12CE12CED81FE81FF
:101FB000859194918D879E87EF85F889EA0DFB1DA9
:101FC000E987FA878F013201EF81F885E615F70579
:101FD00008F03FC0FFEFEF1AFF0A8D819E81029645
:101FE0008D839E834A0C5B1CE985FA85EA0DFB1DF7
:101FF000EF87F88B8F8198858A0D9B1D8F8398873B
:10200000EB85FC85EE16FF0689F6D694C7948B8186
:102010009C8101978B839C83892B09F0B0CF6981C8
:102020007A81C1016096CDBFDEBFDF91CF911F9154
:102030000F91FF90EF90DF90CF90BF90AF909F9067
:102040008F907F906F905F904F903F902F900C9467
:10205000610FF801608171818D859E850E947C0CE5
:102060009C01EF85F88980819181821B930B97FDFC
:102070001CC0F80180839183EF85F889808191816C
:10208000280F391F2130F0E33F0794F4EF85F889DA
:1020900020833183FFEF6F1A7F0A8F85988902961C
:1020A0008F87988B0E5F1F4F8FCF8F5F9F4CE1CF35
:1020B00021503043EBCFEF92FF920F931F93CF93BA
:1020C000DF938B01EC017C018CEFF81AF80185910C
:1020D0009491699179910E947C0CFE0132978083E2
:1020E00091830E5F1F4FCE15DF0581F7DF91CF91F2
:1020F0001F910F91FF90EF900895CF92DF92EF9292
:10210000FF920F931F93CF93DF93EC017B018A0122
:102110006C018CEFD81A89919991F7012191319135
:102120007F01820F931FF801819391938F010E9489
:10213000C10CF801329780839183CC15DD0559F7E6
:10214000DF91CF911F910F91FF90EF90DF90CF9093
:102150000895AC01FB0190E080E0DC0123E0B6953E
:10216000A7952A95E1F7A40FB51F2C9130E0BC018B
:102170006770772702C0359527956A95E2F720FFAB
:102180000AC020813181B901785E6230A0E37A070C
:1021900048F46083718332968F3F21E0920739F0D3
:1021A0000196DBCF2150384120833183F4CF08954D
:1021B0004F925F926F927F928F929F92AF92BF9257
:1021C000CF92DF92EF92FF920F931F93CF93DF9303
:1021D0002C01D62FC72F3A015901680170E060E049
:1021E0008D2F9C2F0E945D0D70E060E0C3010E9466
:1021F0005D0D68EA78E08D2F9C2F0E94990F68EAA8
:1022000078E0C3010E94990FED2EFC2E8301D0E0EF
:10221000C0E0D7018D909D907D01F501EC0FFD1F71
:1022200065917491C4010E947C0C9C01F70192930A
:102230008293D8018D919D918D01280F391F2130F6
:10224000B0E33B0710F02150304320833183F60187
:10225000EC0FFD1F65917491C4010E947C0CF80184
:102260003297808391832296C115E4E0DE0789F6D8
:1022700068EA74E0C3010E94390E61E070E0C301B6
:102280000E945D0DB301C201DF91CF911F910F91AB
:10229000FF90EF90DF90CF90BF90AF909F908F9086
:1022A0007F906F905F904F900C94A910CF93DF9325
:1022B0009B01FC0190E080E061E070E04191519170
:1022C0005C504115584198F4DC0143E0B695A79560
:1022D0004A95E1F7A20FB31FAC0147705527EB01F8
:1022E00001C0CC0F4A95EAF74C914C2B4C938F3F91
:1022F000A1E09A0711F00196E1CFDF91CF91089507
:10230000EF92FF920F931F93CF93DF938C01D62F01
:10231000C72F7A01B9018D2F9C2F0E945B1068EAAC
:1023200074E08D2F9C2F0E94390E4D2F5C2FB7012A
:102330008D2F9C2F0E947D10B8018D2F9C2FDF9137
:10234000CF911F910F91FF90EF900C945611CDB744
:10235000DEB7C054D840CDBFDEBF88E080934506CD
:10236000809341061092A7089CE09093A6081092D3
:10237000A30893E09093A5088093A40808EA10E1CD
:1023800028EA3CE0AE014F5F5F4FBE016F5F7B4FBD
:10239000CE018F5F974F0E94D81028EA34E1AE013A
:1023A0004F5F5F4FBE016F5F7B4FCE018F5F974FD7
:1023B0000E948011FE01EF5FF74FCE018F5F954FB6
:1023C00021913091A10835FFFCCF2093A008E81798
:1023D000F907B1F790E080E0C05CD74FCDBFDEBF1A
:0623E0000895F894FFCF00
:00000001FF
