:100000000C9442070C9468070C9468070C946807DA
:100010000C9468070C9468070C9468070C946807A4
:100020000C9468070C9468070C9468070C94680794
:100030000C9468070C9468070C9468070C94680784
:100040000C9468070C9468070C9468070C94680774
:100050000C9468070C9468070C9468070C94680764
:100060000C9468070C9468070C9468070C94680754
:100070000C9468070C9468070C9468070C94680744
:100080000C9468070C9468070C9468070C94680734
:100090000C9468070C9468070C9468070C94680724
:1000A0000C9468070C9468070C9468070C94680714
:1000B0000C9468070C9468070C9468070C94680704
:1000C0000C9468070C9468070C9468070C946807F4
:1000D0000C9468070C9468070C9468070C946807E4
:1000E0000C9468070C9468070C9468070C946807D4
:1000F0000C9468070C9468070C9468070C946807C4
:100100000C9468070C9468070C9468070C946807B3
:100110000C9468070C9468070C9468070C946807A3
:100120000C9468070C9468070C9468070C94680793
:100130000C9468070C9468070C9468070C94680783
:100140000C9468070C9468070C9468070C94680773
:100150000C9468070C9468070C9468070C94680763
:100160000C9468070C9468070C9468070C94680753
:100170000C9468070C9468070C9468070C94680743
:100180000C9468070C9468070C9468070C94680733
:100190000C9468070C9468070C9468070C94680723
:1001A0000C9468070C9468070C9468070C94680713
:1001B0000C9468070C9468070C9468070C94680703
:1001C0000C9468070C9468070C9468070C946807F3
:1001D0000C9468070C9468070C9468070C946807E3
:1001E0000C9468070C9468070C9468070C946807D3
:1001F0000C946807169D663815B5D2C5338FD49315
:1002000042BFC758911484193367F3136BC0FE8D36
:100210001F875BDD5762D68790072E405BB8442B63
:1002200097F1A81AAE94F7B098016AC1AEF5322CD6
:10023000C71608A46B1139E86300695DD9CC4B2C53
:100240007D82AE5ADA7B2067E76736E14A33C67AA9
:10025000C11B2F5EF0D26A55718015067D9967B675
:10026000F707CC5DC017FC28AC8EFF15FAED55D30F
:100270001B444D34A0BB6CD8FD4174E9EAAC0023AB
:1002800033C08313FE94A61B57461C3BE176D7AEC2
:10029000FF4C69E12EB9B53DDB01EC4DFFAB354FAD
:1002A000D93335FFD75408A8FFD9C49D2062EBBAD3
:1002B00059D4E12BFFEF8AD23665A37F9AD3680227
:1002C000FFF93CEDF2365A71C3296987FFFD5949A0
:1002D000AF8EFDE25FF27E22FFFF021D5770A7ADD9
:1002E00084CB46BAFFFFA56824BF3ADB92CFB26F3A
:1002F000FFFFE12B2F904C12837B15EFFFFFF5FEE4
:100300006D8AA4717659F8B3FFFFFCE74E4E01DA0F
:100310009FCCDC01FFFFFF162075DD64FFB9D67F9F
:10032000FFFFFFBE3893D24D60CF0734FFFFFFEED3
:100330005D53C6EB660F6277FFFFFFFB7E546435AB
:100340007C3244ABFFFFFFFEE70785D4687C662F55
:10035000FFFFFFFFBEC97A2B8FF2DE2BFFFFFFFFEF
:10036000F1938E36E200B45DFFFFFFFFFCF5CAA4F7
:10037000B1CF267EFFFFFFFFFF63B8E623F9766F5C
:10038000FFFFFFFFFFE21926B5A65883FFFFFFFF1F
:10039000FFFA8C8BFA0B21E4FFFFFFFFFFFF0DA498
:1003A000A2A3E013FFFFFFFFFFFFD7E67D64B8893C
:1003B000FFFFFFFFFFFFF9ADEF92368CFFFFFFFF5E
:1003C000FFFFFF0D0B5B09EBFFFFFFFFFFFFFFDDF3
:1003D0003FDDC6CFFFFFFFFFFFFFFFFB43EEC5037F
:1003E000FFFFFFFFFFFFFFFF62B2E2E4FFFFFFFF3F
:1003F000FFFFFFFFEC8E172CFFFFFFFFFFFFFFFF4C
:10040000FDB5E2EAFFFFFFFFFFFFFFFFFFBE44F87D
:10041000FFFFFFFFFFFFFFFFFFF8FAA2FFFFFFFF55
:10042000FFFFFFFFFFFF4925FFFFFFFFFFFFFFFF6C
:10043000FFFFEE48FFFFFFFFFFFFFFFFFFFFFE5D37
:10044000FFFFFFFFFFFFFFFFFFFFFFDAFFFFFFFFE1
:10045000FFFFFFFFFFFFFFFCFFFFFFFFFFFFFFFFAF
:10046000FFFFFFFF0000CA1093035D142607F0177B
:10047000B90A831B4C0E1501DF11A80472153B0845
:100480000519CE0B0100370D85074419BA1BC006AC
:10049000B01A0F028E094D096100AD15580A5A08AD
:1004A0002113AB185E1B2515FB18ED11020758042C
:1004B0004912A2146D01CB16460EC10AE1086E0363
:1004C000AC134A0135147D0B790D1002D60A35178D
:1004D0007706B91BF709AE10D4093804410B031B8A
:1004E000F300CA00080C6C10251BFF11B2064C1B50
:1004F000CD10A5099C18AE16E21AB7029B18770911
:100500005D137407B819351926023807EC0737064A
:10051000A0070516E013601C6504C40E6318881359
:100520005312C3021B0C791BFF13FB116F178705B6
:10053000CC0DC112201A5F13140481181C0B201259
:10054000C416161AC605001D6C0CBC118718340F92
:10055000FE12350CFE13C404F413A3161310010C81
:10056000D808830470038D115410DB0033063B1D43
:10057000F215540B0807A01765033516510B6C1CB8
:100580003F01FD0E5B04A202300D821B180B4619C1
:10059000B116090F170206136D025A0FC80BC80ACD
:1005A000F5193515710016179909A504B20CA70C99
:1005B0004C0F98168B1DDA00D00C0C13B21C9B0D3F
:1005C00049011F1BE91BC51B0F1464138014790C10
:1005D0005D07BD065B096F19EF064C1779062618F3
:1005E0003E08B10919030208371609174E180E0CF8
:1005F0006F0A410CE20F90186F00A91A870BEE15D5
:100600004011281DAD162F163319DC07BE0BA71C91
:10061000C50A9508BE11020E44098815A70783185C
:10062000D91CEB12D819071CBE029D050F19300CFE
:100630008415E31B9619F61985104D125819BF1031
:100640005E00090C8C10CB14971241016E0E481DF0
:1006500089171213641CFB02D70EA8066C0A9D02B0
:100660008013EA13511693067E17BA173B0BBB078C
:10067000D70F381DD308731C69049E072710440642
:100680003709C31D0100CA10BD047C16F21B5103BB
:10069000411747025605E00AA715A9135408A01DE3
:1006A000B4147314B71C550A931A20154013BB0FCA
:1006B0003607941C5F09B80BA919FF16140C060520
:1006C000DC08A3028D16A40A8A1466054A1B1F03C0
:1006D000530765055C14340DB5024F17020CDC029C
:1006E000950DF911371D0E1DFE02C012C9192D14EA
:1006F000530D0A1448028A17CC062B13F11B8810DD
:100700008412CC09040FC21C9501B012CC079C1AAC
:100710006106F916AD120F08C600CE17261DAD0DE5
:10072000740C911A7E1929150012EE0D5E070D0A40
:100730003D19030ACC11030BCD0E7A05450C95111A
:1007400001013B18EB033D07E10BE5128005ED19B4
:10075000A20AE103400B35107A189206060C020A31
:100760008802E6113E1BAE0B790A9E053D0F9C19CF
:10077000A101210AFC076116CA171516C916DB1B51
:10078000CC0449043E00CA14BD17DA0D631698194B
:100790008E012E15C9002A0E4616C612470683067C
:1007A0006E17B007170A810A641B951359172A0F91
:1007B000061B9D01EF0A7806B900930FC01C6A0B57
:1007C0003609750DF811A31D420DA904B40B7C0D5B
:1007D0000B046B041E027D08D111F2046418431B44
:1007E000FA012904160B28017E055A167908BD1452
:1007F000FF0F430C6C153C135A0143122516CE040F
:10080000D2075407D900C10C13087A125803921D5D
:1008100071051F0EC0119213F311B305F806CA0734
:10082000FF15E81A5014C315DB058817B506121713
:100830009204A6144417A416881181099D0AF2098E
:100840003C021802E202B81C66104F01F50A311191
:10085000271D76006907B50E5A114F115C196814EF
:10086000EB06901DCC080C0439133912A70E941B0B
:10087000FB0AEA1BF80E5007BB04E9127F02D110F5
:100880005F1BA6198F119F05F002000CA01A9D0D89
:10089000230D49033E13F5177F0C38147F194802C6
:1008A000DB19891AB21A0B0A5B16F606470468129E
:1008B000BB14600F58009D198412200829071500E9
:1008C00093116607670C5B0B201095171716220112
:1008D000581248017113580EBF1539181E15FA0A1F
:1008E000261032133A0FBB171A0E68091A020F1D91
:1008F0003A153C10EC12D502A61B4501BD0025059A
:100900003C04470E7D15A60FB9157612140D931BE6
:10091000180DBE0000017407DB14EC1BAC1D89121E
:100920003D0E4A065E04580E240D351D2804A30C06
:10093000F202E211A118481398008115D117FC0E9C
:10094000941D8E17F51BA80DE30049155E06B50B27
:100950005D176C045115AB0A04029F0C9217500BE3
:10096000A9077217B208C5036405D20C0512A014BA
:10097000DB060314770A6807E708E5165301A61695
:10098000E109EC07A017A8078A13C011550B290F1E
:100990000C1AE41B4A07C602140C5717B40BF808CC
:1009A0006A13BE014A017F067A05040FF504BD12E1
:1009B0003D18F001000BA3017C16260951092316EE
:1009C00040126C08A107870E4303F100C009D3163B
:1009D000C917711AB4084C05E71CE207CF03190DBB
:1009E000BE0AED165F1C6C0B47052718810E6C07BD
:1009F0002717DA0CF509CC121E0896127B19F8128B
:100A0000A304E4139E1CE21A740ECD0CD41AE11B4D
:100A1000F3089E048004B70CE4100202F40F3611B0
:100A2000D413990BCA08C6134E13551D540D9108C3
:100A30006619041C9E142A123F015303C313191D87
:100A4000601C490F3F098D0FF8128805DB18121B37
:100A50005511321394142218C0171214D906DE0847
:100A6000F617DA05061DFE00450A1A0BB5174916DA
:100A70008D1AA5117A10B215841B1B167D00E0009B
:100A8000F4185914FA0D1006750F9E0DD70555046C
:100A90008F0AAB13E8007E16740C57067819910A7A
:100AA0009902F209C516840E0B1173171301470E34
:100AB0006B1A79112912C81D2B11A814ED049F116E
:100AC000570B58084C0E2F09D707B102DC040E1241
:100AD000941C0B007A074E1092192F0BE610B600EB
:100AE000FA1A050855176317600DD005440A190056
:100AF0002614191B950C1D17D906F71DDD07811D3E
:100B00003D104A0A381324127A0D4A001911881729
:100B100001122D0F190152149118D31000108109E0
:100B2000FF01DB042D1AB31C0F017A04C413F8195A
:100B3000C3039E033A11C01D181CB4039F13850CF8
:100B40001A1A860418049109CB07900DAB15E01909
:100B5000680C5E18B511040BC514B4146410D50AE2
:100B6000B917961CCD113E16A506D6094B0BDC0114
:100B7000A4182910C80F5E19CA1DA90C850A141BD8
:100B8000B6157F1B900E1314C40727110C10C5084F
:100B9000E00DCE0BD813C110F906B2026E1CEE08A0
:100BA0006E0987122B1D75003D152718A60BAC1A70
:100BB0003D037F071901AE12410C1307CF00C90393
:100BC00047110803DF1C86137702C201F202DF0619
:100BD000F40E2E0A600B2E0B850904135403E40B4C
:100BE000B8010208101ABD00C21AF205C710791127
:100BF00063160E16BD07C01183163B171F1A4D1240
:100C000022092B17170278079F1C5C1D9806AE0F50
:100C1000D31A050F890579076419E50DE60B7803EA
:100C20000917EF0A48139612A20C26119211AA096D
:100C30000C0AFB1DD9188E0D020414173202441839
:100C4000C31B02098716DA12871B041CD11920174F
:100C5000F11C4D175C11E80EBE0D791D3005051213
:100C60003C0ED514FA0BBB0CB50A1310F0147E1A07
:100C7000AA0711090805EE04F618A7055617531B15
:100C80008B042117A30F001168007D0C930E2B0C11
:100C9000A4145D052D026007C50AA800F40A2818EF
:100CA0008808351DC40CCE0E2E178F1AD213571379
:100CB0000C144E12BA0AA61C8A1CFB164D10BB035C
:100CC000EE093219EE11800FB814A70C0A037B0449
:100CD00099147A11ED13A70E4D1CF71AD0072F0F98
:100CE0004917A5083E1B500D6102A10B510AD817E8
:100CF000FC1C1907F70F2416C703631A691C7E0032
:100D0000521B7E09470A08017615481DCA10841730
:100D100027038C06E113B6119801850E5007721B4C
:100D20008E05B31C3B11AB12770EBF037106A703F0
:100D3000DA0CA81407012A138F16B40152120015F9
:100D40005111E207C7028C1B020BEF141E1CE41B9F
:100D50000215F80B00124408D602B017A100AA1A17
:100D60002911E1048E00841BCA09CF05670592187A
:100D70003702F7064F12F11009020C0DC219341791
:100D8000791756072905D012F40AC21D86122804C5
:100D90005B1CD30D7C15F5189502AE00060E8E0A6D
:100DA0007D11631AFB033606A006220CCA1DC2027F
:100DB0006A194E11A30A5309CE147307730FD60A8A
:100DC000D0112D0ACD03E7018A0FAB177B00D71B8B
:100DD0008012A407C40C521C271A6216C112841771
:100DE000130A5317B210F318440EF20F2E00E70C3B
:100DF000D215C20A6502BE0BE809D70C7910E815B6
:100E00008014BA02F81A3C16A800EE136102C5124B
:100E1000F5180D1A6308D9141504FF098F1D6616FD
:100E2000560D6502E101901DC507111D72015E0896
:100E30009711CC1B1E077F198416EF178D10DE1635
:100E40001909A20D3B0183061314D014830E8E01E1
:100E500004027311341C1D18410E5A0DDB10111DB4
:100E6000000A8912ED18AB04C71BB008D213A619EB
:100E7000D80EC01ABF06AE1DA810A314C3063801B1
:100E8000860F3E0C11241FBECFEFCDBFDFE3DEBFC8
:100E900000E00CBF18BE19BE1ABE1BBE10E2A0E0D7
:100EA000B0E2E6ECF9E100E00BBF02C007900D9262
:100EB000A030B107D9F71BBE20E2A0E0B0E201C02C
:100EC0001D92A032B207E1F70E94970C0C94E10C3E
:100ED0000C94000021E03EE1813093071CF0821B5E
:100EE000930B03C0239520602A95089501C00895AF
:100EF000869F9001979FA001969F6627300D411D08
:100F0000561F879F300D411D561FBA017695679574
:100F1000CA01A32FAA0F881F991FAA0F881F991F04
:100F2000AA0F881F991F680F791F690FAA277A1FB8
:100F3000BEE1B69F261B370B3019B31718F029F402
:100F4000213018F021503B0BF8CF1124822F932F22
:100F50000895BC0140E150E280E090E20E94BE07AB
:100F6000E0E0F0E280819181A281B3810196A11D30
:100F7000B11D80839183A283B38308959C01CB012B
:100F8000BA01405F5F4FFB016F5F7F4FE081E093ED
:100F9000C30046175707B9F7A901405F5F4FF90132
:100FA0002F5F3F4F60816093C20042175307B9F72C
:100FB0002091C0002F7620682093C0002091C100AE
:100FC0002178E1F32091C10027FD0DC09C01205F35
:100FD0003F4FFC0101964091C2004083281739071A
:100FE000C1F781E0089580E00895AF92BF92DF924B
:100FF000EF92FF920F931F93CF93DF93782F5A01B5
:10100000A901D8011C9280E0871788F58A0130E099
:1010100020E090E07501689FE00CF11C112422C0D3
:10102000F701E20FF31FE4919D1508F4922FE801F8
:10103000F9918E01FE1790F49F5F9C93240F351F4A
:10104000F901918197FF8195DF91CF911F910F91C8
:10105000FF90EF90DF90BF90AF9008952F5F3F4FCC
:10106000EF1718F0D22E2617D8F28F5FCDCF80E081
:10107000EBCF9F92AF92BF92CF92DF92EF92FF920F
:101080000F931F93CF93DF93CDB7DEB7E197CDBF1B
:10109000DEBF6B0119AA7C015C012EEFB21A8EEF44
:1010A000982E83E2891568F4CE0101960E94A90763
:1010B000CE0141960E94A907CE0181960E94A90700
:1010C000912C21E030E02C0F3D1F290D311D8E01A8
:1010D0000F5C1F4F44EF51E06CE084E30E94F50782
:1010E00099A9990E082E000C990BE1E0CE16D104B7
:1010F00059F4F70120813181820F931F8130FEE185
:101100009F0710F081509E41F70180839183F2E0A8
:10111000EF0EF11CEA14FB0421F6E196CDBFDEBF11
:10112000DF91CF911F910F91FF90EF90DF90CF90C3
:10113000BF90AF909F900895EF92FF920F931F93EF
:10114000CF93DF938B011395EC017C018EEFF81A9E
:10115000F80185919491688179814A815B819B0135
:10116000240F351F2130EEE13E07CCF4288339836C
:10117000641B750B77FF02C06F5F714E0E9478078A
:101180008A839B830E5F1F4F2496EC16FD0601F7A2
:10119000DF91CF911F910F91FF90EF900895215013
:1011A0003E41E4CFAF92BF92CF92DF92EF92FF9297
:1011B0000F931F93CF93DF93FB013296A590B490CA
:1011C000EC018C011395680169917991F801819185
:1011D00091918F01860F971FFE01329781302EE18A
:1011E000920704F580839183F801929182917F01A7
:1011F000681B790B77FF02C06F5F714EC5010E94BB
:101200007807F70180839183CC15DD05E9F6DF913E
:10121000CF911F910F91FF90EF90DF90CF90BF90F3
:10122000AF90089581509E41DDCF2F923F924F9213
:101230005F926F927F928F929F92AF92BF92CF9266
:10124000DF92EF92FF920F931F93CF93DF93CDB76F
:10125000DEB72A97CDBFDEBF8C016B010E949C08D0
:1012600026E030E02D833E8380E490E089839A83FA
:1012700072E0A72EB12C4501AA0CBB1C89819A8172
:10128000880F991FF601E80FF91FEB83FC83712C7F
:10129000612C512C412CEB81FC81259134912F83C1
:1012A00038877401EE0CFF1CE00EF11EC301880F9D
:1012B000991F800F911F89879A8713012814390479
:1012C000B8F16A0C7B1C3FEF431A530A8B819C8157
:1012D00002968B839C838A0C9B1CE981FA814E16B3
:1012E0005F06C9F692013695279529833A838D8149
:1012F0009E8101978D839E83892B09F0BCCFB60117
:10130000C8012A96CDBFDEBFDF91CF911F910F910B
:10131000FF90EF90DF90CF90BF90AF909F908F9015
:101320007F906F905F904F903F902F900C94D208D9
:10133000E985FA8560817181F70180819181860F4D
:10134000971F8130FEE19F07FCF4E985FA858083D1
:101350009183F70180819181681B790B77FF02C02F
:101360006F5F714E8F8198850E947807F701819396
:1013700091937F01FFEF2F1A3F0A29853A852E5F4F
:101380003F4F29873A879ACF81509E41DECFCF9237
:10139000DF92EF92FF920F931F93CF93DF93EC01B5
:1013A0008C0113957801CC24C3942EE1D22ED80160
:1013B000ED91FD918D01F7FF49C0662777276E1BE0
:1013C0007F0BE13FFF4FD4F58AEC90E10E94780754
:1013D0009C01C601821B930B9C0188819981821B11
:1013E000930BF801329797FD42C0808391838081EF
:1013F000918197FF04C08F5F914E80839183888194
:101400009981280F391F21309EE139079CF52883E7
:1014100039838881998197FF04C08F5F914E8883BB
:1014200099832296EC16FD0611F6DF91CF911F915C
:101430000F91FF90EF90DF90CF900895FB01EE0F9A
:10144000FF1FEC59FB4F25913491C3CFE031F105DB
:101450003CF0BF018AEC90E10E9478079C01BDCF6F
:10146000EE0FFF1FEC59FB4F25913491B6CF8F5FE4
:10147000914EBBCF21503E41CACFEF92FF920F93C6
:101480001F93CF93DF938B011395EC017C012EEF1B
:10149000F21AF801859194916A817B810E94780704
:1014A000AC01888199819C01241B350B37FD17C045
:1014B0002A833B83840F951F81302EE1920794F499
:1014C000888399830E5F1F4F2496EC16FD0609F75B
:1014D000DF91CF911F910F91FF90EF9008952F5FB3
:1014E000314EE6CF81509E41EBCF2F923F924F92EB
:1014F0005F926F927F928F929F92AF92BF92CF92A4
:10150000DF92EF92FF920F931F93CF93DF93CDB7AC
:10151000DEB76097CDBFDEBF1C0169837A830E946E
:10152000C70986E090E08B839C8332E0832E912C68
:1015300040E4C42ED12C8B869C86880C991CE981B2
:10154000FA81E80DF91DED83FE835601AA0CBB1C40
:101550002F86388AC60101978F839887512C412C9A
:10156000F12CE12CED81FE81859194918D879E87F0
:10157000EF85F889EA0DFB1DE987FA878F013201B3
:10158000EF81F885E615F70508F03FC0FFEFEF1A89
:10159000FF0A8D819E8102968D839E834A0C5B1C7F
:1015A000E985FA85EA0DFB1DEF87F88B8F81988519
:1015B0008A0D9B1D8F839887EB85FC85EE16FF06B1
:1015C00089F6D694C7948B819C8101978B839C83E9
:1015D000892B09F0B0CF69817A81C1016096CDBFB6
:1015E000DEBFDF91CF911F910F91FF90EF90DF90C1
:1015F000CF90BF90AF909F908F907F906F905F90B3
:101600004F903F902F900C943D0AF80160817181BA
:101610008D859E850E9476079C01EF85F8898081E3
:101620009181821B930B97FD1CC0F80180839183ED
:10163000EF85F88980819181280F391F2130FEE1E3
:101640003F0794F4EF85F88920833183FFEF6F1A09
:101650007F0A8F85988902968F87988B0E5F1F4F20
:101660008FCF8F5F914EE1CF21503E41EBCFEF9274
:10167000FF920F931F93CF93DF938B01EC017C01BB
:101680008EEFF81AF80185919491699179910E94F1
:101690007807FE013297808391830E5F1F4FCE152E
:1016A000DF0581F7DF91CF911F910F91FF90EF90B0
:1016B0000895CF92DF92EF92FF920F931F93CF93F3
:1016C000DF93EC017B018A016C018EEFD81A8991BE
:1016D0009991F701219131917F01820F931FF801B8
:1016E000819391938F010E946A07F801329780835A
:1016F0009183CC15DD0559F7DF91CF911F910F91A3
:10170000FF90EF90DF90CF9008956F927F928F922D
:101710009F92AF92BF92CF92DF92EF92FF920F9380
:101720001F93CF93DF93D62FC72F3A01590168013A
:1017300070E060E08D2F9C2F0E94390870E060E01F
:10174000C3010E94390864E876E08D2F9C2F0E9427
:10175000750A64E876E0C3010E94750AED2EFC2E3E
:101760008301D0E0C0E0D7018D909D907D01F5010F
:10177000EC0FFD1F65917491C4010E9478079C01D4
:10178000F70192938293D8018D919D918D01280F3D
:10179000391F2130BEE13B0710F021503E4120832C
:1017A0003183F601EC0FFD1F65917491C4010E9415
:1017B0007807F8013297808391832296C115E2E081
:1017C000DE0789F664E874E0C3010E94150961E050
:1017D00070E0C301DF91CF911F910F91FF90EF90C7
:1017E000DF90CF90BF90AF909F908F907F906F9041
:1017F0000C9439080F931F93CF93DF93D62FC72FE5
:101800008A01B9018D2F9C2F0E94370B64E874E088
:101810008D2F9C2F0E9415094D2F5C2FB8018D2F05
:101820009C2FDF91CF911F910F910C94590BAC011C
:10183000FB0190E080E0DC0123E0B695A7952A95B6
:10184000E1F7A40FB51F2C9130E0BC01677077273A
:1018500002C0359527956A95E2F720FF0AC02081DE
:101860003181B901715F6130AEE17A0740F4608384
:10187000718332968F3F910539F00196DCCF21506C
:101880003F4020833183F5CF0895EF92FF920F936D
:101890001F93CF93DF93D82FC92F7A010E94850B16
:1018A000B7018D2F9C2FDF91CF911F910F91FF904A
:1018B000EF900C94170CCF93DF939B01FC0190E009
:1018C00080E061E070E041915191405857404115EE
:1018D0005F4098F4DC0143E0B695A7954A95E1F79F
:1018E000A20FB31FAC0147705527EB0101C0CC0F0D
:1018F0004A95EAF74C914C2B4C938F3F910511F090
:101900000196E1CFDF91CF9108950F931F93CF936D
:10191000DF938C01D62FC72F0E94FA0BB8018D2FB1
:101920009C2FDF91CF911F910F910C945B0CCDB741
:10193000DEB7C052D440CDBFDEBF88E080934506FD
:10194000809341061092A7089CE09093A6081092FD
:10195000A30893E09093A5088093A40804E81AE0F4
:1019600024E838E0AE014F5F5F4FBE016F5F7D4FEF
:10197000CE018F5F9B4F0E94450C24E83CE0AE01F6
:101980004F5F5F4FBE016F5F7D4FCE018F5F9B4FFB
:101990000E94850CFE01EF5FFB4FCE018F5F9A4FD7
:1019A00021913091A10835FFFCCF2093A008E817C2
:1019B000F907B1F790E080E0C05EDB4FCDBFDEBF3E
:0619C0000895F894FFCF2A
:00000001FF
