:100000000C94D8040C94FE040C94FE040C94FE048E
:100010000C94FE040C94FE040C94FE040C94FE0458
:100020000C94FE040C94FE040C94FE040C94FE0448
:100030000C94FE040C94FE040C94FE040C94FE0438
:100040000C94FE040C94FE040C94FE040C94FE0428
:100050000C94FE040C94FE040C94FE040C94FE0418
:100060000C94FE040C94FE040C94FE040C94FE0408
:100070000C94FE040C94FE040C94FE040C94FE04F8
:100080000C94FE040C94FE040C94FE040C94FE04E8
:100090000C94FE040C94FE040C94FE040C94FE04D8
:1000A0000C94FE040C94FE040C94FE040C94FE04C8
:1000B0000C94FE040C94FE040C94FE040C94FE04B8
:1000C0000C94FE040C94FE040C94FE040C94FE04A8
:1000D0000C94FE040C94FE040C94FE040C94FE0498
:1000E0000C94FE040C94FE040C94FE040C94FE0488
:1000F0000C94FE040C94FE040C94FE040C94FE0478
:100100000C94FE040C94FE040C94FE040C94FE0467
:100110000C94FE040C94FE040C94FE040C94FE0457
:100120000C94FE040C94FE040C94FE040C94FE0447
:100130000C94FE040C94FE040C94FE040C94FE0437
:100140000C94FE040C94FE040C94FE040C94FE0427
:100150000C94FE040C94FE040C94FE040C94FE0417
:100160000C94FE040C94FE040C94FE040C94FE0407
:100170000C94FE040C94FE040C94FE040C94FE04F7
:100180000C94FE040C94FE040C94FE040C94FE04E7
:100190000C94FE040C94FE040C94FE040C94FE04D7
:1001A0000C94FE040C94FE040C94FE040C94FE04C7
:1001B0000C94FE040C94FE040C94FE040C94FE04B7
:1001C0000C94FE040C94FE040C94FE040C94FE04A7
:1001D0000C94FE040C94FE040C94FE040C94FE0497
:1001E0000C94FE040C94FE040C94FE040C94FE0487
:1001F0000C94FE041FFFFFFFFFFFFFFFFFFFFFFF49
:100200005CEF2C248806C827161ABD189186506BFF
:10021000CC065F204344C125BAAB5F82BCDB43B34D
:100220005D62CE65D7D9769FAD23BCB11411F5516F
:10023000EA9BE2F4D6DDB5ED7E1526D5F58A994721
:100240004919B8C9E7D2A137FB5117812753B7B86D
:10025000E8A773D9FE151BD0928596D3148CB49F52
:10026000FF487508BA9F720807E44D00FFC1668613
:10027000270CFC821A5409BEFFEC8AC3C159431BE8
:10028000FDC99BFDFFFA7DF4B6E92C28A6FCD4C07D
:10029000FFFE94BB4554B5AC4B869C62FFFFAADEC3
:1002A0001B1CAA95EC72329EFFFFEDDC1C6436DC51
:1002B000337F6316FFFFFC7C9DC2569AD95E7B2C70
:1002C000FFFFFF61BC337FED8E0B132AFFFFFFE6BC
:1002D000B3CF05F705B9D725FFFFFFFC53EA610E41
:1002E00099E8F72BFFFFFFFF841943DEC6E2F0D742
:1002F000FFFFFFFFF12D07EC4745913CFFFFFFFF9C
:10030000FE63E348EE62D420FFFFFFFFFFD762C722
:10031000064A0C6CFFFFFFFFFFFC5E37C672F3A6B8
:10032000FFFFFFFFFFFFB48F6ABEF8B0FFFFFFFFC4
:10033000FFFFFA72697598CEFFFFFFFFFFFFFFA175
:1003400012F5A30DFFFFFFFFFFFFFFFA4016ED3D83
:10035000FFFFFFFFFFFFFFFFAF22D9AFFFFFFFFF50
:10036000FFFFFFFFFBF88681FFFFFFFFFFFFFFFF9F
:10037000FFD16385FFFFFFFFFFFFFFFFFFFE16FFBB
:10038000FFFFFFFFFFFFFFFFFFFFEDD3FFFFFFFFBB
:10039000FFFFFFFFFFFFFF62FFFFFFFFFFFFFFFF0A
:1003A000FFFFFFFAFFFFFFFFFFFFFFFFFFFFFFFF62
:1003B0001E04CE06C4053C09D403FB0E46096307A0
:1003C000FC0A6D0E000595022B0E01067208F6065A
:1003D0004C0976099F047B027F03BF09A801D80856
:1003E000960F360408027F0A7A0D220F07042503B0
:1003F0008300D0070E070804D001AC09500F36095E
:100400005A0BF3084C090F0071083B05C70BEC0AA7
:10041000C000720E24085409340F2B08670AD20258
:100420001B09D0025C0F0C01210C4807A408BC0F6B
:10043000600A450BA403D80A6400F8057709720224
:1004400036062F062E024C06890A0D01F302BF0D57
:10045000C908DD0C3A068104AB02A50A0F07C304E4
:100460003B05A807E30F41097A00D80F4F016B0C39
:10047000BF0EF901820E770D680F9B054F0F030F1A
:10048000BB0BEF0EC80D8803C9025B069E09100462
:10049000FD04AA01520AD70AB102AB0DAB0EDC0271
:1004A0003F0DC206DB066506520A5700FC0EEF033D
:1004B000DD0690049B0D8C08D50C22092E0CFC0344
:1004C0009E029809DA063A0DB307B5004B09E20817
:1004D0002D04EE013604A80ABF0941068502650A0B
:1004E000FA0D3900A10E4E0D2E0FAA032002940121
:1004F000980A6D08740240000808E40E210CA90C4B
:100500003F074E090C06E203DD072D07D20FD80284
:10051000FA0E2809B807C009D2013804E809340FD7
:100520008B0B8D0D8A02D10D1405620D11083C0351
:10053000A6026509C303B001AF0FAA07E4050D07C2
:1005400065063501870983060C0FEF0C7708D2008A
:10055000850D10012B03AF0D3A04B80A7001C000DD
:100560002703D003780278014609830E110333066E
:10057000B101BD0810083E0CBE0ADC02C5064B08DE
:10058000870EF40FAF043A0BF80D590ED6069403FC
:100590001906F30B6C0E08060C034300A40DDF0ACA
:1005A0002F034D069E0C93032E0EF20804014B0BF5
:1005B000F60D420E6F0D0D0CB403EA0AF90E040C91
:1005C000CF05350D83013D04EA014D08100DE00D06
:1005D000850D7A00AB0556092806B0089A06640C0A
:1005E000A907C2090F0429043106410ACB0F72077B
:1005F000E7079A006107460EA008700379037505A6
:10060000430AC402C40E1301AF07D806D60D0F0764
:10061000A5012801E208D00FDD0C850B21019D0901
:10062000EC040D04C5067E0AC30CF4090A08F005A3
:100630000005BE0E710E610398006B0DB202B70D7E
:10064000BF0E5D0D1F0264095900BD0DC50D1005DB
:1006500051002602D30632061302980AEF07B00BA8
:100660001807A105A008F002EE09300DB8057601C3
:10067000D305030D0209770DED03E508F302010A26
:10068000A400E30D0701710DD50A800EFE07A80D29
:100690009204CE043200EC024000500E750617089A
:1006A000FB0D950FE8086A06120DF9063B01AC0E2A
:1006B00085049F0B4806C10520003107D80915099C
:1006C000DF0A2B0A9F03700B990499025E0408024B
:1006D000A900EA09E7051902EE0ECF09B00FB50926
:1006E0002100280D3A0E740DED065F04810E1A03E9
:1006F0006406870FC6035107CC008B06B301D401F3
:10070000FC0CFE0B6508CD0D7703DC02B703D30D9F
:10071000090A1D0E47088F0EA0014806CC07F902F2
:100720008309CE022A0D920D0B046C0E7407D902B8
:100730007800ED0B9F07E70FC606400B790C0C0302
:10074000070A53086408F307500DA0038402490800
:1007500086006208180EC4058708F909E007140E20
:100760000208EA0A560FE607A20F5502C10CBE0F97
:10077000A70CD7058E088C02110EEF03E00C59036D
:10078000AD0376007309590A8A09D104490C16058C
:100790001C0E810496061D0369031102130A750CD1
:1007A0008009FA0F0303AC0F0C0E22031E057D0116
:1007B0000000000000000000000000000000000039
:1007C0000000000000000000000000000000000029
:1007D0000000000000000000000000000000010018
:1007E0000000000000000000000000000000000009
:1007F00000000000000000000000000000000000F9
:1008000000000000000000000000000000000000E8
:1008100000000000000000000000000000000000D8
:1008200000000000000000000000000000000000C8
:1008300000000000000000000000000000000000B8
:1008400000000000000000000000000000000000A8
:100850000100000000000000000000000000010096
:100860000000000000000000000000000000010087
:100870000000000000000000000001000000000077
:100880000000000000000000000000000000000068
:100890000000000000000000000000000100000057
:1008A0000000000000000000000000000000000048
:1008B0000000000000000000000000000000000038
:1008C0000000000000000100000000000000000027
:1008D0000000000000000000000000000000000018
:1008E0000000000000000000000000000000000008
:1008F00000000000000000000000000000000000F8
:1009000000000000000000000000000000000000E7
:1009100000000000000000000000000000000000D7
:1009200000000000000000000000000000000000C7
:1009300000000000000000000000000000000000B7
:1009400000000000000000000000000000000000A7
:100950000000000000000000000000000000000097
:100960000000000000000000000001000000000086
:100970000000000000000000000000000000000077
:100980000000000000000000000000000000000067
:100990000000000000000000000000000000000057
:1009A0000000010000000000000000000000000046
:1009B00011241FBECFEFCDBFDFE3DEBF00E00CBFD1
:1009C00018BE19BE1ABE1BBE10E2A0E0B0E2EEEEE9
:1009D000F3E100E00BBF02C007900D92A030B10719
:1009E000D9F71BBE20E2A0E0B0E201C01D92A03208
:1009F000B207E1F70E94A6090C94F5090C940000D7
:100A0000AA24979F802C869F602C112D969F100DF5
:100A1000811C879F100D811C912E8694979486943B
:100A2000979486949794869497941F70892D982D07
:100A3000880F991F890D981D860D911F9F3038F0E2
:100A400009F002C08D3F18F08D5F9F40F7CF0895E9
:100A50000F921F926F927F928F929F92AF92EF921E
:100A6000FF920F931F932F933F93AF93BF93CF9317
:100A7000DF93EF93FF93002777243327DC01FB01FB
:100A80007B012227200F270DB0F48D919C91659159
:100A900075910E940005EA01C20FD31FC20FD31F38
:100AA00069917881681B790BE0F43DEF630F3FE0BB
:100AB000731F332716C08D919C9165917591A0DFAE
:100AC000EA01C20FD31FC20FD31F69917881680F4B
:100AD000791F7F3030F009F002C06D3F10F06D5F7C
:100AE0007F406A93219678831197739451F61296FA
:100AF000F701039531F6FF91EF91DF91CF91BF910F
:100B0000AF913F912F911F910F91FF90EF90AF9078
:100B10009F908F907F906F901F900F9008950F92ED
:100B20001F922F926F927F928F929F92AF92EF922D
:100B3000FF920F931F932F933F93AF93BF93CF9346
:100B4000DF93EF93FF9330EC232E00277724332796
:100B5000DC01FB017B012227200F270DC8F02215A5
:100B6000B8F48D919C91659175914ADFEA01C20FAD
:100B7000D31FC20FD31F69917881680F791F7F300F
:100B8000E8F009F002C06D3FC8F06D5F7F4016C00D
:100B900022198D919C91659175910E940005EA0141
:100BA000C20FD31FC20FD31F69917881681B790BC5
:100BB00028F43DEF630F3FE0731F33276A932196BC
:100BC000788311977394721431F677241296F70193
:100BD0000395021501F6FF91EF91DF91CF91BF913F
:100BE000AF913F912F911F910F91FF90EF90AF9098
:100BF0009F908F907F906F902F901F900F900895EF
:100C00000F921F922F923F924F926F928F929F92CC
:100C1000AF92BF92CF92EF92FF920F931F932F93B9
:100C20003F93AF93BF93CF93DF93EF93FF9330E462
:100C3000232E31E0332EBB24CC2444243327DC0183
:100C4000FB017B01002722270B0D2C1D040D30F921
:100C5000231F2315D8F011F40215C0F0021923093F
:100C60008D919C91659175910E940005EA01C00FDC
:100C7000D21FC00FD21F69917881681B790BE0F4F5
:100C80003DEF630F3FE0731F332716C08D919C919A
:100C900065917591B5DEEA01C00FD21FC00FD21F5A
:100CA00069917881680F791F7F3030F009F002C0B8
:100CB0006D3F10F06D5F7F406A93219678831197A6
:100CC000439409F4689416F4421409F0BBCF442409
:100CD000E8941296F701B39409F4C394C31410F086
:100CE000B21409F0AFCFFF91EF91DF91CF91BF9197
:100CF000AF913F912F911F910F91FF90EF90CF9067
:100D0000BF90AF909F908F906F904F903F902F909B
:100D10001F900F900895482F4603202D312D442712
:100D200011200AF44A95682F6703300D411D632F87
:100D3000459567954595679545956795459567955B
:100D40003F70862F942F880F991F860F941F820F54
:100D5000931F11240895BC0140E150E280E090E22D
:100D60000E94C006E0E0F0E280819181A281B3811F
:100D70000196A11DB11D80839183A283B383089541
:100D80009C01CB01BA01405F5F4FFB016F5F7F4F5A
:100D9000E081E093C30046175707B9F7A901405F08
:100DA0005F4FF9012F5F3F4F60816093C200421790
:100DB0005307B9F72091C0002F7620682093C00018
:100DC0002091C1002178E1F32091C10027FD0DC0E1
:100DD0009C01205F3F4FFC0101964091C20040837F
:100DE00028173907C1F781E0089580E00895AF9290
:100DF000BF92DF92EF92FF920F931F93CF93DF93F7
:100E0000782F5A01A901D8011C9280E0871788F534
:100E10008A0130E020E090E07501689FE00CF11C51
:100E2000112422C0F701E20FF31FE4919D1508F48D
:100E3000922FE801F9918E01FE1790F49F5F9C9329
:100E4000240F351FF901918197FF8195DF91CF9193
:100E50001F910F91FF90EF90DF90BF90AF9008959A
:100E60002F5F3F4FEF1718F0D22E2617D8F28F5F63
:100E7000CDCF80E0EBCF7F928F929F92AF92BF92C7
:100E8000CF92DF92EF92FF920F931F93CF93DF9356
:100E9000CDB7DEB7E197CDBFDEBF4B016A0119AA1E
:100EA0007C01B12CA12C8EEF782EAC14BD0489F4FA
:100EB000E196CDBFDEBFDF91CF911F910F91FF90E3
:100EC000EF90DF90CF90BF90AF909F908F907F90EA
:100ED000089523E2271568F4CE0101960E94AB061F
:100EE000CE0141960E94AB06CE0181960E94AB06D0
:100EF000712C21E030E02C0F3D1F270D311D8E019C
:100F00000F5C1F4F44EF51E06CE085E20E94F70652
:100F1000282F89A9780E822F022E000C990B27FF0B
:100F200002C08350904FE1E08E16910449F4F7011E
:100F300020813181820F931F8E3FFFE09F0750F485
:100F4000F70180839183FFEFAF1ABF0A22E0E20E20
:100F5000F11CABCF8D5F9F40F3CFCF92DF92EF922A
:100F6000FF920F931F93CF93DF930F920F92CDB702
:100F7000DEB77A012DB73EB729833A83ADB7BEB746
:100F8000A058B140ADBFBEBF4DB75EB74F5F5F4F1A
:100F90008A01CDB6DEB6BFE7CB1ABEEFDB0AFA0197
:100FA00011921192EC15FD05D9F70E948F05F701FA
:100FB0000C151D0579F429813A812DBF3EBF0F9094
:100FC0000F90DF91CF911F910F91FF90EF90DF90E5
:100FD000CF900895D8018D919D918D01819391932A
:100FE000E7CFCF92DF92EF92FF920F931F93CF93B1
:100FF000DF930F920F92CDB7DEB77A012DB73EB7D0
:1010000029833A83ADB7BEB7B250ADBFBEBF4DB7AF
:101010005EB74F5F5F4F8A01CDB6DEB6BFEFCB1A2A
:10102000BDEFDB0AFA0111921192EC15FD05D9F71B
:101030000E942805F7010C151D0579F429813A81D4
:101040002DBF3EBF0F900F90DF91CF911F910F9159
:10105000FF90EF90DF90CF900895D8018D919D91F2
:101060008D0181939193E7CFCF92DF92EF92FF9220
:101070000F931F93CF93DF930F920F92CDB7DEB7ED
:101080007A012DB73EB729833A83ADB7BEB7A058D2
:10109000B240ADBFBEBF4DB75EB74F5F5F4F8A0175
:1010A000CDB6DEB6BFE7CB1ABDEFDB0AFA0111926F
:1010B0001192EC15FD05D9F70E940006F7010C15F9
:1010C0001D0579F429813A812DBF3EBF0F900F9005
:1010D000DF91CF911F910F91FF90EF90DF90CF9014
:1010E0000895D8018D919D918D0181939193E7CFC2
:1010F000CF93DF93DC01FB0190E080E04150510988
:10110000EC0123E0D695C7952A95E1F7CA0FDB1FBE
:10111000288130E0BC016770772702C0359527959C
:101120006A95E2F720FF0BC020813181B90162503E
:10113000784F6E3FCFE07C0740F460837183329636
:101140004817590739F00196DBCF2F5F37402083CE
:101150003183F5CFDF91CF9108956F927F928F9277
:101160009F92AF92BF92CF92DF92EF92FF920F9336
:101170001F93CF93DF933C01D62FC72F5A0149010C
:101180006701A70170E060E08D2F9C2F0E943B0754
:1011900080ECE816F10469F5A501B8018D2F9C2FAC
:1011A0000E94AD074D2F5C2FB4018D2F9C2F0E9404
:1011B000AD07A60161E070E08D2F9C2F0E943B07D8
:1011C000A60161E070E0C5010E943B07A601B501E0
:1011D000C301DF91CF911F910F91FF90EF90DF90AE
:1011E000CF90BF90AF909F908F907F906F900C9416
:1011F0007808E11481E0F80699F080E4E81681E0CF
:10120000F806B9F6A501B8018D2F9C2F0E9434086D
:101210004D2F5C2FB4018D2F9C2F0E943408C9CF15
:10122000A501B8018D2F9C2F0E94F1074D2F5C2F37
:10123000B4018D2F9C2F0E94F107BBCF0F931F93FA
:10124000CF93DF939B01FC0190E080E0C1E0D0E010
:1012500041505109619171916F5F73406E3F7740CA
:1012600098F4DC0163E0B695A7956A95E1F7A20FC3
:10127000B31FBC01677077278E0101C0000F6A950C
:10128000EAF76C91602B6C934817590711F001969F
:10129000E1CFDF91CF911F910F910895AF92BF924F
:1012A000CF92DF92EF92FF920F931F93CF93DF9332
:1012B0006C01D62FC72F5A01B9017801003C1105E6
:1012C000E9F44D2F5C2F8D2F9C2F0E94AD07ED2F41
:1012D000FC2FD50150E040E04E155F0521F5B60129
:1012E0008D2F9C2FDF91CF911F910F91FF90EF9049
:1012F000DF90CF90BF90AF900C941E09011581E054
:10130000180751F00034114011F74D2F5C2F8D2F2D
:101310009C2F0E943408DBCF4D2F5C2F8D2F9C2FEC
:101320000E94F107D4CF2D913D9180819181280FAA
:10133000391F2E3F8FE0380730F4208331834F5F11
:101340005F4F3296C9CF2D5F3F40F7CFCDB7DEB7A5
:10135000C052D440CDBFDEBF88E080934506809365
:1013600041061092A7089CE09093A6081092A3084B
:1013700093E09093A5088093A408E12CFF24F394B4
:1013800000EB15E020EB33E0AE014F5F5F4FBE0195
:101390006F5F7D4FCE018F5F9B4F0E94AD0800E0D5
:1013A00011E020EB37E0AE014F5F5F4FBE016F5F92
:1013B0007D4FCE018F5F9B4F0E944E09FE01EF5F74
:1013C000FB4FCE018F5F9A4F21913091A10835FFDD
:1013D000FCCF2093A008E817F907B1F790E080E070
:0E13E000C05EDB4FCDBFDEBF0895F894FFCF97
:00000001FF
