:100000000C9418040C943E040C943E040C943E048E
:100010000C943E040C943E040C943E040C943E0458
:100020000C943E040C943E040C943E040C943E0448
:100030000C943E040C943E040C943E040C943E0438
:100040000C943E040C943E040C943E040C943E0428
:100050000C943E040C943E040C943E040C943E0418
:100060000C943E040C943E040C943E040C943E0408
:100070000C943E040C943E040C943E040C943E04F8
:100080000C943E040C943E040C943E040C943E04E8
:100090000C943E040C943E040C943E040C943E04D8
:1000A0000C943E040C943E040C943E040C943E04C8
:1000B0000C943E040C943E040C943E040C943E04B8
:1000C0000C943E040C943E040C943E040C943E04A8
:1000D0000C943E040C943E040C943E040C943E0498
:1000E0000C943E040C943E040C943E040C943E0488
:1000F0000C943E040C943E040C943E040C943E0478
:100100000C943E040C943E040C943E040C943E0467
:100110000C943E040C943E040C943E040C943E0457
:100120000C943E040C943E040C943E040C943E0447
:100130000C943E040C943E040C943E040C943E0437
:100140000C943E040C943E040C943E040C943E0427
:100150000C943E040C943E040C943E040C943E0417
:100160000C943E040C943E040C943E040C943E0407
:100170000C943E040C943E040C943E040C943E04F7
:100180000C943E040C943E040C943E040C943E04E7
:100190000C943E040C943E040C943E040C943E04D7
:1001A0000C943E040C943E040C943E040C943E04C7
:1001B0000C943E040C943E040C943E040C943E04B7
:1001C0000C943E040C943E040C943E040C943E04A7
:1001D0000C943E040C943E040C943E040C943E0497
:1001E0000C943E040C943E040C943E040C943E0487
:1001F0000C943E041FFFFFFFFFFFFFFFFFFFFFFF09
:100200005CEF2C248806C827161ABD189186506BFF
:10021000CC065F204344C125BAAB5F82BCDB43B34D
:100220005D62CE65D7D9769FAD23BCB11411F5516F
:10023000EA9BE2F4D6DDB5ED7E1526D5F58A994721
:100240004919B8C9E7D2A137FB5117812753B7B86D
:10025000E8A773D9FE151BD0928596D3148CB49F52
:10026000FF487508BA9F720807E44D00FFC1668613
:10027000270CFC821A5409BEFFEC8AC3C159431BE8
:10028000FDC99BFDFFFA7DF4B6E92C28A6FCD4C07D
:10029000FFFE94BB4554B5AC4B869C62FFFFAADEC3
:1002A0001B1CAA95EC72329EFFFFEDDC1C6436DC51
:1002B000337F6316FFFFFC7C9DC2569AD95E7B2C70
:1002C000FFFFFF61BC337FED8E0B132AFFFFFFE6BC
:1002D000B3CF05F705B9D725FFFFFFFC53EA610E41
:1002E00099E8F72BFFFFFFFF841943DEC6E2F0D742
:1002F000FFFFFFFFF12D07EC4745913CFFFFFFFF9C
:10030000FE63E348EE62D420FFFFFFFFFFD762C722
:10031000064A0C6CFFFFFFFFFFFC5E37C672F3A6B8
:10032000FFFFFFFFFFFFB48F6ABEF8B0FFFFFFFFC4
:10033000FFFFFA72697598CEFFFFFFFFFFFFFFA175
:1003400012F5A30DFFFFFFFFFFFFFFFA4016ED3D83
:10035000FFFFFFFFFFFFFFFFAF22D9AFFFFFFFFF50
:10036000FFFFFFFFFBF88681FFFFFFFFFFFFFFFF9F
:10037000FFD16385FFFFFFFFFFFFFFFFFFFE16FFBB
:10038000FFFFFFFFFFFFFFFFFFFFEDD3FFFFFFFFBB
:10039000FFFFFFFFFFFFFF62FFFFFFFFFFFFFFFF0A
:1003A000FFFFFFFAFFFFFFFFFFFFFFFFFFFFFFFF62
:1003B000D104D3070C03E406850F8808570CFA0A0A
:1003C000F20BF705050B25099E030309AD0EB205D7
:1003D000870399023D03DA0D130806011C0EAE04D3
:1003E000440FF102AC044B06240E5102AC03010F82
:1003F00046034F045A00D10FFD06E003F507AE0F88
:10040000E6058B0AEC05840C8102E70E7F02550B92
:100410008409CA0B940B62026B02AA007000180BCD
:100420004004D40452005F02380D5402A506EF0BBD
:10043000A000D505AF0EDF095C0C950A46091C0E1D
:10044000A80455075107FA0CD101D20AD708540461
:100450001D0EE30A5604D20D2509B30730096800C2
:1004600080092E08590DCC020F0A2D01E703770CE5
:1004700055045C09C709E9069B04C60B590BB10674
:100480007401F30FBB06B804170F8402700FCC0D74
:100490006402BE0732028609D8063208E20A5D020B
:1004A0009704E4044603990FD9028F05CC08330F53
:1004B00025029A0B470B780F320ECE028D0F7C0B64
:1004C000D70C690DC90C330C7F0BEF0ABA0C6C0703
:1004D0007C0796045906F00EAA0C8F06EA03EC0579
:1004E0007F02A00F110F610ABE0DE7071107E4009C
:1004F0005204D106900690009A0AAB0C1A0C5009CF
:10050000BE053A0FF80CB30280073F0E54023701C4
:100510005F0FEB0976099C0F3700F507840FDC00AD
:10052000170A9D0CA604F00BD904C104580F0B0543
:10053000100D5E007D0E450E2501050B3B083A0DA2
:10054000FA009404A206430EBA0BAE04E00AD80DDA
:100550001F084F04590ECE0C11089F09190DBA0C33
:100560009D0B4305A103B30C3C04A8017E02310995
:10057000D604F0088400E80ABC0A9908A00D100609
:10058000BD043D0C1902170FD90D090C2908BE0333
:100590009A028905C00BBE0C58093300650EC00EC7
:1005A000BF0FD80F2C076106D20E790A32077005EB
:1005B0000A0A4903DC08B205CE0C9201310D280D60
:1005C000C00C210AB004B406F402840D2803E30031
:1005D0002D0A3F02C0052502B403C20D5F075D0767
:1005E000830D1B0E1E057103F6055E0A1A00C00E70
:1005F000E500E4020701D10FCB0F9403A20F3E0CDC
:10060000EB020F033A0A07058F08E80DEE06AD0569
:10061000150D530CE1050D074F0B980A190FFF0A32
:10062000D105540CFC0F5A06070247055B0FAA03BD
:10063000AF0B9000F901A0052204BD09B801070025
:10064000780E510B8206A906670CF30AFC09900E7E
:100650004E09FE0C840F930DA704F6083E0FCF0E33
:100660007207280D3A0D650D9E089801D80FB50246
:100670004007890C9C0F4609180F150A61080E0FD8
:100680005B0C130DEE04BF0F9105B10365089109D2
:100690006D0B820F27053D048E0B880C1A06D106C0
:1006A00034005D031D0E560FEB09DF0E1D0ED20B3D
:1006B000000000000000000000000000000000003A
:1006C000000000000000000000000000000000002A
:1006D000000000000000000000000000000000001A
:1006E000000000000000000000000000000000000A
:1006F00000000100000000000000000000000000F9
:1007000000000000000000000000000000000000E9
:1007100000000000000000000000000000000000D9
:1007200000000000000000000000000000000000C9
:1007300000000100000000000000000001000000B7
:1007400000000000000001000000000000000000A8
:100750000000000000000000000000000000000099
:100760000000000000000000000000000000000089
:100770000000000000000000000000000000000079
:100780000000000000000000000000000000000069
:100790000000010001000000000000000000000057
:1007A0000000000000000000000000000000000049
:1007B0000000000000000000000000000000000039
:1007C0000000000000000000000000000000000029
:1007D0000000010000000000000000000100000017
:1007E0000000000000000000000000000000000009
:1007F00000000000000000000000000000000000F9
:1008000000000000000000000000000000000000E8
:1008100000000000000000000000000000000000D8
:1008200000000000000000000000000001000000C7
:1008300011241FBECFEFCDBFDFE3DEBF00E00CBF52
:1008400018BE19BE1ABE1BBE10E2A0E0B0E2EEE672
:10085000F2E100E00BBF02C007900D92A030B1079B
:10086000D9F71BBE20E2A0E0B0E201C01D92A03289
:10087000B207E1F70E94E6080C9435090C940000D9
:10088000AA24979F802C869F602C112D969F100D77
:10089000811C879F100D811C912E869497948694BD
:1008A000979486949794869497941F70892D982D89
:1008B000880F991F890D981D860D911F9F3038F064
:1008C00009F002C08D3F18F08D5F9F40F7CF08956B
:1008D0000F921F926F927F928F929F92AF92EF92A0
:1008E000FF920F931F932F933F93AF93BF93CF9399
:1008F000DF93EF93FF93002777243327DC01FB017D
:100900007B012227200F270DB0F48D919C916591DA
:1009100075910E944004EA01C20FD31FC20FD31F7A
:1009200069917881681B790BE0F43DEF630F3FE03C
:10093000731F332716C08D919C9165917591A0DF2F
:10094000EA01C20FD31FC20FD31F69917881680FCC
:10095000791F7F3030F009F002C06D3F10F06D5FFD
:100960007F406A93219678831197739451F612967B
:10097000F701039531F6FF91EF91DF91CF91BF9190
:10098000AF913F912F911F910F91FF90EF90AF90FA
:100990009F908F907F906F901F900F9008950F926F
:1009A0001F922F926F927F928F929F92AF92EF92AF
:1009B000FF920F931F932F933F93AF93BF93CF93C8
:1009C000DF93EF93FF9330EC232E00277724332718
:1009D000DC01FB017B012227200F270DC8F0221527
:1009E000B8F48D919C91659175914ADFEA01C20F2F
:1009F000D31FC20FD31F69917881680F791F7F3091
:100A0000E8F009F002C06D3FC8F06D5F7F4016C08E
:100A100022198D919C91659175910E944004EA0183
:100A2000C20FD31FC20FD31F69917881681B790B46
:100A300028F43DEF630F3FE0731F33276A9321963D
:100A4000788311977394721431F677241296F70114
:100A50000395021501F6FF91EF91DF91CF91BF91C0
:100A6000AF913F912F911F910F91FF90EF90AF9019
:100A70009F908F907F906F902F901F900F90089570
:100A80000F921F922F923F924F926F928F929F924E
:100A9000AF92BF92CF92EF92FF920F931F932F933B
:100AA0003F93AF93BF93CF93DF93EF93FF9330E4E4
:100AB000232E31E0332EBB24CC2444243327DC0105
:100AC000FB017B01002722270B0D2C1D040D30F9A3
:100AD000231F2315D8F011F40215C0F002192309C1
:100AE0008D919C91659175910E944004EA01C00F1F
:100AF000D21FC00FD21F69917881681B790BE0F477
:100B00003DEF630F3FE0731F332716C08D919C911B
:100B100065917591B5DEEA01C00FD21FC00FD21FDB
:100B200069917881680F791F7F3030F009F002C039
:100B30006D3F10F06D5F7F406A9321967883119727
:100B4000439409F4689416F4421409F0BBCF44248A
:100B5000E8941296F701B39409F4C394C31410F007
:100B6000B21409F0AFCFFF91EF91DF91CF91BF9118
:100B7000AF913F912F911F910F91FF90EF90CF90E8
:100B8000BF90AF909F908F906F904F903F902F901D
:100B90001F900F900895482F4603202D312D442794
:100BA00011200AF44A95682F6703300D411D632F09
:100BB00045956795459567954595679545956795DD
:100BC0003F70862F942F880F991F860F941F820FD6
:100BD000931F11240895BC0140E150E280E090E2AF
:100BE0000E940006E0E0F0E280819181A281B38161
:100BF0000196A11DB11D80839183A283B3830895C3
:100C00009C01CB01BA01405F5F4FFB016F5F7F4FDB
:100C1000E081E093C30046175707B9F7A901405F89
:100C20005F4FF9012F5F3F4F60816093C200421711
:100C30005307B9F72091C0002F7620682093C00099
:100C40002091C1002178E1F32091C10027FD0DC062
:100C50009C01205F3F4FFC0101964091C200408300
:100C600028173907C1F781E0089580E00895AF9211
:100C7000BF92DF92EF92FF920F931F93CF93DF9378
:100C8000782F5A01A901D8011C9280E0871788F5B6
:100C90008A0130E020E090E07501689FE00CF11CD3
:100CA000112422C0F701E20FF31FE4919D1508F40F
:100CB000922FE801F9918E01FE1790F49F5F9C93AB
:100CC000240F351FF901918197FF8195DF91CF9115
:100CD0001F910F91FF90EF90DF90BF90AF9008951C
:100CE0002F5F3F4FEF1718F0D22E2617D8F28F5FE5
:100CF000CDCF80E0EBCF7F928F929F92AF92BF9249
:100D0000CF92DF92EF92FF920F931F93CF93DF93D7
:100D1000CDB7DEB7E197CDBFDEBF4B016A0119AA9F
:100D20007C01B12CA12C8EEF782EAC14BD0489F47B
:100D3000E196CDBFDEBFDF91CF911F910F91FF9064
:100D4000EF90DF90CF90BF90AF909F908F907F906B
:100D5000089523E2271568F4CE0101960E94EB0561
:100D6000CE0141960E94EB05CE0181960E94EB05D3
:100D7000712C21E030E02C0F3D1F270D311D8E011D
:100D80000F5C1F4F44EF51E06CE085E20E94370694
:100D9000282F89A9780E822F022E000C990B27FF8D
:100DA00002C08350904FE1E08E16910449F4F701A0
:100DB00020813181820F931F8E3FFFE09F0750F407
:100DC000F70180839183FFEFAF1ABF0A22E0E20EA2
:100DD000F11CABCF8D5F9F40F3CFCF92DF92EF92AC
:100DE000FF920F931F93CF93DF930F920F92CDB784
:100DF000DEB77A012DB73EB729833A83ADB7BEB7C8
:100E0000A058B140ADBFBEBF4DB75EB74F5F5F4F9B
:100E10008A01CDB6DEB6BFE7CB1ABEEFDB0AFA0118
:100E200011921192EC15FD05D9F70E94CF04F7013C
:100E30000C151D0579F429813A812DBF3EBF0F9015
:100E40000F90DF91CF911F910F91FF90EF90DF9066
:100E5000CF900895D8018D919D918D0181939193AB
:100E6000E7CFCF92DF92EF92FF920F931F93CF9332
:100E7000DF930F920F92CDB7DEB77A012DB73EB751
:100E800029833A83ADB7BEB7B250ADBFBEBF4DB731
:100E90005EB74F5F5F4F8A01CDB6DEB6BFEFCB1AAC
:100EA000BDEFDB0AFA0111921192EC15FD05D9F79D
:100EB0000E946804F7010C151D0579F429813A8117
:100EC0002DBF3EBF0F900F90DF91CF911F910F91DB
:100ED000FF90EF90DF90CF900895D8018D919D9174
:100EE0008D0181939193E7CFCF92DF92EF92FF92A2
:100EF0000F931F93CF93DF930F920F92CDB7DEB76F
:100F00007A012DB73EB729833A83ADB7BEB7A05853
:100F1000B240ADBFBEBF4DB75EB74F5F5F4F8A01F6
:100F2000CDB6DEB6BFE7CB1ABDEFDB0AFA011192F0
:100F30001192EC15FD05D9F70E944005F7010C153B
:100F40001D0579F429813A812DBF3EBF0F900F9086
:100F5000DF91CF911F910F91FF90EF90DF90CF9095
:100F60000895D8018D919D918D0181939193E7CF43
:100F7000CF93DF93DC01FB0190E080E04150510909
:100F8000EC0123E0D695C7952A95E1F7CA0FDB1F40
:100F9000288130E0BC016770772702C0359527951E
:100FA0006A95E2F720FF0BC020813181B9016250C0
:100FB000784F6E3FCFE07C0740F4608371833296B8
:100FC0004817590739F00196DBCF2F5F3740208350
:100FD0003183F5CFDF91CF9108956F927F928F92F9
:100FE0009F92AF92BF92CF92DF92EF92FF920F93B8
:100FF0001F93CF93DF933C01D62FC72F5A0149018E
:101000006701A70170E060E08D2F9C2F0E947B0696
:1010100080ECE816F10469F5A501B8018D2F9C2F2D
:101020000E94ED064D2F5C2FB4018D2F9C2F0E9446
:10103000ED06A60161E070E08D2F9C2F0E947B06DB
:10104000A60161E070E0C5010E947B06A601B50122
:10105000C301DF91CF911F910F91FF90EF90DF902F
:10106000CF90BF90AF909F908F907F906F900C9497
:10107000B807E11481E0F80699F080E4E81681E011
:10108000F806B9F6A501B8018D2F9C2F0E947407B0
:101090004D2F5C2FB4018D2F9C2F0E947407C9CF58
:1010A000A501B8018D2F9C2F0E9431074D2F5C2F79
:1010B000B4018D2F9C2F0E943107BBCF0F931F933C
:1010C000CF93DF939B01FC0190E080E0C1E0D0E092
:1010D00041505109619171916F5F73406E3F77404C
:1010E00098F4DC0163E0B695A7956A95E1F7A20F45
:1010F000B31FBC01677077278E0101C0000F6A958E
:10110000EAF76C91602B6C934817590711F0019620
:10111000E1CFDF91CF911F910F910895AF92BF92D0
:10112000CF92DF92EF92FF920F931F93CF93DF93B3
:101130006C01D62FC72F5A01B9017801003C110567
:10114000E9F44D2F5C2F8D2F9C2F0E94ED06ED2F83
:10115000FC2FD50150E040E04E155F0521F5B601AA
:101160008D2F9C2FDF91CF911F910F91FF90EF90CA
:10117000DF90CF90BF90AF900C945E08011581E096
:10118000180751F00034114011F74D2F5C2F8D2FAF
:101190009C2F0E947407DBCF4D2F5C2F8D2F9C2F2F
:1011A0000E943107D4CF2D913D9180819181280FEC
:1011B000391F2E3F8FE0380730F4208331834F5F93
:1011C0005F4F3296C9CF2D5F3F40F7CFCDB7DEB727
:1011D000C851D340CDBFDEBF88E0809345068093E1
:1011E00041061092A7089CE09093A6081092A308CD
:1011F00093E09093A5088093A40880ECE82EF12C4E
:1012000000E315E020EB33E0AE014F5F5F4FBE011E
:101210006F577E4FCE018F5F9C4F0E94ED0700EC11
:1012200010E020EB36E0AE014F5F5F4FBE016F571D
:101230007E4FCE018F5F9C4F0E948E08FE01EF5FB4
:10124000FC4FCE018F539C4F21913091A10835FF67
:10125000FCCF2093A008E817F907B1F790E080E0F1
:0E126000C85EDC4FCDBFDEBF0895F894FFCF0F
:00000001FF
