:100000000C945A260C9480260C9480260C948026FE
:100010000C9480260C9480260C9480260C948026C8
:100020000C9480260C9480260C9480260C948026B8
:100030000C9480260C9480260C9480260C948026A8
:100040000C9480260C9480260C9480260C94802698
:100050000C9480260C9480260C9480260C94802688
:100060000C9480260C9480260C9480260C94802678
:100070000C9480260C9480260C9480260C94802668
:100080000C9480260C9480260C9480260C94802658
:100090000C9480260C9480260C9480260C94802648
:1000A0000C9480260C9480260C9480260C94802638
:1000B0000C9480260C9480260C9480260C94802628
:1000C0000C9480260C9480260C9480260C94802618
:1000D0000C9480260C9480260C9480260C94802608
:1000E0000C9480260C9480260C9480260C948026F8
:1000F0000C9480260C9480260C9480260C948026E8
:100100000C9480260C9480260C9480260C948026D7
:100110000C9480260C9480260C9480260C948026C7
:100120000C9480260C9480260C9480260C948026B7
:100130000C9480260C9480260C9480260C948026A7
:100140000C9480260C9480260C9480260C94802697
:100150000C9480260C9480260C9480260C94802687
:100160000C9480260C9480260C9480260C94802677
:100170000C9480260C9480260C9480260C94802667
:100180000C9480260C9480260C9480260C94802657
:100190000C9480260C9480260C9480260C94802647
:1001A0000C9480260C9480260C9480260C94802637
:1001B0000C9480260C9480260C9480260C94802627
:1001C0000C9480260C9480260C9480260C94802617
:1001D0000C9480260C9480260C9480260C94802607
:1001E0000C9480260C9480260C9480260C948026F7
:1001F0000C9480260C94A32EF50085012402980807
:100200008C05B309A10FB30BBC03C4058209A40A72
:1002100073008E01CF0F3F0AF5079505E90B2C0CF3
:100220001D08C405CD044C0A0902FB05530AC70783
:100230000B042902BB08650A1507F009B70C750005
:10024000910E24024C06A703DF0F900C5F0FA00B4A
:100250007908BF0ADA09A10E880D5809880B270D05
:10026000180FE606DC04580D43056501D00C480A5A
:100270006F00EC0ED808F1037808E90D3F0A510928
:100280000205A705540622095400EC078608540904
:100290007600A703380477083609EE085E0D0902D8
:1002A0009801130E1801B80BE90D2A0B8B0C840B67
:1002B000690FA8019902EB06310DC1087302CE0E39
:1002C00073061D015206A909470FCF012F02A70A85
:1002D000EF07360F640CC405D10BBA07BB08DE0369
:1002E000E902600A0207DD0E600033080E07330DD5
:1002F000960E8105C70B560AB00EBA0D8003490D44
:100300006E082C0FA40C020B790D04048A0DB207A1
:10031000DD0B1703020E2D03590FF907C2019C0BC9
:100320008F05F401C5072706AF0A930FFE03660980
:10033000430BB506330DFF09D6032101EB08C601B7
:1003400004044C0794023105E3099403270F0F0BB3
:10035000400BFB0EDA0C7A032007720FDF06630CEA
:10036000CB02700F3B0A360EDC03220F9E07980467
:100370008E012703DC0EEE0D730A3A047C07A20BF4
:10038000070CA0037004760626067B043600490F8E
:10039000DB0BA90BEB0CE206420AB1005007710A15
:1003A0003B0CCB09E803B8084D030409DD06540FE4
:1003B00081000D02B90EB107100DB8033C051506FA
:1003C000C909800BA70F3E0FD70C610ED402120291
:1003D0006C0180072C07160E920ACB04D90BC405BA
:1003E0002B0B610BB807A30D31054109FB068C0BE4
:1003F0002402080EB2084909A900350F370AA10BDB
:10040000850012077107E404BB0A240F730FEE077F
:10041000CD0E7C0C5A0E4607F00F2E0F5F0F010D0C
:10042000B204C30E6B033405FA0BBF07E4071A03CB
:10043000BF096C03A1082600FF0B5709160DD8074A
:10044000C501ED07E10F7F0C410C1805150476037B
:100450009909A600C20BA40887024A09A90AD30673
:100460002001DC09DB00E90AE101F30DEB03CB031A
:10047000B500550A140B7709C208870F8106EF0AE9
:100480007F02EE035E0BE20E3C049D05A403620DA9
:10049000BD06700FCE07B0051A0E7E04C3047407A4
:1004A0007306EA0D9F0A4D083805C80BD10C2F03BF
:1004B000420E2E08B101B50C460C330CEA06630E51
:1004C00001089601F104B20C84047507C801BF024B
:1004D000DA0FFC02490D420DC20C9E020004F90322
:1004E000AA02750838012E0F080FAA0AC801C90F01
:1004F000580DE706930A560811089A00F808F80CF8
:100500002C07BD0C6907BB0DFD02F50FE207F808CB
:100510000703D10E62003C0945034A0A8703A90874
:10052000C90BEE07BD017F028504C1039C0EEF03DA
:10053000570FD500E50BF50D6A09700F380B4A0B04
:100540009300650DFD02A701CB0B6F0EC4087F065B
:100550003C0D080BDD03D7073D066D01410A1C0D5C
:10056000BB042C097A0C8E093000C5001B026E0AF0
:100570006B0D850244028303FF0DD1044306F60B85
:10058000B80C1D00F109E8010F05520DD6053E001B
:10059000290D4F06900F1602B6003C0F6E0287051C
:1005A000F802780C7B093F0FD70C82091706380C2C
:1005B000BB082E0B5902060C7D054208D60CE40937
:1005C000700B3901080406099205460D2E0FEE0343
:1005D000D40F32067804B803C40A55087603AE0D6A
:1005E0009E0E530755072005DB03260E7000E20C14
:1005F0004E0E3B099C0B49040F0BF2079000970B22
:10060000960E2B090F0AA40A030B2804BE017D01D4
:100610005908790A410A25001705A3071D09B502E3
:100620006905700D1F09AE0312066B00A90AC2010D
:100630000C0F8D0F2E05ED067A0C2E0D33092101BE
:1006400050055E0CC70FBF0C7B055E06AE07BF0DE5
:100650005C08B30F51071102010AE7032500820E5F
:100660002C07DC02D30FA000280F660EA105B405ED
:10067000EF0CC10DF004690BFA0628004F07850145
:10068000EA01CD004F057009800AA2029A0B3402DC
:100690004C0EF60BDA06D40C760BB503D209140017
:1006A0007C07E80F550EDA06A90538020C00220B6C
:1006B0004C0E7205CC05D8061501F204C60FAC0924
:1006C000B303A204F7051404F806320EEE0E5D0023
:1006D000C5016605B90B44029A0CC7099F0B9C091A
:1006E00092037A0D6706C401B80EEC011400A9014B
:1006F000CF087D0CF401D30400000500FDFF0200CB
:1007000004000300FCFF0000FFFFFEFF0000FDFFF0
:1007100001000200FBFF0100FEFF00000500FCFFDE
:100720000100FCFF00000100FBFFFEFFFEFF0200D6
:10073000FAFF01000600FDFF0000010004000400B4
:100740000100FCFF000001000400FCFFFFFFFFFFB1
:100750000100FDFFFFFFFFFF0100FCFF00000200A2
:10076000FAFF0000FCFF00000100FCFFFEFF01009B
:10077000FDFFFFFF01000600FDFF00000300030076
:10078000FEFFFFFFFFFF030005000300FBFFFFFF6D
:10079000000003000600FDFF01000500FCFF000053
:1007A000010003000400FCFF01000400FCFFFFFF48
:1007B000FFFF01000300FDFF0100FAFF000004003D
:1007C000060003000800FBFFFFFFFFFFFFFF030021
:1007D000FEFF000001000300FDFFFEFF0000FCFF24
:1007E00001000300FDFF0000FFFF01000200FDFF0C
:1007F000FEFF0000010005000400FDFFFEFFFEFFFC
:1008000002000500FBFF00000200FDFF0000FDFFED
:10081000FFFF01000200FDFF00000100FEFF0000DD
:100820000100FCFFFFFFFEFF0000FEFF0000FDFFD8
:100830000100FEFF00000100FBFFFFFFFFFFFEFFC6
:100840000000FEFFFEFF000001000300FBFF0100AF
:1008500003000400FDFFFEFFFEFFFEFF0200FFFF9E
:1008600001000300FCFF0000FCFF01000200030088
:1008700003000400FCFFFFFF0100FDFF0000FDFF7F
:10088000000002000200FCFF0100FDFFFFFFFFFF70
:10089000FEFFFFFFFEFF000002000400060005004F
:1008A0000400FEFF0000FEFFFFFFFFFF0100080045
:1008B00005000300FDFF0100FCFFFFFF0000070033
:1008C000FBFF010003000500FAFFFEFF020003002A
:1008D000FCFF00000200FBFF0000FFFFFFFFFEFF28
:1008E000FFFF0000FFFF0000FEFF0000020003000A
:1008F000F8FF0000FFFFFFFF0100040003000400F9
:100900000200FDFF01000300FCFFFFFF0100FDFFEF
:10091000FEFFFFFFFFFF02000200F9FFFFFF0100E3
:1009200004000300FAFF020002000400F8FF0100C7
:10093000FCFF0300FDFF01000400FDFF0000FFFFBE
:10094000FEFFFFFF0000FFFFFEFFFEFF0000FFFFB6
:10095000FFFF01000800FDFF00000300040003008A
:100960000400FCFF02000400FDFF0200FBFFFFFF8C
:10097000FFFF0000FEFF00002B0812020209940F87
:1009800015084A00B00521009707FD005507630AC6
:10099000900BDC0EE800120B4A09F10B130630072E
:1009A000D906B003C500320E030C97082502E004F7
:1009B000010AD20DB202200D7C0D380A260B570C0D
:1009C000F50F9A019F0F5D024A0C230B8E044E0413
:1009D000E80A430A6B0EEB040B0A3D0D180D2605C1
:1009E000930B0C0052002F06430CB10F3100BC09D1
:1009F0000205F10D7F0F28019C0CFF0C4003F6024D
:100A00006F075801060F1F0ABF064107EE0EFC0CC8
:100A10001B03F10AD40B65024C00FE01DD020B0B37
:100A2000E001190F8B02B908650F6E0C15026A0BF5
:100A30008F03310FAD01D80E230ACB08E908A406B5
:100A40005A0D3104A10D2D04880E230A9D0E360F78
:100A50003909560F9E03EE0C6D0E010DC50A3803C1
:100A60008501AC00DA0EC50E710F7704B10EF10AE4
:100A7000E3094B041B07970DE102BC0BBC094102C3
:100A8000FF0A2C0C350E780C64091304DE01A70D47
:100A90001300EF06D903670FFD0A44027C09DA0947
:100AA000490B410EA70F7F035404D60D1D0BE8041C
:100AB0002003CE039F07360974072D001208190082
:100AC00053034D04130CDC035B0C220C5D0EED068E
:100AD000BA05F1032001270B320E5D074F0E450DBD
:100AE000B80A6F0E12031D0E28092404B30DD1029B
:100AF000300498021F013109EA0FD4028006D20A9D
:100B0000FC016C01620272087B0C810ED40D580A44
:100B1000E0044605DF00360234016E0B9707B50C82
:100B2000DC01450DA3029B08820DEE03950F0A0917
:100B3000AF06710E9204E301870AC5062009870BF0
:100B4000450B62024908740146080C097D036800E0
:100B5000BD0F63005E060B09460F070F710CE6041C
:100B6000AC09500F95050A060E0DB306B2065F0DCF
:100B70007A0A88060C0AD60DBF04290DEF07D20D9C
:100B8000B40C8207610334050205340DCF09B003AC
:100B9000AF02AA06B00F520C620075007F07190160
:100BA0001C087100580A940AF40C6A015B0D680372
:100BB0009209FF0A8A02320E690F3E07CC032D0507
:100BC000270328076E091707C9078B045203A50ED0
:100BD000CC0F2D08D4008F0930034809D804830BAB
:100BE0005E08860F5C056F05080B97013C02D60373
:100BF000FF0277026E06AF0E020BAA05DF0F100B85
:100C0000BB0DBE069707A902DF0FC8004201B80D51
:100C1000240FF808E802DD019F0337068603EE0281
:100C20003E0E2A0CA30C2406530FFD09E600010614
:100C300006019D0D1D0CA60E5000F40318025D0E5A
:100C4000900CF50A390B2408290A27069E077D0116
:100C50006A0F070FCA0CDB026E012F0B220BA409CF
:100C6000A80480067B0EE10C6B04A507E1068F0C3F
:100C70006408CF0F5109FB06F4055401F0074A0D33
:100C8000200E550948028D0671072305A303EF01C5
:100C900008033D0EA900B100FC07D70D33036F0A0E
:100CA000DA09CC0F0300290D690466051F08770ACD
:100CB0009600300A210EEB0370017D051C0D5F02CA
:100CC0000007CC0EFD076C031B073503E607750B09
:100CD0000B0062026E0CFC0AA1053802970CC507D6
:100CE0005F0B5A0EA60EA70CD8081A06E2052E02B4
:100CF000E40B0702370A940B7308440F9B0A770B27
:100D0000180B940A6A0ECC05C50EA9030B05F60450
:100D100066013A0CC30454052F057607F30EB004A0
:100D2000D8074E0A8D099E0E710AA00A7B0661063D
:100D3000770745016C08810E3602A20CAA032B0E20
:100D40001303C20F3E0A86007509CA07D808DB0ED6
:100D5000ED0A4301B900F808870D3405020BCF0EE8
:100D60001E08050D470CE8001E0E1E01540FEA0F69
:100D7000D8005E099D037F030200FDFF0100FBFF19
:100D80000100FAFFFFFF0000020003000400FEFF65
:100D900000000100FDFF01000300FCFF0100030053
:100DA00005000700FBFFFEFF01000200FBFFFFFF45
:100DB0000000FFFFFFFFFEFFFFFF02000300FEFF3A
:100DC000FEFFFFFFFFFF0100FEFF02000400050021
:100DD000FEFF0100FAFFFEFF020005000300050010
:100DE00004000200030004000300030003000300EA
:100DF0000300F7FFFEFF0200FCFF010003000400F8
:100E0000FCFF01000100FDFFFFFF00000100FDFFEE
:100E100001000300FDFF02000400FCFF0100FBFFD6
:100E200002000300FEFF0200FDFFFFFFFEFF0200C5
:100E30000500FBFF01000400070003000600FEFFA1
:100E4000FFFFFFFF0200060005000400FFFFFFFF99
:100E5000FFFF0200FDFFFEFFFEFF0100FDFFFEFFA2
:100E6000000002000300FDFFFFFFFEFFFFFFFFFF8A
:100E70000200FDFFFFFF0000FCFF0100FAFF000081
:100E800002000800F8FFFFFFFEFFFEFF0100FDFF6C
:100E9000FEFF020008000800FCFF01000300FBFF4A
:100EA0000000FDFF0000FEFFFEFF01000200040045
:100EB0000300FBFFFFFF00000000FFFFFFFF00003B
:100EC000F9FF020003000300FCFF0100FCFF00002B
:100ED000FDFFFEFFFEFFFFFFFCFF0000FFFFFFFF27
:100EE000FFFF0000FFFF0000FFFFFEFF0100FEFF0D
:100EF00002000500020003000400FDFFFFFF0200E6
:100F0000FDFFFEFF0200FDFF0000FDFF0100FDFFF1
:100F10000100FDFF01000500FAFF000004000400CD
:100F2000030004000300FCFF0100FDFF0000FDFFC3
:100F3000010003000200F8FF0100050004000200A8
:100F4000FDFF01000300FBFFFFFF000005000200A2
:100F5000FAFFFEFF020004000800FBFFFEFFFFFF98
:100F60000100FBFF00000600FEFF0100FDFF020084
:100F70000500FDFF0000FFFFCF0D7200B607310135
:100F80008709300EEF008C0EC40B6408260A0E0A87
:100F9000180D720A3200A703A3012F01F005C70143
:100FA0002307A605FF0A2C00F506FC091706ED0A23
:100FB0006C0F490F1402BE097D07F205BD01F10D4A
:100FC00014063803E9010707500CBD08BB0F5A0E81
:100FD0008C026701D30ACE0C3E0BBB0EF60B8900C8
:100FE0003A020F0380068E02650BEE0AD7065C07F5
:100FF000CE0124018105CF078C00840F9E05ED01F1
:10100000DE0510050A0F8A0D540D5C0BE70914026A
:101010008C049D00B201730EB401C3002A01D203F7
:101020005C052B09E900C70D7E00000D8E0C27051D
:10103000E601DC09710462037A08EB0DE401430167
:101040004E026509E60BD80B240F78085506A60C4E
:10105000890B8C0296081102720899074E0A400902
:10106000F90BA60C960E47010B07BB07B609490AF8
:10107000D0066A099B021605570E7E03F80D340A46
:10108000770F5E0B2D0BF90FE308B4032906350B20
:10109000800A6B020E0D1C0A87011A0D770A4403A1
:1010A0003C04500ABC04F00BF200D40B950CA80EC3
:1010B000E406C204060E84039F031B04F30A4F0DCB
:1010C0002901130FFD0BA90CA801E1006F0BD0093A
:1010D000DE06D408F90ACB033C07BC01D202F20EAB
:1010E000AD0F3906170C3304510BD4052A058302C2
:1010F00038003C032B052602190C8B0BAB00580C57
:10110000860D42058306A308A605050BDB03BC0E6E
:10111000090F2A0B8C000503DA071A0C3209D30FCA
:10112000A60AC009060CDE00A003A00E450FB70BEF
:101130005E0FD90F2E020C04B40A16007F0B5C0E52
:101140009C044E0A750743051B09F50CDB0B880F41
:10115000A9039702420A0804590BBD01A6044A0BD1
:10116000290610093703B2041901960ECE00F100CA
:10117000F30B9D04A10FC107CF08FE08EF03D109AF
:101180001807C502DF0DA50943059D032209D103F8
:10119000730DC307FC0D4702720C090A770F4A0151
:1011A000B60A4C0B530F880A170D0B000C07A50E3F
:1011B000250C3407C40AA20F3801D00BC0098D07D3
:1011C0005E0602015305F80E2702E104950ECF00DA
:1011D000440B40098A051E0BC10DFD00D809FC0C0B
:1011E000FA09D503A8065A02C108AD09FE02740B1C
:1011F0004E09400E4F0DEC0458092C0D8E0B6E0558
:10120000530107030D0BA602380EFF04450CFE0E1A
:1012100034065C0DCA087E09AA0C7900D4081B05A7
:10122000FC094602A40B900D44085D0657089B0379
:1012300031016503B00C3B06EB0B3E0CAD0E6001BB
:10124000BC0F580A100E620FF304190B1D03000F98
:10125000920C220F8806AC08A30D8C0663073C0590
:101260008A0294034004FE029902EA0ACD03080CA4
:10127000560EB0013D04C40D0100FDFF0200030045
:10128000FCFF0100FBFF00000000FDFFFEFF01006E
:101290000500FBFF0100060005000300FEFF000043
:1012A000FDFF0000FEFF0100FEFF00000500FCFF47
:1012B0000000FDFF010005000300070003000A0015
:1012C000FCFF010003000500FBFFFEFF0100F9FF2A
:1012D0000000FEFFFFFF0100FEFF01000400F7FF1A
:1012E0000100FAFF0000FDFF0000050005000600F8
:1012F0000300F9FF010005000600030002000300DF
:101300000000FAFF0000FDFF0100FDFF0000FCFFF0
:101310000100040003000400FCFF000007000200BD
:101320000200FBFF02000400FBFF01000200FCFFC3
:10133000FFFF0000FFFF0000FAFF0100FDFF0000BB
:10134000FFFF01000400F6FFFBFF020002000300A4
:10135000FCFF0000FBFF01000300FDFF0200050091
:10136000050006000500FEFF0000FEFFFFFF000075
:10137000FEFFFFFFFEFF020006000700FDFF00006A
:101380000300FCFFFEFFFFFF000001000000FFFF65
:101390000100FEFF0100FCFF0100FCFF0100FCFF5B
:1013A0000000FCFFFEFF0000FCFF01000300040042
:1013B0000200060003000400020003000200030014
:1013C000FDFFFFFFFEFFFEFFFFFF01000400040022
:1013D000FCFF030006000400FDFF01000600FDFF06
:1013E0000100FBFFFEFF0100FBFF00000200FCFF0D
:1013F0000200FDFF01000400560B8809BE0C250FFA
:10140000D90ED30BDB000A09C503EA09A205900F28
:10141000D1040104F108F10B7306060B8A09AC0430
:10142000100C6808CE090A079809FA060E07310E53
:101430000506EC097807260E82093A0B5E0E39087C
:101440000D0FE10D5101EB009B0B25034D0B950298
:10145000AC02720C2E0FEB0BD40FE1097C0AF30DDA
:101460004C01150EEE03E5068309D40D900502012B
:101470000507B4016603B508FB0CC40ABC000101F2
:1014800079013102D800EB0628020F01D10AE70EDC
:101490003805790C4A02C10155043F0EF4086F016A
:1014A00012092A0B9509D90CBD010A0CF00E130F75
:1014B0006205C90DD902EE06A1023C087201150DA4
:1014C000E0088B057607AF0B0F010E0DED095508EF
:1014D000230A4306F40ACF0C5801010D0F052F0211
:1014E0008409D10E0D039D08680DB400C10DEA09F1
:1014F000EC04040792062D03E10E4B0DBD00E30240
:101500008B0D8D0C1D0EB20ECB0A560D33089C0BA5
:1015100060063B0251009208EB0ABB02FD08A90AD3
:10152000BE01740B8F009B04CA0FAF00300C6D021C
:101530002D0F350C800C540ECE01DC023E0F8A0AB2
:10154000F3072A0AE802840E9802880B180EE204B8
:101550000501FC01140D070ECF074A068D0B700F15
:10156000F8008102A50BBA0982096E0F0F0DCC0697
:10157000C60E3A077004C406BE0F3801F1097304A1
:101580005B07150F6409C4008E0DF108A30815014F
:10159000BC0BB30A0F098E0EC80003098A024C0562
:1015A000B10E290F6009650E7A0E3E0FC6089D0E1A
:1015B0002E047D054E0DF10F140D6201060608087C
:1015C0001A03C402540FFD05670FE8012E081B081B
:1015D000D50F8C0E280142024100A800C303030E60
:1015E0009A06640D58078D0C2D082D0FB307740350
:1015F000B601CE0DEC0C660BC20377012107070C78
:10160000CF07C407BD0CDE0BFC0AB6005C04550511
:101610001601560A5B0E4900600169061B01340978
:101620006B06DD051F0DB705890C47008102230CF1
:10163000430C960C25053D04C2044C05A80CA307D9
:101640000506240C950CEA090B0831068C0C59058B
:101650009208F902A50A63025706CE09720710071D
:10166000D20FCD08640DF20C1C0EEE06AD09E60E8D
:10167000CA082E035A090305B509000D87083B0562
:10168000D90F5F0511035F04F00BB608C000030516
:10169000D2015600E50E030F2F0533021F08400943
:1016A000EE0264085C0E3F0FB405A7068003C70472
:1016B000CF0FC60CE901E30BC90A070469088A0ABF
:1016C000F50B9D09DC09C3045B001E0F670BB90510
:1016D0009D0BD40FB1019F04A90FE607C201C106FB
:1016E000C200F106BB01B40EC40BE90D060173097B
:1016F0008708D6053A04120C420D250EA300690E88
:10170000E80DEB089F016805660B660C800912085E
:101710002E0FA2060C0AB60F1B06C10D15093F02BB
:101720009005C003E402540A070B7804C504390D80
:101730000207D7043E00EB013D02D5054D06EA0B3A
:101740006A09BD0A670C1F013E04BD07C906F307FD
:10175000CB06A5042406F70CDA0329016F00120753
:101760009200500E6E0559088500380655048C0D00
:101770001A06FD0E0D075B01DC07E009640829006D
:101780004107E30A5C042E0AD10FB0069A03A301B5
:101790001806A6049C0E9B0D770B470D0C0E7B01C3
:1017A000C80FF30CD9035C0D1C0EFC0657069F04F2
:1017B000500FA60721069105A00E380F1301C7028E
:1017C000730BC2068C024A0B750BC80DD003B2070F
:1017D0003A063A07DE024806BA0B730EC4025309F2
:1017E000C6082A02F9005F0D3906690680087101F2
:1017F0004C07260325093C0E040117082F0F6E0421
:1018000061081A009B07760A130A2C041908A3051D
:10181000C202480B390C2F0EF809DD0B6A0F7E024D
:10182000AF06DB0438078A0913029F07C1060708C1
:101830002F077D03A804830D0B03D4090D030F04A8
:10184000B504B40E6D02600D9A0BC10FA5042B06F2
:101850006501CB0F9C030E0D8A0E040D250515079F
:10186000DE026506E204700D920FC80F7A0E1904AD
:10187000D40B9102350FC9081D041C06120E9509E0
:10188000410AF907E509F10149005102B507DB07F3
:101890007709E3074D0C1E0F7300E607D2086207B5
:1018A000B6089B051908AB013D04A507510C1606A7
:1018B0007309EC04A80CFC017C0C3309BC069008ED
:1018C0007203C10F2B06130E4E07420BE407F308F9
:1018D0009B0391010A067306F10F8D03EB04ED03E0
:1018E0003B03400A4204E40AA80AD90C0001DE09BD
:1018F000B70526074408B101000000000000000001
:1019000000000000000000000000000000000000D7
:1019100000000000000000000000000000000000C7
:1019200000000000000000000000000000000000B7
:1019300000000000000000000000000000000000A7
:101940000000000000000000000001000000000096
:101950000000000000000000000000000000000087
:101960000000010000000000000000000000000076
:101970000100000000000000000000000000000066
:101980000000000000000000000000000000000057
:101990000000000000000000000000000000000047
:1019A0000000000000000000000000000000000037
:1019B0000100000000000000000000000000000026
:1019C0000000000000000000000000000000000017
:1019D0000000000000000000000000000000000007
:1019E00000000000000000000000000000000000F7
:1019F00000000000000000000000000000000000E7
:101A000000000000000000000000000000000000D6
:101A100000000000000000000100000000000000C5
:101A200000000100000000000000000000000000B5
:101A300000000000000000000000000000000000A6
:101A40000000000000000000000000000000000096
:101A50000000000000000000000000000000000086
:101A60000000000000000000000000000000000076
:101A70000000000000000000000000000000000066
:101A80000000000000000000000000000000000056
:101A90000000000000000000000000000100000045
:101AA0000000000000000000000000000100000035
:101AB0000000000000000000000000000000000026
:101AC0000000000000000000000000000000000016
:101AD0000000000000000000000000000000000006
:101AE00000000000000000000000000000000000F6
:101AF00000000000000000000000000000000000E6
:101B000000000000000000000000000000000000D5
:101B100000000000000000000100000000000000C4
:101B200000000000000000000000000000000000B5
:101B300000000000000001000000000000000000A4
:101B40000000000000000000000000000000000095
:101B50000000000000000000000000000000000085
:101B60000000000000000000000000000000000075
:101B700000000000000001001E04CE06C4053C0960
:101B8000D403FB0E46096307FC0A6D0E000595029F
:101B90002B0E01067208F6064C0976099F047B029B
:101BA0007F03BF09A801D808960F360408027F0AF0
:101BB0007A0D220F070425038300D0070E070804BF
:101BC000D001AC09500F36095A0BF3084C090F002D
:101BD00071083B05C70BEC0AC000720E24085409BB
:101BE000340F2B08670AD2021B09D0025C0F0C01CC
:101BF000210C4807A408BC0F600A450BA403D80AAF
:101C00006400F8057709720236062F062E024C068C
:101C1000890A0D01F302BF0DC908DD0C3A068104E3
:101C2000AB02A50A0F07C3043B05A807E30F410950
:101C30007A00D80F4F016B0CBF0EF901820E770DA1
:101C4000680F9B054F0F030FBB0BEF0EC80D8803EA
:101C5000C9025B069E091004FD04AA01520AD70AB4
:101C6000B102AB0DAB0EDC023F0DC206DB06650612
:101C7000520A5700FC0EEF03DD0690049B0D8C0802
:101C8000D50C22092E0CFC039E029809DA063A0DA7
:101C9000B307B5004B09E2082D04EE013604A80A8B
:101CA000BF0941068502650AFA0D3900A10E4E0DE5
:101CB0002E0FAA0320029401980A6D0874024000B6
:101CC0000808E40E210CA90C3F074E090C06E2039C
:101CD000DD072D07D20FD802FA0E2809B807C00970
:101CE000D2013804E809340F8B0B8D0D8A02D10D17
:101CF0001405620D11083C03A6026509C303B00177
:101D0000AF0FAA07E4050D076506350187098306AD
:101D10000C0FEF0C7708D200850D10012B03AF0DCF
:101D20003A04B80A7001C0002703D0037802780192
:101D30004609830E11033306B101BD0810083E0C9D
:101D4000BE0ADC02C5064B08870EF40FAF043A0B3F
:101D5000F80D590ED60694031906F30B6C0E0806FF
:101D60000C034300A40DDF0A2F034D069E0C9303C2
:101D70002E0EF20804014B0BF60D420E6F0D0D0CEA
:101D8000B403EA0AF90E040CCF05350D83013D04B6
:101D9000EA014D08100DE00D850D7A00AB055609DE
:101DA0002806B0089A06640CA907C2090F04290482
:101DB0003106410ACB0F7207E7079A006107460E0A
:101DC000A008700379037505430AC402C40E130109
:101DD000AF07D806D60D0F07A5012801E208D00FDE
:101DE000DD0C850B21019D09EC040D04C5067E0A5E
:101DF000C30CF4090A08F0050005BE0E710E61035C
:101E000098006B0DB202B70DBF0E5D0D1F02640985
:101E10005900BD0DC50D100551002602D30632062E
:101E20001302980AEF07B00B1807A105A008F002EB
:101E3000EE09300DB8057601D305030D0209770DC3
:101E4000ED03E508F302010AA400E30D0701710D9B
:101E5000D50A800EFE07A80D9204CE043200EC02D3
:101E60004000500E75061708FB0D950FE8086A062E
:101E7000120DF9063B01AC0E85049F0B4806C10507
:101E800020003107D8091509DF0A2B0A9F03700BC0
:101E9000990499025E040802A900EA09E7051902FB
:101EA000EE0ECF09B00FB5092100280D3A0E740DC2
:101EB000ED065F04810E1A036406870FC6035107FF
:101EC000CC008B06B301D401FC0CFE0B6508CD0DD4
:101ED0007703DC02B703D30D090A1D0E47088F0EE6
:101EE000A0014806CC07F9028309CE022A0D920D03
:101EF0000B046C0E7407D9027800ED0B9F07E70FF7
:101F0000C606400B790C0C03070A53086408F30754
:101F1000500DA0038402490886006208180EC4050B
:101F20008708F909E007140E0208EA0A560FE607C7
:101F3000A20F5502C10CBE0FA70CD7058E088C024C
:101F4000110EEF03E00C5903AD0376007309590A33
:101F50008A09D104490C16051C0E810496061D033E
:101F600069031102130A750C8009FA0F0303AC0F01
:101F70000C0E22031E057D01000000000000000081
:101F80000000000000000000000000000000000051
:101F90000000000000000000000000000000000041
:101FA0000000000000000100000000000000000030
:101FB0000000000000000000000000000000000021
:101FC0000000000000000000000000000000000011
:101FD0000000000000000000000000000000000001
:101FE00000000000000000000000000000000000F1
:101FF00000000000000000000000000000000000E1
:1020000000000000000000000000000000000000D0
:1020100000000000000000000100000000000000BF
:1020200000000000000001000000000000000000AF
:10203000000000000000010000000000000000009F
:10204000000001000000000000000000000000008F
:102050000000000000000000000000000000000080
:10206000000000000100000000000000000000006F
:102070000000000000000000000000000000000060
:10208000000000000000000000000000000001004F
:102090000000000000000000000000000000000040
:1020A0000000000000000000000000000000000030
:1020B0000000000000000000000000000000000020
:1020C0000000000000000000000000000000000010
:1020D0000000000000000000000000000000000000
:1020E00000000000000000000000000000000000F0
:1020F00000000000000000000000000000000000E0
:1021000000000000000000000000000000000000CF
:1021100000000000000000000000000000000000BF
:1021200000000000000000000000000000000000AF
:10213000000001000000000000000000000000009E
:10214000000000000000000000000000000000008F
:10215000000000000000000000000000000000007F
:10216000000000000000000000000100000000006E
:102170000000000000000000D104D3070C03E406B7
:10218000850F8808570CFA0AF20BF705050B25098D
:102190009E030309AD0EB205870399023D03DA0DD4
:1021A000130806011C0EAE04440FF102AC044B06EA
:1021B000240E5102AC03010F46034F045A00D10F05
:1021C000FD06E003F507AE0FE6058B0AEC05840C6F
:1021D0008102E70E7F02550B8409CA0B940B620241
:1021E0006B02AA007000180B4004D40452005F0276
:1021F000380D5402A506EF0BA000D505AF0EDF0980
:102200005C0C950A46091C0EA80455075107FA0CE8
:10221000D101D20AD70854041D0EE30A5604D20D88
:102220002509B3073009680080092E08590DCC0232
:102230000F0A2D01E703770C55045C09C709E9066D
:102240009B04C60B590BB1067401F30FBB06B8040F
:10225000170F8402700FCC0D6402BE07320286098C
:10226000D8063208E20A5D029704E4044603990F97
:10227000D9028F05CC08330F25029A0B470B780F34
:10228000320ECE028D0F7C0BD70C690DC90C330CAE
:102290007F0BEF0ABA0C6C077C0796045906F00E08
:1022A000AA0C8F06EA03EC057F02A00F110F610A4A
:1022B000BE0DE7071107E4005204D1069006900016
:1022C0009A0AAB0C1A0C5009BE053A0FF80CB3026F
:1022D00080073F0E540237015F0FEB0976099C0F10
:1022E0003700F507840FDC00170A9D0CA604F00BDD
:1022F000D904C104580F0B05100D5E007D0E450E6C
:102300002501050B3B083A0DFA009404A206430E82
:10231000BA0BAE04E00AD80D1F084F04590ECE0CBC
:1023200011089F09190DBA0C9D0B4305A103B30CAD
:102330003C04A8017E023109D604F0088400E80AB2
:10234000BC0A9908A00D1006BD043D0C1902170F18
:10235000D90D090C2908BE039A028905C00BBE0CD1
:1023600058093300650EC00EBF0FD80F2C07610649
:10237000D20E790A320770050A0A4903DC08B20551
:10238000CE0C9201310D280DC00C210AB004B40608
:10239000F402840D2803E3002D0A3F02C005250244
:1023A000B403C20D5F075D07830D1B0E1E0571038D
:1023B000F6055E0A1A00C00EE500E4020701D10F1F
:1023C000CB0F9403A20F3E0CEB020F033A0A070552
:1023D0008F08E80DEE06AD05150D530CE1050D0750
:1023E0004F0B980A190FFF0AD105540CFC0F5A061F
:1023F000070247055B0FAA03AF0B9000F901A00588
:102400002204BD09B8010700780E510B8206A90607
:10241000670CF30AFC09900E4E09FE0C840F930D15
:10242000A704F6083E0FCF0E7207280D3A0D650D72
:102430009E089801D80FB5024007890C9C0F4609E9
:10244000180F150A61080E0F5B0C130DEE04BF0F79
:102450009105B103650891096D0B820F27053D04B5
:102460008E0B880C1A06D10634005D031D0E560F24
:10247000EB09DF0E1D0ED20B000000000000000073
:10248000000000000000000000000000000000004C
:10249000000000000000000000000000000000003C
:1024A000000000000000000000000000000000002C
:1024B000000000000000000000000100000000001B
:1024C000000000000000000000000000000000000C
:1024D00000000000000000000000000000000000FC
:1024E00000000000000000000000000000000000EC
:1024F00000000000000000000000010000000000DB
:1025000000000000010000000000000000000100C9
:1025100000000000000000000000000000000000BB
:1025200000000000000000000000000000000000AB
:10253000000000000000000000000000000000009B
:10254000000000000000000000000000000000008B
:102550000000000000000000000001000100000079
:10256000000000000000000000000000000000006B
:10257000000000000000000000000000000000005B
:10258000000000000000000000000000000000004B
:10259000000000000000000000000100000000003A
:1025A000000000000100000000000000000000002A
:1025B000000000000000000000000000000000001B
:1025C000000000000000000000000000000000000B
:1025D00000000000000000000000000000000000FB
:1025E00000000000000000000000000000000000EB
:1025F0000000000001000000EE2A6115372F5D0A7F
:102600007E02E30842040E01220DDE060D1F5F2745
:102610005D1F17268B1BC306C919911D57110A2E62
:102620003629DC2D712FFE05FE2C4103C60C530705
:102630009811FA2B8A0BA60375221A046A1DA50CA1
:102640004807CF25C11743267F07D32A5E0D990D72
:10265000932FE225CA26F12A0010E40AC210650869
:10266000E91C0A22F923171D3B23A0166A2EAF206E
:10267000222ED1095A1B4000A20F47226712B91619
:102680007302482BC81DFC12370FB80D550DDA1A0E
:102690003926AE10CC04AE07FB00481CE51A3814EE
:1026A00013208625F12669267502EB13A00AF30B89
:1026B000B91D09130209E01EFC1F7716C01F1F0A6F
:1026C000771E910722212128541F49221415B20593
:1026D0001D286505690005261C00EE2C18109608BB
:1026E000C92BB9015B06CA292422C71FA0076213A0
:1026F000C4272E2135048218572FA70342230D0922
:10270000CA1B601CBE1E7F016A007F235313F6198B
:10271000142B990A8C1FF6246B27DD285A151201F9
:10272000D90720277A0C631FF40ED02E3B049C2976
:102730007108F5220E2A6B2F531C1A1EAC0C662F43
:102740001906281CC5080A07C11BD613D21D490A41
:102750001E0131125606962E072F33206025E604FF
:10276000711B30056A0A80016A25981F35067611AB
:102770006C22750BA62FBE12B42CD60BC611CE142C
:10278000160F2F137704D509B320B72A49173B2317
:1027900090107F1FB0123908790F7710961BCD1A51
:1027A000B210061CDC2BCC0340075F216912070A1C
:1027B000082CE108312ED4159F1A1A0F951FF51712
:1027C000741C8220CF16D0054C2C8C1BD90A1D13EB
:1027D0007D1307020219E2242C2E0B2A6D26CB2C26
:1027E00050060B078929120E63208A2E720E0F0ADB
:1027F000C214B91404175228272640231D2A442640
:10280000DF12CA1EF42A8A1FBB044D248F151C1028
:102810007326560E83279019AE2F26282C0E622180
:10282000B411E020D522E614BF015B085F2B8B0AB0
:10283000CD038201E21B050D0A0CA1177701AC1E26
:10284000642553079D29DF0E180A6D15F70B922199
:102850007A1D461439209D025F076A26FD19562D00
:1028600003147605DB0AC806D2097304D806461697
:10287000D22A5B15011CFE2DCA068524C5167809CF
:102880008801CE127113B31C16000123D40A040868
:102890009513A3038B2FFD05DE12ED025F04A7291C
:1028A00004057E1B301C0009CB0DD910AC27850414
:1028B000A00EB82F5A14901815080F2A8A26142A29
:1028C000F90B121C2A247D0A6B167C11D502D81133
:1028D000811B322BA214D81F0C15DD1B8702032A83
:1028E0009E2C862B54095D261005F60D1F28CF2E31
:1028F000F70AF127E215832F822C8E0C4411DB1688
:10290000F3107B1C5B20CF0D092A212CDD0BE42466
:10291000C42BE32682050008641F261A0C0934091B
:1029200034158A2C372C3D289815F1149C0EA31AC7
:10293000EB21BE0A8128F7158E0D9F24720C3B1FD8
:10294000C01B452EAD073D23C1285125A8163100D7
:102950007A0E6D1F1919590A9B17C508C916EC1F65
:102960002F0ACB25200183239A0D84026F060D17B1
:10297000462AC81FBD07142B75244B0F1D280E0FA8
:10298000A91CB92CA2210A28560D40080D0BEF08EE
:1029900039170704A70E04191106700824058E16AE
:1029A000A40A472BE6264608A112830F8109C52FEA
:1029B0004C0B660CC6201E2BED23B5030A11B6295D
:1029C000C30F091386247A1358031D104429901C41
:1029D0000003DD108D101F14052E4D0FE8004E274B
:1029E000CD16540B322A39235521EA133A11352AD0
:1029F000180E7D0F2A225A1DF01A8D203E1C5A2CCB
:102A00009D14D110F62C2F227C0AFE0C9E213F270C
:102A1000E81F440A6C2C1E26BF047B01B20A2B015E
:102A20006B286E134F0CB1090A2ED208F0243B0B11
:102A300054185C12781B330EDF29D714C011B91259
:102A4000AE1E281F4F221A1CA905AA0EFD095E04FE
:102A50003316A5036C2759062B1E18011D01152DD1
:102A6000E00C311CF113F81CAF06701D0C1B5D2D22
:102A700037189E12EE02B71A8E1C7827DC25FE2529
:102A80005216BC2E3D064F20600CB7038D25F11A5F
:102A9000F90CF5063414262B262DE604C90E52181F
:102AA000202A1A2FE4104F0AF3274F2D6128D41340
:102AB0008B21D3255027E91CB828402FDC09CE1BD9
:102AC000E4145F193109DF116F174724BC252B145B
:102AD000131D5F05C2262724E01EF0296217372D3B
:102AE0008019BF119922A503D50AD70E500D650E86
:102AF00058295C06A2009113510F0C17A31D142531
:102B00001E0E7F1FFB1FF42F0310AA03E5161A1CCD
:102B10006118D418050C7306D20F3A115418410FDE
:102B2000110D792CE01264043F287025DB08EF17A3
:102B3000C71A0719EB2E892A62023C27F028C92EF2
:102B4000462657100521330D5F19D525620AAA1AAA
:102B5000EF0E2C1B792C47252E09D102E32A4303C3
:102B6000E122E0129417C028E6103B0EB92A0512A4
:102B7000E811F428C6044012210CF2075223F31185
:102B8000EC1A182AE802AE0F461A4C1A5D22641D90
:102B90004F2E6A0893248E049308DA2B0B1A350201
:102BA000E22BD92F2713B112DC0F232AE51D79243C
:102BB000880A331FC32EDF17A4134A0B990C9E2AD1
:102BC0001A06BE02EE28D513062A4B22BC1BDA27B2
:102BD000F7297C051D034722E703D3240B25620751
:102BE000EA25CA2ED020D02A391C8C15DC1A98066A
:102BF000EC0194272822A3298111812C60112B221A
:102C00000D21612FCB16FC26970DA528A91866214A
:102C1000640297136928C01F2222DA0DB72EAE0F67
:102C20004618C900780142076B12FC0FE60EDA2E37
:102C3000271E320AB50AB129A62DC8148E0C6B19AD
:102C4000D402012C2800080F17077C163C159A287F
:102C5000A40D9012211731006605D01B6F015E0292
:102C6000AA09C629E62C67060B0F242D502E2D1419
:102C700026107803BD22CD02B3228B01FA0CF50594
:102C8000AE2E6D121F1176244628B320E32E46097E
:102C90005E22AE1E65013A03AB0AFE01A507992923
:102CA0000B0A3C2F521A5008611A6725202E8014F7
:102CB000D31A8008B800B004932E3607CD169C10A6
:102CC000ED178315AA151807550DA7233919C90E35
:102CD000402B66213922CB2A84135E1A5D0AD81450
:102CE000E328AE09F30F2C0B950111203C240F248F
:102CF00014136E0ACD19A4162B1DBF018A21E410EE
:102D00000F11522480027326B61789138B14010504
:102D10007D2AC113DA108A2B0B20A4090E25E50C9D
:102D200035009127250E2B29D3111A1CCD270A0E09
:102D300032101211C00F6205141A81133F26F717C3
:102D4000CA2FB90EE6077D139B0236151616A3147B
:102D5000D821E208A31ED0210C281F27A1060E1699
:102D6000EA06C515042A071EE913E220572F0F09AA
:102D700013284B16EB19631D9C0AF4038E191420BB
:102D80006100761A221E9E1BBC0053193F20390594
:102D900073233825D62DC62A562F7401AF283E2618
:102DA000F42C2928B12B841CA61ECC24C1029E26FB
:102DB0006A2C050254276A05B001DA2BED1DD225D5
:102DC000590F531B330D6209C90A2429BB06FC297C
:102DD0008F21A922090E0105760D0E1F4C15222800
:102DE0005427C2197D04DB252F00832D681F6F1A1D
:102DF000A6109B019807C90E76020B033B062D1CFB
:102E0000BF2CB01ACF292D2E7C2F572D950E1814BC
:102E1000D60DC108192325194227C905430E152CC3
:102E2000831FA51D571DB80CCC1E0F192A03600C5B
:102E30007F1CC50EB225D707C515D32FBB1DBA09F8
:102E4000AB1FC71AF323BA02C326950FA228581C3A
:102E5000AD04022019137A16B428E028E5035803BC
:102E60002019DD2D93163308161FBA151F16E526F7
:102E7000DC08370D2905B804E90091228F19D30128
:102E80008921150A07286229EE00300DA402700876
:102E9000F81A1914E3056805EF2680256321EF2C45
:102EA0009F235C1D9F1335042D0D79137304590264
:102EB00042230612F510FF0AA726F414CB03FF22C3
:102EC0001E26C0096922E11B3517FA1D2727D815D0
:102ED0001A0E5214A1248B19AA02940E66223602ED
:102EE0002E266D282C05F11C080D06011E1E6411EE
:102EF0009907332B5D011D169618BB082C04AB11E6
:102F00009A056D10160127129209470906034C20F5
:102F10001A19D7185B1712108B239E13CF0D172881
:102F2000471C371E9625A72DA828EF024221F1271E
:102F3000162CA42A482369151D077519231E940B06
:102F4000D00D5201301EAA22570E0627C92796051A
:102F500027223423F528422B011D0B013005AE2812
:102F6000D70B40241629B80C8B1FCC1C9E09C01C03
:102F700016248F184D299012C60E450D0E29B9162C
:102F80003F13FC09050F4815160F810B5D2600162F
:102F9000380BF414C527642C3E2A1B2F12175E250C
:102FA0001514872CE91D191AD717D51896252B1239
:102FB0000D0BD129541E24284E125012821866245B
:102FC0005912BF028922D01E6A030429EB0F231174
:102FD0005301090548293B0FE101130A3F23440E21
:102FE000E229F72F522FC0274A0F8C074426E815F5
:102FF000A810BE24BF216C15DE23041F8515041301
:103000009B1A08189421A42E0E184F2F9D1A63287E
:1030100073056A1B1C0FE40BB11D8610EE22911B79
:10302000B903E117E328AB1A9F0BB6226006A90C7F
:10303000392CD5052D1D501B552EA5297A26F62D88
:10304000B316941B1E06C905B2156014B318631994
:1030500044034F0ADE118808A3279B1C5823572FCF
:10306000841B9709982FDF06A70F780FC823B11D7F
:10307000C125772167033B17511F0A2296013609A4
:103080002B0EFF050618E82EEE03472F7E0E431782
:10309000941DED0C97212D0C4F2EC8262320C21D08
:1030A0003615BD1E3716DB0BB80DB0286C00C024DA
:1030B0005B115911EE25E617ED02D40D3F1A8C274E
:1030C00096071D14452D1911AA12DE148027B41F6E
:1030D0005508670038240F160429C30E74269A1564
:1030E0001B113B2CB624411F5A25FE2C9B2959004D
:1030F0000921DE08F0006F0FC20F8023F30C41118D
:10310000DF2B0B21C61C9601132693102A17AC1235
:103110006A276117851FD6068023B3018B10F92813
:103120003001592593295105CA1D7B1AA32CE2238E
:10313000AC12FB2FE92BB11F1108641FBE0EC9246E
:10314000AC145B0AC1004521CD16CF20691F2F2585
:1031500019186D0937109F04481BFC1BF9081D0C3A
:10316000E5016C024E0F8629701C4300510C1A04B5
:1031700079210D0BC8057522EC12F31A7E21270860
:103180002B29672FC609690B9D263E11BB12A71973
:10319000692C9E2FF01A8E19071F78293E0E6C0A93
:1031A00042162E26AE2AE202F02D542CA326A107A9
:1031B000D71D75094E22150A50063D1B0817080930
:1031C00024090C20341C7607590E0F1A6C2AEC2A9D
:1031D0007E2B7328A30E4106C622742E282A78154A
:1031E000540C5B06100477265605E520A01EDF254B
:1031F00068228E083C12DA178F119F05F002000C2E
:10320000A01A9D0D230D49033E13F5177F0C3814AA
:103210007F194802DB19891AB21A0B0A5B16F606E7
:1032200047046812BB14600F58009D1984122008CF
:103230002907150093116607670C5B0B2010951783
:1032400017162201581248017113580EBF1539186C
:103250001E15FA0A261032133A0FBB171A0E680908
:103260001A020F1D3A153C10EC12D502A61B45019F
:10327000BD0025053C04470E7D15A60FB915761235
:10328000140D931B180DBE0000017407DB14EC1B1A
:10329000AC1D89123D0E4A065E04580E240D351DE4
:1032A0002804A30CF202E211A1184813980081151A
:1032B000D117FC0E941D8E17F51BA80DE3004915C0
:1032C0005E06B50B5D176C045115AB0A04029F0C2A
:1032D0009217500BA9077217B208C5036405D20CE8
:1032E0000512A014DB060314770A6807E708E51641
:1032F0005301A616E109EC07A017A8078A13C0110D
:10330000550B290F0C1AE41B4A07C602140C571759
:10331000B40BF8086A13BE014A017F067A05040F50
:10332000F504BD123D18F001000BA3017C1626091F
:103330005109231640126C08A107870E4303F100C0
:10334000C009D316C917711AB4084C05E71CE20767
:10335000CF03190DBE0AED165F1C6C0B470527182D
:10336000810E6C072717DA0CF509CC121E0896128D
:103370007B19F812A304E4139E1CE21A740ECD0C00
:10338000D41AE11BF3089E048004B70CE410020277
:10339000F40F3611D413990BCA08C6134E13551DDA
:1033A000540D91086619041C9E142A123F01530300
:1033B000C313191D601C490F3F098D0FF8128805B2
:1033C000DB18121B5511321394142218C017121453
:1033D000D906DE08F617DA05061DFE00450A1A0BA7
:1033E000B51749168D1AA5117A10B215841B1B1634
:1033F0007D00E000F4185914FA0D1006750F9E0DAB
:10340000D70555048F0AAB13E8007E16740C5706D7
:103410007819910A9902F209C516840E0B117317D7
:103420001301470E6B1A79112912C81D2B11A8140C
:10343000ED049F11570B58084C0E2F09D707B10206
:10344000DC040E12941C0B007A074E1092192F0BFD
:10345000E610B600FA1A050855176317600DD00577
:10346000440A19002614191B950C1D17D906F71DBF
:10347000DD07811D3D104A0A381324127A0D4A00D7
:103480001911881701122D0F190152149118D31018
:1034900000108109FF01DB042D1AB31C0F017A040F
:1034A000C413F819C3039E033A11C01D181CB403BA
:1034B0009F13850C1A1A860418049109CB07900DE6
:1034C000AB15E019680C5E18B511040BC514B414E3
:1034D0006410D50AB917961CCD113E16A506D6095B
:1034E0004B0BDC01A4182910C80F5E19CA1DA90CCA
:1034F000850A141BB6157F1B900E1314C4072711E1
:103500000C10C508E00DCE0BD813C110F906B2029D
:103510006E1CEE086E0987122B1D75003D152718CD
:10352000A60BAC1A3D037F071901AE12410C13071D
:10353000CF00C90347110803DF1C86137702C201BD
:10354000F202DF06F40E2E0A600B2E0B850904131F
:103550005403E40BB8010208101ABD00C21AF205A8
:10356000C710791163160E16BD07C01183163B17DD
:103570001F1A4D1222092B17170278079F1C5C1D7A
:103580009806AE0FD31A050F890579076419E50D62
:10359000E60B78030917EF0A48139612A20C2611BE
:1035A0009211AA090C0AFB1DD9188E0D02041417DA
:1035B00032024418C31B02098716DA12871B041C47
:1035C000D1192017F11C4D175C11E80EBE0D791DA5
:1035D000300505123C0ED514FA0BBB0CB50A1310BE
:1035E000F0147E1AAA0711090805EE04F618A705BB
:1035F0005617531B8B042117A30F001168007D0C75
:10360000930E2B0CA4145D052D026007C50AA800BB
:10361000F40A28188808351DC40CCE0E2E178F1AF0
:10362000D21357130C144E12BA0AA61C8A1CFB168E
:103630004D10BB03EE093219EE11800FB814A70C20
:103640000A037B0499147A11ED13A70E4D1CF71A87
:10365000D0072F0F4917A5083E1B500D6102A10B83
:10366000510AD817FC1C1907F70F2416C703631A51
:10367000691C7E00521B7E09470A08017615481D09
:10368000CA10841727038C06E113B6119801850E22
:103690005007721B8E05B31C3B11AB12770EBF0394
:1036A0007106A703DA0CA81407012A138F16B401B8
:1036B000521200155111E207C7028C1B020BEF14C6
:1036C0001E1CE41B0215F80B00124408D602B017AA
:1036D000A100AA1A2911E1048E00841BCA09CF0592
:1036E000670592183702F7064F12F11009020C0D08
:1036F000C2193417791756072905D012F40AC21DCA
:10370000861228045B1CD30D7C15F5189502AE00BB
:10371000060E8E0A7D11631AFB033606A006220CE4
:10372000CA1DC2026A194E11A30A5309CE147307A7
:10373000730FD60AD0112D0ACD03E7018A0FAB17FC
:103740007B00D71B8012A407C40C521C271A6216D8
:10375000C1128417130A5317B210F318440EF20F54
:103760002E00E70CD215C20A6502BE0BE809D70C81
:103770007910E8158014BA02F81A3C16A800EE1366
:103780006102C512F5180D1A6308D9141504FF0952
:103790008F1D6616560D6502E101901DC507111DAE
:1037A00072015E089711CC1B1E077F198416EF1754
:1037B0008D10DE161909A20D3B0183061314D014D7
:1037C000830E8E0104027311341C1D18410E5A0D14
:1037D000DB10111D000A8912ED18AB04C71BB008DD
:1037E000D213A619D80EC01ABF06AE1DA810A31476
:1037F000C3063801860F3E0C1FFFFFFFFFFFFFFFD0
:10380000FFFFFFFF5CEF2C248806C827161ABD189F
:103810009186506BCC065F204344C125BAAB5F82D2
:10382000BCDB43B35D62CE65D7D9769FAD23BCB117
:103830001411F551EA9BE2F4D6DDB5ED7E1526D5DF
:10384000F58A99474919B8C9E7D2A137FB511781C1
:103850002753B7B8E8A773D9FE151BD0928596D326
:10386000148CB49FFF487508BA9F720807E44D0096
:10387000FFC16686270CFC821A5409BEFFEC8AC37E
:10388000C159431BFDC99BFDFFFA7DF4B6E92C2805
:10389000A6FCD4C0FFFE94BB4554B5AC4B869C62DD
:1038A000FFFFAADE1B1CAA95EC72329EFFFFEDDC27
:1038B0001C6436DC337F6316FFFFFC7C9DC2569A86
:1038C000D95E7B2CFFFFFF61BC337FED8E0B132A8B
:1038D000FFFFFFE6B3CF05F705B9D725FFFFFFFCD4
:1038E00053EA610E99E8F72BFFFFFFFF841943DECF
:1038F000C6E2F0D7FFFFFFFFF12D07EC4745913CF3
:10390000FFFFFFFFFE63E348EE62D420FFFFFFFFEF
:10391000FFD762C7064A0C6CFFFFFFFFFFFC5E3754
:10392000C672F3A6FFFFFFFFFFFFB48F6ABEF8B0B9
:10393000FFFFFFFFFFFFFA72697598CEFFFFFFFFE1
:10394000FFFFFFA112F5A30DFFFFFFFFFFFFFFFA2F
:103950004016ED3DFFFFFFFFFFFFFFFFAF22D9AF96
:10396000FFFFFFFFFFFFFFFFFBF88681FFFFFFFF69
:10397000FFFFFFFFFFD16385FFFFFFFFFFFFFFFF9B
:10398000FFFE16FFFFFFFFFFFFFFFFFFFFFFEDD36F
:10399000FFFFFFFFFFFFFFFFFFFFFF62FFFFFFFFD4
:1039A000FFFFFFFFFFFFFFFAFFFFFFFFFFFFFFFF2C
:1039B000FFFFFFFF1FFFFFFFFFFFFFFFFFFFFFFFF7
:1039C0005CEF2C248806C827161ABD189186506B08
:1039D000CC065F204344C125BAAB5F82BCDB43B356
:1039E0005D62CE65D7D9769FAD23BCB11411F55178
:1039F000EA9BE2F4D6DDB5ED7E1526D5F58A99472A
:103A00004919B8C9E7D2A137FB5117812753B7B875
:103A1000E8A773D9FE151BD0928596D3148CB49F5A
:103A2000FF487508BA9F720807E44D00FFC166861B
:103A3000270CFC821A5409BEFFEC8AC3C159431BF0
:103A4000FDC99BFDFFFA7DF4B6E92C28A6FCD4C085
:103A5000FFFE94BB4554B5AC4B869C62FFFFAADECB
:103A60001B1CAA95EC72329EFFFFEDDC1C6436DC59
:103A7000337F6316FFFFFC7C9DC2569AD95E7B2C78
:103A8000FFFFFF61BC337FED8E0B132AFFFFFFE6C4
:103A9000B3CF05F705B9D725FFFFFFFC53EA610E49
:103AA00099E8F72BFFFFFFFF841943DEC6E2F0D74A
:103AB000FFFFFFFFF12D07EC4745913CFFFFFFFFA4
:103AC000FE63E348EE62D420FFFFFFFFFFD762C72B
:103AD000064A0C6CFFFFFFFFFFFC5E37C672F3A6C1
:103AE000FFFFFFFFFFFFB48F6ABEF8B0FFFFFFFFCD
:103AF000FFFFFA72697598CEFFFFFFFFFFFFFFA17E
:103B000012F5A30DFFFFFFFFFFFFFFFA4016ED3D8B
:103B1000FFFFFFFFFFFFFFFFAF22D9AFFFFFFFFF58
:103B2000FFFFFFFFFBF88681FFFFFFFFFFFFFFFFA7
:103B3000FFD16385FFFFFFFFFFFFFFFFFFFE16FFC3
:103B4000FFFFFFFFFFFFFFFFFFFFEDD3FFFFFFFFC3
:103B5000FFFFFFFFFFFFFF62FFFFFFFFFFFFFFFF12
:103B6000FFFFFFFAFFFFFFFFFFFFFFFFFFFFFFFF6A
:103B7000169D663815B5D2C5338FD49342BFC7584A
:103B8000911484193367F3136BC0FE8D1F875BDDBF
:103B90005762D68790072E405BB8442B97F1A81A3E
:103BA000AE94F7B098016AC1AEF5322CC71608A4DE
:103BB0006B1139E86300695DD9CC4B2C7D82AE5A1C
:103BC000DA7B2067E76736E14A33C67AC11B2F5E8E
:103BD000F0D26A55718015067D9967B6F707CC5DFE
:103BE000C017FC28AC8EFF15FAED55D31B444D349D
:103BF000A0BB6CD8FD4174E9EAAC002333C0831349
:103C0000FE94A61B57461C3BE176D7AEFF4C69E1FC
:103C10002EB9B53DDB01EC4DFFAB354FD93335FF48
:103C2000D75408A8FFD9C49D2062EBBA59D4E12B20
:103C3000FFEF8AD23665A37F9AD36802FFF93CED85
:103C4000F2365A71C3296987FFFD5949AF8EFDE2EB
:103C50005FF27E22FFFF021D5770A7AD84CB46BAEC
:103C6000FFFFA56824BF3ADB92CFB26FFFFFE12BC5
:103C70002F904C12837B15EFFFFFF5FE6D8AA47128
:103C80007659F8B3FFFFFCE74E4E01DA9FCCDC011A
:103C9000FFFFFF162075DD64FFB9D67FFFFFFFBE73
:103CA0003893D24D60CF0734FFFFFFEE5D53C6EB74
:103CB000660F6277FFFFFFFB7E5464357C3244ABB6
:103CC000FFFFFFFEE70785D4687C662FFFFFFFFF3D
:103CD000BEC97A2B8FF2DE2BFFFFFFFFF1938E36EA
:103CE000E200B45DFFFFFFFFFCF5CAA4B1CF267E62
:103CF000FFFFFFFFFF63B8E623F9766FFFFFFFFFCB
:103D0000FFE21926B5A65883FFFFFFFFFFFA8C8B51
:103D1000FA0B21E4FFFFFFFFFFFF0DA4A2A3E013B6
:103D2000FFFFFFFFFFFFD7E67D64B889FFFFFFFFBE
:103D3000FFFFF9ADEF92368CFFFFFFFFFFFFFF0D96
:103D40000B5B09EBFFFFFFFFFFFFFFDD3FDDC6CF92
:103D5000FFFFFFFFFFFFFFFB43EEC503FFFFFFFF7A
:103D6000FFFFFFFF62B2E2E4FFFFFFFFFFFFFFFF85
:103D7000EC8E172CFFFFFFFFFFFFFFFFFDB5E2EA10
:103D8000FFFFFFFFFFFFFFFFFFBE44F8FFFFFFFF46
:103D9000FFFFFFFFFFF8FAA2FFFFFFFFFFFFFFFF9C
:103DA000FFFF4925FFFFFFFFFFFFFFFFFFFFEE487B
:103DB000FFFFFFFFFFFFFFFFFFFFFE5DFFFFFFFFB6
:103DC000FFFFFFFFFFFFFFDAFFFFFFFFFFFFFFFF28
:103DD000FFFFFFFCFFFFFFFFFFFFFFFFFFFFFFFFF6
:103DE0000000CA1093035D142607F017B90A831B5D
:103DF0004C0E1501DF11A80472153B080519CE0BF6
:103E00000100370D85074419BA1BC006B01A0F020E
:103E10008E094D096100AD15580A5A082113AB18D7
:103E20005E1B2515FB18ED11020758044912A21458
:103E30006D01CB16460EC10AE1086E03AC134A01B0
:103E400035147D0B790D1002D60A35177706B91B8C
:103E5000F709AE10D4093804410B031BF300CA0064
:103E6000080C6C10251BFF11B2064C1BCD10A509C8
:103E70009C18AE16E21AB7029B1877095D137407F7
:103E8000B819351926023807EC073706A0070516BA
:103E9000E013601C6504C40E631888135312C30238
:103EA0001B0C791BFF13FB116F178705CC0DC1127B
:103EB000201A5F13140481181C0B2012C416161A42
:103EC000C605001D6C0CBC118718340FFE12350C92
:103ED000FE13C404F413A3161310010CD8088304B2
:103EE00070038D115410DB0033063B1DF215540B8B
:103EF0000807A01765033516510B6C1C3F01FD0E1A
:103F00005B04A202300D821B180B4619B116090F73
:103F1000170206136D025A0FC80BC80AF51935159A
:103F2000710016179909A504B20CA70C4C0F98162E
:103F30008B1DDA00D00C0C13B21C9B0D49011F1B0A
:103F4000E91BC51B0F1464138014790C5D07BD06B3
:103F50005B096F19EF064C17790626183E08B10960
:103F600019030208371609174E180E0C6F0A410C78
:103F7000E20F90186F00A91A870BEE154011281D4B
:103F8000AD162F163319DC07BE0BA71CC50A950802
:103F9000BE11020E44098815A7078318D91CEB121D
:103FA000D819071CBE029D050F19300C8415E31BA0
:103FB0009619F61985104D125819BF105E00090C9C
:103FC0008C10CB14971241016E0E481D89171213E5
:103FD000641CFB02D70EA8066C0A9D028013EA132C
:103FE000511693067E17BA173B0BBB07D70F381D28
:103FF000D308731C69049E07271044063709C31DA4
:104000000100CA10BD047C16F21B51034117470280
:104010005605E00AA715A9135408A01DB41473147B
:10402000B71C550A931A20154013BB0F3607941C72
:104030005F09B80BA919FF16140C0605DC08A302CA
:104040008D16A40A8A1466054A1B1F0353076505CB
:104050005C14340DB5024F17020CDC02950DF911FA
:10406000371D0E1DFE02C012C9192D14530D0A145E
:1040700048028A17CC062B13F11B88108412CC0936
:10408000040FC21C9501B012CC079C1A6106F916E8
:10409000AD120F08C600CE17261DAD0D740C911A77
:1040A0007E1929150012EE0D5E070D0A3D19030A4F
:1040B000CC11030BCD0E7A05450C951101013B186F
:1040C000EB033D07E10BE5128005ED19A20AE103C0
:1040D000400B35107A189206060C020A8802E61187
:1040E0003E1BAE0B790A9E053D0F9C19A101210ACA
:1040F000FC076116CA171516C916DB1BCC04490448
:104100003E00CA14BD17DA0D631698198E012E15DC
:10411000C9002A0E4616C612470683066E17B00758
:10412000170A810A641B951359172A0F061B9D0154
:10413000EF0A7806B900930FC01C6A0B3609750D9B
:10414000F811A31D420DA904B40B7C0D0B046B04E4
:104150001E027D08D111F2046418431BFA012904E0
:10416000160B28017E055A167908BD14FF0F430C63
:104170006C153C135A0143122516CE04D20754077E
:10418000D900C10C13087A125803921D71051F0E35
:10419000C0119213F311B305F806CA07FF15E81A08
:1041A0005014C315DB058817B50612179204A61420
:1041B0004417A416881181099D0AF2093C021802CD
:1041C000E202B81C66104F01F50A3111271D760076
:1041D0006907B50E5A114F115C196814EB06901D52
:1041E000CC080C0439133912A70E941BFB0AEA1BE6
:1041F000F80E5007BB04E9127F02D1105F1BA6190D
:1042000015049FBCBE00D73996E8E14F3E2C61BA39
:1042100049F1FBA59996477164CB9FDC91E1555B11
:10422000B31F275B87897F2EE28CF0D2D9DA78C260
:10423000A57E0A3C8678E5064215098BBE3FE0B7AD
:104240003D8669903F4D0F65D1DCB599BD0A9DB1A2
:104250007CE4C58BE0C14476067D3E305FF31D45AE
:10426000EB9845638DF728C8773B555DF328529747
:10427000CC8204F9C206A50FF8370B752265B7A4E6
:10428000E21B8B1CFB74FA0AED641CD6B3457BFA67
:10429000FD72E95DCB90B9843B033A7EFE9F3CDD25
:1042A000F189857B76E9E9C2FF48C7AEEA6E1E5008
:1042B00098C07845FFA485AD7497E5497378B9C176
:1042C000FFD41B54F3D6E6758E6C07C3FFEBC3AA6D
:1042D000A25615EA0CEDFE24FFF709D278F1886D9D
:1042E000792F6016FFFC3030182D40BCA5300B2D07
:1042F000FFFE716E2F9861032EA855C1FFFF63B1B9
:1043000081E1E7FC7B6E6CD0FFFFC5270427CC5909
:1043100069F93982FFFFEABBA41084C41FDE2CA513
:10432000FFFFF89F8D25A197B5504111FFFFFD8B31
:104330005C34AEEE1F6D1188FFFFFF372F0CFF07B7
:104340009E5B35C7FFFFFFC272000FA85EFD1B100A
:10435000FFFFFFEDE58F2B98C30F3B2CFFFFFFFA0C
:10436000E454266259A1D57EFFFFFFFE9E052E680C
:10437000C3A7A0F3FFFFFFFFA41456A589B0ED6EFD
:10438000FFFFFFFFE91A5D126693FF8BFFFFFFFF40
:10439000FA8774BC789C428BFFFFFFFFFEBF0722A9
:1043A00019E65202FFFFFFFFFFB97287727973C0EF
:1043B000FFFFFFFFFFF12057546BD457FFFFFFFFB4
:1043C000FFFCFE25F50680FEFFFFFFFFFFFF6AB939
:1043D000A8AAC85EFFFFFFFFFFFFE43E08F1E93037
:1043E000FFFFFFFFFFFFFB0CDBC2C9B3FFFFFFFFB7
:1043F000FFFFFF275197372EFFFFFFFFFFFFFFDC77
:1044000078306775FFFFFFFFFFFFFFFA69CDD8FC2B
:10441000FFFFFFFFFFFFFFFF285E0821FFFFFFFFF9
:10442000FFFFFFFFE0D3801DFFFFFFFFFFFFFFFF48
:10443000FBADBF7DFFFFFFFFFFFFFFFFFF6CF7300E
:10444000FFFFFFFFFFFFFFFFFFED4322FFFFFFFF27
:10445000FFFFFFFFFFFDB5E3FFFFFFFFFFFFFFFFD4
:10446000FFFFBB57FFFFFFFFFFFFFFFFFFFFF84B03
:10447000FFFFFFFFFFFFFFFFFFFFFF2DFFFFFFFF1E
:10448000FFFFFFFFFFFFFFEBFFFFFFFFFFFFFFFF50
:10449000FFFFFFFF00003A2A7324AC1EE5181E132D
:1044A000570D9007C901032C3C267520AE1AE7145E
:1044B000200F59090100C70536201A142610991932
:1044C0002F2D19051D198623452B6E06DC21F109B8
:1044D000B00D2B22BA2A72139116000D3D19621CE1
:1044E000EF11A119B80ABE0B9F0B3302B503410AA5
:1044F000B225D512D60203123D078C00D00A6306FE
:104500009F109904C326EB0B2013930BE803E010D4
:104510005100EE23F6082604E10D3C1D81213F0CDD
:10452000BB0A131D2E05231C3B24810C1603BB0361
:104530009204F226FE14EC247F2F0211A5269D1E64
:10454000E00C9420CB136C278B2F55267A19C62CA0
:10455000A40EB903DD099C2A000E51107D13D3145B
:104560004B1F8906E12D6219AE2EA409F82F032CEA
:10457000212E1A0B17171A135C0FAB0AA615702FF2
:104580007E22CC218710F4096301CB227B0EDF064B
:104590003B146E0E2908E4132D23C0245823282D24
:1045A000D90C242861296D2AB32E87267B16E91D94
:1045B000DD1E152B252E3622D81C7020F9298208E5
:1045C0005D2EB7150E2F3924622DB80B400C471401
:1045D000480D5F09D00FC908440B81048F23E21AEC
:1045E0004E08A3294B222D1BD0244209990B8A0F78
:1045F0007E0AAF0C352A1F13DC0AB61BAC252C2013
:104600000109B213ED1E83273E111F0BC70C282092
:104610006829DD22F10682292E1292057125561B8A
:10462000B71CCD21AC1E0300B423A00037137100CA
:10463000B6208B2789289F2AB301F110B426441590
:104640000010142E5123B704641B712B2512940102
:10465000A2272904760997178B08060A56247B1887
:10466000C32185096B03C40E47067013BC10211CBF
:104670006E1C172C2102661C8921760A2F10971DAB
:104680000F2F002AA005B30EFA0BE62FDC13A12989
:104690001513082C1504D624B1096D1CBF19600B25
:1046A000041D9F2E3F21F90EFC2C7B2E2B04ED13B5
:1046B000472EA026E604342C3B154F057F28DA2030
:1046C0009E0FF1077E01C52E940F2D2E34188321E5
:1046D000BB1A261BC006712EF917AD1C3B0E271501
:1046E000E616091838008223AB1B99153E285B2972
:1046F0001422732DFA03DC181104BA0DC6154C28C8
:104700002809FE043E1BEB0FCD1CE4100A0288278B
:10471000BE0C2A1C1A04B811BC1AED207B0A5B2BB4
:10472000EA0E1B18CD0E93005015A01E741DA11586
:10473000B5127311101244184223100E4D18EF21B8
:10474000F00FA5015D020327092E75100319531DF3
:10475000DA15D50B8D1FCF0393221C0B5104732F39
:1047600031166C227817750391135D28EB033522FF
:10477000F1003A004F086A2F170B8C20EF18C90977
:10478000AF01D6299B233400CE0AD62A080DA717DD
:10479000F2165C2D0108D11CD82AC000750D551DDC
:1047A000A71D401CEE2C9A0D0F2C5C15370C4910E0
:1047B000680B7914891407211F1751116E15EE0B20
:1047C000D306330CC709840B6B191E064000B921B0
:1047D000562D66264303B117F20D711FDA2A4E0CCF
:1047E0003C2D3320E327A92B1F1F5B28482E672C65
:1047F0002204EF0F501BE7178D20B12AB00440149C
:10480000FB09EA17C729AA07F213B8187D25A800E3
:10481000371F0023D10F900E7A2B9B18B4037A0414
:104820007C05BC2E670BB20E1420B00F752D7B19C2
:104830002E18DA2EF42A8112A612CC1AC501ED1810
:104840005F2E45212C1BEF070D191827652FCF0A66
:10485000810F6A200D07420B03085F288F09031898
:10486000C12D8620C90D9722272FA5243307C826DE
:10487000EE1F2B246F1DBF28AA01F30C9424A62E33
:10488000AD0EB7072E2D532F6429C10BA225671635
:10489000EC16B20A741E820C0908081BFA1A1707D4
:1048A000A32E192A36172F06D105C409362AE61871
:1048B000122BD02F01003A2AE71BCB0FE82AD20295
:1048C0006816DB1FD60D51221026250E9329BC0435
:1048D0007B0CE4162C1D4F0AC0254C2CCE2D6224D7
:1048E000432449256016121E9F13C4160123701914
:1048F0008F1C47050F096F2B462CEB2C8023C60B12
:10490000DE13D32AEE124625C223800EC5122022C2
:10491000DB2B0B27130CB02F211F192C6E24E11C4D
:1049200016243E09682B621F9E293125752FC42845
:10493000FE1D2B2DEC042411181286197A094E0144
:104940009405A006DD072823D902A90C410BD40C3D
:104950001D1CD8279321C61B22298621360D9E2E89
:104960000D267A1F350E830D91005B1A5625A52062
:10497000E71CEA18E724E001FE0309005D26530165
:104980009F1620027829B6102E1B841CB01F01220E
:1049900065052426482C5D213B038716AC0976006B
:1049A0009508361C6D0F212364115C09FF1E8200DF
:1049B000150B031B6109BA01141CD62B86010503D4
:1049C0000821C20E6201FD12A12442169413502642
:1049D0002B0BEC2BF903EC1C6006251C1B00072499
:1049E0004E21612A0106F2006A12D21F8B25780E31
:1049F0009B13E02DEA039313E013451F911CBA2982
:104A00003D21962C7C263E0E8617AB0BFB25762788
:104A10006A188B26D82B5F086D2EDC1D90049D1420
:104A20004A2BB00CED010120BD1A4D09101F4E2E6E
:104A30006205780776084B0F902FCA1C612F4D0C2A
:104A4000FE2F5511340E4A13AB14900A6F2AD31D52
:104A50007F061029240D9906D90F3A23E224C31E9C
:104A60007E0814114F1C0027D50F550A4B1425251D
:104A7000E21CCC055223832577206824BF26310B06
:104A8000D414B60D5E06B3271F15720C802BBD24FF
:104A900038273120A226B922BA1BC12349249F02FC
:104AA000C80BF3004A1AA4017F270806910F2913A7
:104AB000CB0DDC013100EF041B17CB053D26302A5E
:104AC000D229CB18E8055E01EA280715F914F82762
:104AD0007F238D114F2515199A195F0A40249D06D1
:104AE000AE00D3024A2854215B016D0B0E23572ED2
:104AF00042079212D60B13103909CE285C0BDA004C
:104B00006A0D38227B0F4002FE177226A207FE278D
:104B1000BF24F428970F802032259C00E908F41662
:104B20001228D514BC0EA20114173C2E35155B1D9E
:104B3000801D0D052701D31786168C025120ED0F1D
:104B40004F219A244501852A872B4D2C661787040F
:104B500071213020010DCA10592F840A49170F1CEA
:104B600057283A0617180626C11B512B5005740FFB
:104B70001A18B1141220DF2B9A03B901A607E2100C
:104B800058041E08CE0FC502B323270590100F222C
:104B90005018BE2C9B09AB02480EC12FE329961674
:104BA0007D243A26CE232E291324931AB01EE21810
:104BB000FA0E781B881B9924B81FCA23A51AF20382
:104BC00067221303C1135A12AC128C22412F2905FC
:104BD00030130028A5020F195A18F9222B05332586
:104BE000CD2F660C2B06522E38261217750FEA248D
:104BF0009700B227C72F102FCC0D162CA407701CBE
:104C00008C2C8918950DD0198E00B02BE5246E0DD3
:104C1000322C74102C24271AAE12FE168C1FF801A9
:104C2000FE08A42D5C2E1120120EB417F121BF0C2A
:104C3000BD17F11D8E1E4C1D601A8D126111B11A27
:104C40006E2F3421E6171721A6048625140F45156B
:104C5000491EE72BD71343237908F72D1D1F341363
:104C60001620C314032BD926B5073B1A4722F02B75
:104C70002517072C8E02ED0DA606C307681A5614D9
:104C80007F0CC92FF8171B19DA1AC62154130818FC
:104C900090014129DB1446157E0ECD17D4016D20FD
:104CA0003C01832E10286320270F8207B22AC61AE0
:104CB000CD031B2B11241FBECFEFCDBFDFE3DEBF23
:104CC00000E00CBF18BE19BE1ABE1BBE13E2A0E066
:104CD000B0E2EEE1FDE800E00BBF02C007900D92EC
:104CE000A23FB107D9F71BBE24E2A2EFB3E201C095
:104CF0001D92AC31B207E1F70E945B2E0C948D46F9
:104D00000C94000021E03EE1813093071CF0821BEF
:104D1000930B03C0239520602A95089501C0089540
:104D2000869F9001979FA001969F6627300D411D99
:104D3000561F879F300D411D561FBA017695679506
:104D4000CA01A32FAA0F881F991FAA0F881F991F96
:104D5000AA0F881F991F680F791F690FAA277A1F4A
:104D6000BEE1B69F261B370B3019B31718F029F494
:104D7000213018F021503B0BF8CF1124822F932FB4
:104D80000895869F9001979FA001969F6627300DFA
:104D9000411D561F879F300D411D561FBB27BA016D
:104DA000CA01A32F690F7B1FAA0F881F991FAA0F83
:104DB000881F991F680F791F690F7B1F880F991F24
:104DC000880F991F690F7B1F880F991FBB1F880FC2
:104DD000991FBB1F690F7B1FB0E3B69FC001B79F30
:104DE000900DAA27261B370B4A0B381B490B413065
:104DF00029F0B31718F031F4213020F021503B0B8B
:104E00004A0BF5CF1124822F932F089521E030E330
:104E1000813093071CF0821B930B03C02395206005
:104E20002A950895AA24979F802C869F602C112D87
:104E3000969F100D811C879F100D811C912E8694CA
:104E400097948694979486949794869497941F70D9
:104E5000892D982D880F991F890D981D860D911FFA
:104E60009F3038F009F002C08D3F18F08D5F9F40F1
:104E7000F7CF08950F921F926F927F928F929F9219
:104E8000AF92EF92FF920F931F932F933F93AF93A5
:104E9000BF93CF93DF93EF93FF93002777243327BC
:104EA000DC01FB017B012227200F270DB0F48D913F
:104EB0009C91659175910E941227EA01C20FD31F40
:104EC000C20FD31F69917881681B790BE0F43DEF25
:104ED000630F3FE0731F332716C08D919C9165913E
:104EE0007591A0DFEA01C20FD31FC20FD31F6991D2
:104EF0007881680F791F7F3030F009F002C06D3F74
:104F000010F06D5F7F406A932196788311977394B8
:104F100051F61296F701039531F6FF91EF91DF916B
:104F2000CF91BF91AF913F912F911F910F91FF9022
:104F3000EF90AF909F908F907F906F901F900F9009
:104F400008950F921F922F926F927F928F929F924D
:104F5000AF92EF92FF920F931F932F933F93AF93D4
:104F6000BF93CF93DF93EF93FF9330EC232E002773
:104F700077243327DC01FB017B012227200F270D3B
:104F8000C8F02215B8F48D919C91659175914ADF16
:104F9000EA01C20FD31FC20FD31F69917881680F36
:104FA000791F7F30E8F009F002C06D3FC8F06D5FF7
:104FB0007F4016C022198D919C91659175910E9438
:104FC0001227EA01C20FD31FC20FD31F6991788144
:104FD000681B790B28F43DEF630F3FE0731F332705
:104FE0006A932196788311977394721431F677241B
:104FF0001296F7010395021501F6FF91EF91DF91EB
:10500000CF91BF91AF913F912F911F910F91FF9041
:10501000EF90AF909F908F907F906F902F901F9008
:105020000F9008950F921F922F923F924F926F927E
:105030008F929F92AF92BF92CF92EF92FF920F9377
:105040001F932F933F93AF93BF93CF93DF93EF9330
:10505000FF9330E4232E31E0332EBB24CC244424B0
:105060003327DC01FB017B01002722270B0D2C1DC0
:10507000040D30F9231F2315D8F011F40215C0F0E8
:10508000021923098D919C91659175910E941227B7
:10509000EA01C00FD21FC00FD21F69917881681B2F
:1050A000790BE0F43DEF630F3FE0731F332716C029
:1050B0008D919C9165917591B5DEEA01C00FD21F6B
:1050C000C00FD21F69917881680F791F7F3030F04F
:1050D00009F002C06D3F10F06D5F7F406A9321962A
:1050E00078831197439409F4689416F4421409F0F4
:1050F000BBCF4424E8941296F701B39409F4C39407
:10510000C31410F0B21409F0AFCFFF91EF91DF910B
:10511000CF91BF91AF913F912F911F910F91FF9030
:10512000EF90CF90BF90AF909F908F906F904F90E7
:105130003F902F901F900F900895482F4603202DE9
:10514000312D442711200AF44A95682F6703300D4A
:10515000411D632F459567954595679545956795DD
:10516000459567953F70862F942F880F991F860F5E
:10517000941F820F931F112408958702302D782FDA
:105180007603202D310D822F932F9F7011240895C7
:1051900081E590E29F938F930E94D6430F900F90EA
:1051A00008958BE590E29F938F930E94D643809160
:1051B000F4239091F52301968093F4239093F523A3
:1051C0000F900F9008959F938F9385E690E29F93A1
:1051D0008F930E94D6438091F2239091F3230196FE
:1051E0008093F2239093F3230F900F900F900F90E2
:1051F0000895CF93DF9388E690E29F938F930E9468
:10520000D6432091F4233091F5238091F22390919D
:10521000F3233F932F939F938F93821B930B9F9323
:105220008F938CE790E29F938F930E94D643C6E9B9
:10523000D0E2DF93CF930E94D643DF93CF930E94B7
:10524000D643DF93CF930E94D6438DB79EB7409647
:105250008DBF9EBFDF91CF910895AF92BF92CF9245
:10526000DF92EF92FF920F931F93CF93DF93CDB70F
:10527000DEB7C254D440CDBFDEBF81E2E8E3F1E245
:10528000DE01AE5DBB4F01900D928A95E1F781E2A0
:10529000E8E3F1E2DE01AF5FBB4F01900D928A952A
:1052A000E1F789E990E20E94E32808EF13E328EF91
:1052B00031E3AE014F5F5F4FBE016F5F7D4FCE01A7
:1052C0008E5D9B4F0E943A3FCE018E5D9B4F5C01ED
:1052D0006C0190E2C90ED11CF5011192EC15FD058F
:1052E000E1F728EF35E3AE014F5F5F4FBE016F5F1F
:1052F0007D4FCE018E5D9B4F0E947A3FFE01EF5F96
:10530000FB4F7F01DF01B19691918D91981719F0B4
:105310000E94D1283BC0EC15FD05B1F7CE5DDB4FF7
:105320008881C252D4408F5FCE5DDB4F8883C252EA
:10533000D44008EF13E328EF31E3AE014F5F5F4F36
:10534000BE016F5F7D4FCE018E5D9B4F0E943A3F45
:10535000FE01EE5DFB4F1192EC15FD05E1F728EF24
:1053600035E3AE014F5F5F4FBE016F5F7D4FCE01F2
:105370008E5D9B4F0E947A3FF50191915F01F7018D
:1053800081917F01981789F00E94C828CE5BDB4F7E
:10539000CDBFDEBFDF91CF911F910F91FF90EF90B6
:1053A000DF90CF90BF90AF900895AC14BD0421F76B
:1053B000AFCFEF92FF920F931F93CF93DF93CDB7B1
:1053C000DEB7C258D840CDBFDEBF81E4E8E1F1E2EC
:1053D000DE01AE5BB74F01900D928A95E1F781E453
:1053E000E8E1F1E2DE01AF5FB74F01900D928A95DF
:1053F000E1F788ED90E20E94E32808EF19E228EF38
:1054000035E2AE014F5F5F4FBE016F5F7B4FCE0154
:105410008E5B974F0E9407438E010E5B174F7E01F4
:105420008EE7E81A87EFF80AF8011192EE15FF05EA
:10543000E1F728EF3DE2AE014F5F5F4FBE016F5FC6
:105440007B4FCE018E5B974F0E94AF43FE01EF5F13
:10545000F74FD8019D918D018191981769F00E94B5
:10546000D128CE57D74FCDBFDEBFDF91CF911F914F
:105470000F91FF90EF900895AE15BF0551F70E9470
:10548000C828EFCFCF92DF92EF92FF920F931F9336
:10549000CF93DF93CDB7DEB7C258D340CDBFDEBFC9
:1054A00081E4E8E1F1E2DE01AE5BBC4F01900D92D8
:1054B0008A95E1F781E4E8E1F1E2DE01AF5FBC4FFC
:1054C00001900D928A95E1F789E591E20E94E32827
:1054D00080ECE82EF12C08EF12E228E731E2AE0171
:1054E0004F5F5F4FBE016F577E4FCE018E5B9C4F6B
:1054F0000E944834CE018E5B9C4F7C016C0198E188
:10550000C90ED11CF7011192EC15FD05E1F700EC75
:1055100010E028E734E2AE014F5F5F4FBE016F57E6
:105520007E4FCE018E5B9C4F0E94F534FE01EF5FF3
:10553000FC4FD7019D917D018191981779F00E94D0
:10554000D128CE57DC4FCDBFDEBFDF91CF911F9169
:105550000F91FF90EF90DF90CF900895AC15BD05AF
:1055600041F70E94C828EDCFCF92DF92EF92FF92D1
:105570000F931F93CF93DF93CDB7DEB7C258D440BC
:10558000CDBFDEBF81E2E0E1F0E2DE01AE5BBB4F0A
:1055900001900D928A95E1F780E2E2E4F4E0EC0FED
:1055A000FD1FB196DF01982F1D929A95E9F791E2C0
:1055B000E0E1F0E2DE01AF5FBB4F01900D929A9502
:1055C000E1F7E1E0F4E0EC0FFD1FB196DF011D9281
:1055D0008A95E9F78EE991E20E94E328E12CFF2405
:1055E000F39408E71DE128E73BE1AE014F5F5F4F11
:1055F000BE016F5F7D4FCE018E5B9B4F0E94483492
:10560000CE018E5B9B4F7C016C0190E2C90ED11CD8
:10561000F7011192EC15FD05E1F700E011E028E734
:105620003FE1AE014F5F5F4FBE016F5F7D4FCE0127
:105630008E5B9B4F0E94F534FE01EF5FFB4FD7015D
:105640009D917D018191981779F00E94D128CE57C4
:10565000DB4FCDBFDEBFDF91CF911F910F91FF9048
:10566000EF90DF90CF900895AC15BD0541F70E94F3
:10567000C828EDCFCF92DF92EF92FF920F931F9346
:10568000CF93DF93CDB7DEB7C258D540CDBFDEBFD5
:1056900081E4E8E1F1E2DE01AE5BBA4F01900D92E8
:1056A0008A95E1F781E4E8E1F1E2DE01AF5FBA4F0C
:1056B00001900D928A95E1F783EE91E20E94E32832
:1056C00080E4E82EFF24F39408E716E128EF33E1A5
:1056D000AE014F5F5F4FBE016F577D4FCE018E5BB6
:1056E0009A4F0E944834CE018E5B9A4F7C016C0128
:1056F00098E2C90ED11CF7011192EC15FD05E1F7F6
:1057000000E411E028EF38E1AE014F5F5F4FBE01CA
:105710006F577D4FCE018E5B9A4F0E94F534FE018C
:10572000EF5FFA4FD7019D917D018191981779F034
:105730000E94D128CE57DA4FCDBFDEBFDF91CF9187
:105740001F910F91FF90EF90DF90CF900895AC15CF
:10575000BD0541F70E94C828EDCFCF92DF92EF92AE
:10576000FF920F931F93CF93DF93CDB7DEB7C25352
:10577000D340CDBFDEBF89E1E7E0F3E2DE01A65E04
:10578000BC4F01900D928A95E1F789E1E7E0F3E2E1
:10579000DE01AF5FBC4F01900D928A95E1F788E280
:1057A00092E20E94E32880ECE82EF12C08EF10E151
:1057B00028E73FE0AE014F5F5F4FBE016F577E4F5E
:1057C000CE01865E9C4F0E942D38CE01865E9C4F96
:1057D0007C016C0198E1C90ED11CF7011192EC1506
:1057E000FD05E1F700EC10E028E732E1AE014F5F84
:1057F0005F4FBE016F577E4FCE01865E9C4F0E9469
:10580000D938FE01EF5FFC4FD7019D917D01819159
:10581000981779F00E94D128CE5CDC4FCDBFDEBF57
:10582000DF91CF911F910F91FF90EF90DF90CF907C
:105830000895AC15BD0541F70E94C828EDCFCF9261
:10584000DF92EF92FF920F931F93CF93DF93CDB729
:10585000DEB7C254D440CDBFDEBF81E2E8E3F1E25F
:10586000DE01AE5DBB4F01900D928A95E1F781E2BA
:10587000E8E3F1E2DE01AF5FBB4F01900D928A9544
:10588000E1F78DE692E20E94E328E12CFF24F394F5
:1058900008E71BE028E739E0AE014F5F5F4FBE012C
:1058A0006F5F7D4FCE018E5D9B4F0E942D38CE01E4
:1058B0008E5D9B4F7C016C0190E2C90ED11CF701FB
:1058C0001192EC15FD05E1F700E011E028E73DE05D
:1058D000AE014F5F5F4FBE016F5F7D4FCE018E5DAA
:1058E0009B4F0E94D938FE01EF5FFB4FD7019D917E
:1058F0007D018191981779F00E94D128CE5BDB4F12
:10590000CDBFDEBFDF91CF911F910F91FF90EF9040
:10591000DF90CF900895AC15BD0541F70E94C828CF
:10592000EDCFCF92DF92EF92FF920F931F93CF9321
:10593000DF93CDB7DEB7C255D540CDBFDEBF89E21C
:10594000E7EFF2E2DE01A65DBA4F01900D928A9573
:10595000E1F789E2E7EFF2E2DE01AF5FBA4F0190D3
:105960000D928A95E1F782EB92E20E94E32880E4AF
:10597000E82EFF24F39408E714E028EF31E0AE01AD
:105980004F5F5F4FBE016F577D4FCE01865D9A4FCF
:105990000E942D38CE01865D9A4F7C016C0198E201
:1059A000C90ED11CF7011192EC15FD05E1F700E4D9
:1059B00011E028EF36E0AE014F5F5F4FBE016F5739
:1059C0007D4FCE01865D9A4F0E94D938FE01EF5F70
:1059D000FA4FD7019D917D018191981779F00E942E
:1059E000D128CE5ADA4FCDBFDEBFDF91CF911F91C4
:1059F0000F91FF90EF90DF90CF900895AC15BD050B
:105A000041F70E94C828EDCFCF92DF92EF92FF922C
:105A10000F931F93CF93DF93CDB7DEB7C258D34018
:105A2000CDBFDEBF81E4E8E1F1E2DE01AE5BBC4F59
:105A300001900D928A95E1F781E4E8E1F1E2DE015F
:105A4000AF5FBC4F01900D928A95E1F780E293E23F
:105A50000E94E32880ECE82EF12C08EF12E228E700
:105A600031E2AE014F5F5F4FBE016F577E4FCE01F7
:105A70008E5B9C4F0E94353ACE018E5B9C4F7C0121
:105A80006C0198E1C90ED11CF7011192EC15FD05CE
:105A9000E1F700EC10E028E734E2AE014F5F5F4F22
:105AA000BE016F577E4FCE018E5B9C4F0E94D63A4F
:105AB000FE01EF5FFC4FD7019D917D018191981709
:105AC00079F00E94D128CE57DC4FCDBFDEBFDF91E9
:105AD000CF911F910F91FF90EF90DF90CF9008959D
