:100000000C9446020C946C020C946C020C946C02DE
:100010000C946C020C946C020C946C020C946C02A8
:100020000C946C020C946C020C946C020C946C0298
:100030000C946C020C946C020C946C020C946C0288
:100040000C946C020C946C020C946C020C946C0278
:100050000C946C020C946C020C946C020C946C0268
:100060000C946C020C946C020C946C020C946C0258
:100070000C946C020C946C020C946C020C946C0248
:100080000C946C020C946C020C946C020C946C0238
:100090000C946C020C946C020C946C020C946C0228
:1000A0000C946C020C946C020C946C020C946C0218
:1000B0000C946C020C946C020C946C020C946C0208
:1000C0000C946C020C946C020C946C020C946C02F8
:1000D0000C946C020C946C020C946C020C946C02E8
:1000E0000C946C020C946C020C946C020C946C02D8
:1000F0000C946C020C946C020C946C020C946C02C8
:100100000C946C020C946C020C946C020C946C02B7
:100110000C946C020C946C020C946C020C946C02A7
:100120000C946C020C946C020C946C020C946C0297
:100130000C946C020C946C020C946C020C946C0287
:100140000C946C020C946C020C946C020C946C0277
:100150000C946C020C946C020C946C020C946C0267
:100160000C946C020C946C020C946C020C946C0257
:100170000C946C020C946C020C946C020C946C0247
:100180000C946C020C946C020C946C020C946C0237
:100190000C946C020C946C020C946C020C946C0227
:1001A0000C946C020C946C020C946C020C946C0217
:1001B0000C946C020C946C020C946C020C946C0207
:1001C0000C946C020C946C020C946C020C946C02F7
:1001D0000C946C020C946C020C946C020C946C02E7
:1001E0000C946C020C946C020C946C020C946C02D7
:1001F0000C946C020C94D70215049FBCBE00D73936
:1002000096E8E14F3E2C61BA49F1FBA599964771FA
:1002100064CB9FDC91E1555BB31F275B87897F2E01
:10022000E28CF0D2D9DA78C2A57E0A3C8678E5065F
:100230004215098BBE3FE0B73D8669903F4D0F6583
:10024000D1DCB599BD0A9DB17CE4C58BE0C1447693
:10025000067D3E305FF31D45EB9845638DF728C85A
:10026000773B555DF3285297CC8204F9C206A50F5F
:10027000F8370B752265B7A4E21B8B1CFB74FA0AD6
:10028000ED641CD6B3457BFAFD72E95DCB90B98471
:100290003B033A7EFE9F3CDDF189857B76E9E9C22E
:1002A000FF48C7AEEA6E1E5098C07845FFA485ADE2
:1002B0007497E5497378B9C1FFD41B54F3D6E6753A
:1002C0008E6C07C3FFEBC3AAA25615EA0CEDFE2401
:1002D000FFF709D278F1886D792F6016FFFC303076
:1002E000182D40BCA5300B2DFFFE716E2F986103B9
:1002F0002EA855C1FFFF63B181E1E7FC7B6E6CD096
:10030000FFFFC5270427CC5969F93982FFFFEABBF3
:10031000A41084C41FDE2CA5FFFFF89F8D25A19794
:10032000B5504111FFFFFD8B5C34AEEE1F6D11889F
:10033000FFFFFF372F0CFF079E5B35C7FFFFFFC294
:1003400072000FA85EFD1B10FFFFFFEDE58F2B98DD
:10035000C30F3B2CFFFFFFFAE454266259A1D57E60
:10036000FFFFFFFE9E052E68C3A7A0F3FFFFFFFF60
:10037000A41456A589B0ED6EFFFFFFFFE91A5D12C8
:100380006693FF8BFFFFFFFFFA8774BC789C428B5C
:10039000FFFFFFFFFEBF072219E65202FFFFFFFF2C
:1003A000FFB97287727973C0FFFFFFFFFFF120571B
:1003B000546BD457FFFFFFFFFFFCFE25F50680FEC0
:1003C000FFFFFFFFFFFF6AB9A8AAC85EFFFFFFFF9C
:1003D000FFFFE43E08F1E930FFFFFFFFFFFFFB0CEA
:1003E000DBC2C9B3FFFFFFFFFFFFFF275197372E87
:1003F000FFFFFFFFFFFFFFDC78306775FFFFFFFFA8
:10040000FFFFFFFA69CDD8FCFFFFFFFFFFFFFFFFF3
:10041000285E0821FFFFFFFFFFFFFFFFE0D3801DE5
:10042000FFFFFFFFFFFFFFFFFBADBF7DFFFFFFFFF4
:10043000FFFFFFFFFF6CF730FFFFFFFFFFFFFFFF36
:10044000FFED4322FFFFFFFFFFFFFFFFFFFDB5E3CF
:10045000FFFFFFFFFFFFFFFFFFFFBB57FFFFFFFF98
:10046000FFFFFFFFFFFFF84BFFFFFFFFFFFFFFFF57
:10047000FFFFFF2DFFFFFFFFFFFFFFFFFFFFFFEB72
:10048000FFFFFFFFFFFFFFFFFFFFFFFF11241FBE66
:10049000CFEFCDBFDFE3DEBF00E00CBF18BE19BE5B
:1004A0001ABE1BBE10E2A0E0B0E2E4EDFDE000E009
:1004B0000BBF02C007900D92A231B107D9F71BBE46
:1004C00020E2A2E1B0E201C01D92A833B207E1F739
:1004D0000E946E020C94E8060C940000CDB7DEB7C3
:1004E000D450CDBFDEBF8091500082608093500019
:1004F0008091510081FFFCCF81E00E94180385E0CC
:100500000E940E030E94DE020E942D038AE090E00A
:100510000E94430418EC80E290E00E9443041150D2
:10052000D1F78AE090E00E94430470E060E0CE01E1
:1005300001960E94CE03CE0101966C017E0197ECDC
:10054000E91A9EEFF90A0EE010E2F601819191910D
:100550006F01B0E0A0E08115F8E19F07A105B105AA
:1005600024F081509043A109B1099F938F931F9369
:100570000F930E9431040F900F900F900F90CE14A4
:10058000DF0419F78AE090E00E94430418EC80E24F
:1005900090E00E9443041150D1F78AE090E00E945D
:1005A000430490E080E0DC5FCDBFDEBF0895909112
:1005B000A10895FFFCCF8093A0080895E0E4F6E041
:1005C00088E0818384E08283E0EAF8E083E0858349
:1005D0008FEC868317828481806184838481886024
:1005E000848380E090E280933420909335200895B6
:1005F0000F93CF93DF930F92CDB7DEB79C018FB7E8
:100600008983F8941BBEF90108ED04BF60838981DA
:100610008FBF0F90DF91CF910F910895E0E5F0E04B
:100620002081982F9095922390839081892308951B
:100630000F931F93CF93C82F00E410E0F80160815F
:10064000687F682B80E490E00E94F802F8018081C6
:100650008C23CF911F910F91089510920006E0E036
:10066000F2E0808181608083118282E0828381E078
:10067000848389E180A380E281A30895BC0142E2E2
:1006800050E282E190E20E945303E2E1F0E28081D5
:100690009181A281B3810196A11DB11D80839183B7
:1006A000A283B38308959C01CB01BA01405F5F4FE1
:1006B000FB016F5F7F4FE081E093C3004617570750
:1006C000B9F7A901405F5F4FF9012F5F3F4F60818C
:1006D0006093C20042175307B9F72091C0002F76EC
:1006E00020682093C0002091C1002178E1F320917F
:1006F000C10027FD0DC09C01205F3F4FFC0101960A
:100700004091C200408328173907C1F781E008955E
:1007100080E00895AF92BF92DF92EF92FF920F9325
:100720001F93CF93DF93782F5A01A901D8011C9210
:1007300080E0871788F58A0130E020E090E07501BD
:10074000689FE00CF11C112422C0F701E20FF31F97
:10075000E4919D1508F4922FE801F9918E01FE179E
:1007600090F49F5F9C93240F351FF901918197FFAF
:100770008195DF91CF911F910F91FF90EF90DF90C6
:10078000BF90AF9008952F5F3F4FEF1718F0D22E14
:100790002617D8F28F5FCDCF80E0EBCF9F92AF923C
:1007A000BF92CF92DF92EF92FF920F931F93CF935E
:1007B000DF93CDB7DEB7E197CDBFDEBF6B0119AADE
:1007C0007C015C012CEFB21A8EEF982E83E2891522
:1007D00068F4CE0101960E943E03CE0141960E942C
:1007E0003E03CE0181960E943E03912C21E030E031
:1007F0002C0F3D1F290D311D8E010F5C1F4F48EF3F
:1008000051E06CE087E30E948A0399A9990E082EB3
:10081000000C990BE1E0CE16D10459F4F7012081C8
:100820003181820F931F8130F0E39F0710F08150D8
:100830009043F70180839183F2E0EF0EF11CEA14FC
:10084000FB0421F6E196CDBFDEBFDF91CF911F9172
:100850000F91FF90EF90DF90CF90BF90AF909F905F
:100860000895CF93DF93CDB7DEB7FE013696619141
:100870007191AF0180913420909135200E944904FC
:10088000DF91CF91089560913420709135200C94C0
:100890005A062F923F924F925F926F927F928F9261
:1008A0009F92AF92BF92CF92DF92EF92FF920F93FF
:1008B0001F93CF93DF93CDB7DEB72F97CDBFDEBFAA
:1008C0007C013B018A01DC0116961D921C92179750
:1008D00013968C9181FFD5C19AE0292EFE013196A5
:1008E0004F01D70113969C91F30193FD859193FFDE
:1008F00081913F01882309F448C1853239F493FD81
:10090000859193FF81913F01853229F4B70190E0F1
:100910000E945A06E6CFB12C412C512CBFE1B515EF
:1009200038F08B3209F188F4803201F1833221F101
:1009300057FC3AC020ED280F2A3040F556FE1FC064
:10094000B29C200D1124B22E06C08D3291F080335E
:1009500079F7689450F8F30193FD859193FF8191A5
:100960003F018111DBCF20C0689451F8689452F8A0
:10097000F2CF689453F8EFCF689454F8ECCF429CD0
:10098000200D1124422E689455F8E5CF8E3229F4BB
:1009900056FCFBC0689456F8DECF8C3619F4689488
:1009A00057F8D9CF8836B9F2982F9F7D9554933058
:1009B000C0F08336A1F18337C1F1833509F05BC004
:1009C000D801CD90DD908D016B2D70E056FC02C0FA
:1009D0006FEF7FEFC6010E9444065C01689457F8F0
:1009E0000AC00C5F1F4FEFE3E983AA24A394B12C44
:1009F0006401E89457F853FC04C04A141B0409F03E
:100A000018F5342CA114B10431F5332009F469CF61
:100A1000B70180E290E00E945A063A94F6CFD801DE
:100A20008C9189830E5F1F4FE0CFF801C190D19068
:100A30008F016B2D70E056FC02C06FEF7FEFC60197
:100A40000E944F065C01D5CFB70180E290E00E9482
:100A50005A064A94D2CFF60157FC859157FE8191F0
:100A60006F01B70190E00E945A0631103A94B1E04C
:100A7000AB1AB108C7CF843619F0893609F074C0B3
:100A8000F80157FE6AC061917191819191918F0136
:100A9000E52DEF76DE2E97FF09C090958095709535
:100AA00061957F4F8F4F9F4F6894D7F82AE030E0D1
:100AB000A4010E948A06C82EC818AC2C5D2CD6FE54
:100AC0000CC0E89450F8CB1440F4D4FE05C0D2FC1E
:100AD00003C05D2D5E7E552EAB2C54FEAAC0FE01D8
:100AE000EC0DF11D8081803309F09CC0652D697E7D
:100AF000562E752D7870372E53FCAAC050FEA4C018
:100B0000BC2CA41418F44C0CB42CBA1854FEA6C077
:100B1000B70180E390E00E945A0652FE09C088E7C0
:100B200090E051FE02C088E590E0B7010E945A06AD
:100B3000CB1408F49FC0CA94D12C8FEFC81AD80ADE
:100B4000C80CD91CD6018E916D01B70190E00E94AE
:100B50005A068C149D04B1F758CF61917191072EFC
:100B6000000C880B990B93CFD52CE894D4F82AE08D
:100B700030E08537C9F1F52DF97FDF2E803739F167
:100B8000E8F4883539F18F3669F1F701868197816C
:100B90002F96CDBFDEBFDF91CF911F910F91FF90B8
:100BA000EF90DF90CF90BF90AF909F908F907F900D
:100BB0006F905F904F903F902F900895883729F75E
:100BC000D4FE02C06894D2F820E130E00DC06894F1
:100BD000D4F8F6CF54FE03C02F2F2660D22E20E18A
:100BE00032E002C028E030E0F801D7FE15C04191A4
:100BF0005191619171914C875D876E877F878F01DD
:100C0000A4016C857D858E859F850E948A06C82EED
:100C1000C818E894D7F851CF81919191AC0170E058
:100C200060E0E9CF52FC02C0A39463CFA394A394E5
:100C300060CF852D867809F45CCFF6CFB70180E2CE
:100C400090E00E945A06A394A414C0F3312C5ECF06
:100C5000342C3A18A41408F459CFF8CF852D86788F
:100C600009F466CF8BE251FE80E257FC8DE2B701BA
:100C700090E05CCFB70180E390E00E945A06BA94FE
:100C800057CF8FEF9FEF84CFFC01059061507040EC
:100C90000110D8F7809590958E0F9F1F0895FC0145
:100CA0006150704001900110D8F7809590958E0F9B
:100CB0009F1F08950F931F93CF93DF93182F092F32
:100CC000EB018B8181FD09C01FEF0FEF812F902F6A
:100CD000DF91CF911F910F91089582FF14C02E8153
:100CE0003F818C819D81281739073CF4E881F98187
:100CF000CF0101968883998310838E819F8101960D
:100D00008E839F83E3CFE885F985812F1995892B01
:100D1000A1F3DACFFA01AA27283051F1203181F16D
:100D2000E8946F936E7F6E5F7F4F8F4F9F4FAF4FF3
:100D3000B1E03ED0B4E03CD0670F781F891F9A1F06
:100D4000A11D680F791F8A1F911DA11D6A0F711DBA
:100D5000811D911DA11D20D009F468943F912AE0C6
:100D6000269F11243019305D3193DEF6CF010895AE
:100D7000462F4770405D4193B3E00FD0C9F7F6CFDF
:100D8000462F4F70405D4A3318F0495D31FD4052A7
:100D9000419302D0A9F7EACFB4E0A695979587953D
:100DA00077956795BA95C9F700976105710508951C
:100DB0009B01AC010A2E06945795479537952795C8
:100DC000BA95C9F7620F731F841F951FA01D089560
:040DD000F894FFCFC5
:100DD4000000000200000000D702000000002564AB
:020DE4002000ED
:00000001FF
